:020000040800F2
:10000000B80F0020C5000008B50A0008E50900087F
:1000100000000000000000000000000000000000E0
:10002000000000000000000000000000E50A0008D9
:100030000000000000000000B70A0008E70A0008FE
:10004000D700000800000000D7000008D700000813
:10005000D7000008D7000008D7000008D700000824
:1000600000000000D70000082B030008D70000089C
:10007000D7000008D7000008D700000800000000E3
:10008000D70000080000000000000000F50A00088A
:1000900000000000D7000008D7000008D7000008C3
:1000A00000000000D7000008000000000D0B000851
:1000B0000348854600F0FCF800480047F554000866
:1000C000B80F00200448804704480047FEE7FEE7D9
:1000D000FEE7FEE7FEE7FEE7F30A0008B1000008CE
:1000E00030B50B46014600202022012409E00D46D0
:1000F000D5409D4205D31D469540491B2546954058
:1001000040191546521E002DF1DC30BD70B500249B
:100110002546002801DA01244042002901DA0125A0
:100120004942FFF7DDFFAC4200D04042002C00D036
:10013000494270BDF0B51FB40646002082B00546A6
:100140004024019100901BE0019922460F46304661
:1001500000F020F8049A059B801A994110D31046AC
:100160001946224600F093F8361A8F41019722462D
:1001700001200021009F00F08AF838184D410090BE
:100180002046641E0028DFDC019B00982946324689
:1001900007B0F0BD10B5202A04DB0846203AD04055
:1001A000002110BD0B46D340D0402024A21A91401C
:1001B0000843194610BD03460B439B0703D009E0D3
:1001C00008C9121F08C0042AFAD203E00B78037092
:1001D000401C491C521EF9D27047D2B201E0027095
:1001E000401C491EFBD270470022F6E710B51346AB
:1001F0000A4604461946FFF7F0FF204610BDCAB272
:10020000401E4178401C8A4202D00029F9D10020CA
:100210007047421C0178401C0029FBD1801A7047AE
:1002200030B504460020034600E05B1C934203D235
:10023000E05CCD5C401BF8D030BD03460A7802700C
:10024000401C491C002AF9D11846704730B50346B6
:100250001D78002D08D00A461478521C002C03D0BB
:10026000AC42F9D15B1CF3E7181A30BD30B5054636
:10027000002008E00A4602E0A34207D0521C13788F
:10028000002BF9D1401C2C5C002CF3D130BD10B5F3
:10029000202A04DB0146203A9140002010BD914005
:1002A00020239C1A0346E3401943904010BD0000F0
:1002B000064C0125064E05E0E36807CC2B430C3CB9
:1002C00098471034B442F7D3FFF7F6FE24610008D4
:1002D0004461000870B58C180578401C6B075B0FF3
:1002E00001D10378401C2A1106D10278401C03E09A
:1002F00006780E70401C491C5B1EF9D12B0705D4F3
:100300000023521E0DD40B70491CFAE70378401CE1
:10031000CB1A921C03E01D780D70491C5B1C521E09
:10032000F9D5A142D8D3002070BD704772B6FEE760
:1003300001488068704700001C0400200248816862
:1003400002788918816070471C04002010B50648A7
:100350000168102211430160002000F007F800F04E
:1003600027F8002010BD00000020024070B50446B0
:100370000D4D7D202978C000FFF7B2FE01460B48E5
:100380000068FFF7ADFE00F015FB002809D1042C32
:1003900007D200222146401E00F00BF800206C60BE
:1003A00070BD012070BD00001C0400202804002046
:1003B000704710B500F06CFD10BD0000F8B50546A3
:1003C0000068354CC00352D5E0690026C00007D450
:1003D000E16920040143E161E169014001260091E6
:1003E0002E480168C90510D40168821511430160C7
:1003F000FFF79EFF074604E0FFF79AFFC01B642843
:1004000024D826480068C005F6D5206A03273F0295
:10041000384020D06968394081421CD0206A226A65
:10042000B843012109040A432262226A8A432262F4
:100430002062C0070FD0FFF77BFF009008E0FFF7B6
:1004400077FF0099411A1648814201D90320F8BD6F
:10045000206A8007F3D5206A6968B84308432062A0
:10046000002E04D0E169012000078143E161287872
:10047000C00705D0206BA96880088000084320636E
:100480002878800605D5206B10218843E968084349
:1004900020630020F8BD0000001002400070004002
:1004A00088130000F8B50F46060059D03A4D286869
:1004B000C007C00FB84209D228684008400038433E
:1004C00028602868C007C00FB84249D13068334C53
:1004D00081070CD5400704D560680721090208434D
:1004E00060606068F0218843B168084360603078DC
:1004F000C00726D0706801280ED0216802280ED0CF
:10050000890700292CDA6168890889000143616044
:10051000FFF70EFF00900DE021688903F1E78901E4
:10052000EFE7FFF705FF0099411A1D48814201D905
:100530000320F8BD60680C2108407168890088427A
:10054000EFD12868C007C00FB8420BD9286840080F
:100550004000384328602868C007C00FB84201D067
:100560000120F8BD3078400706D5606807210902F0
:100570008843F1680843606000F018F86168094A30
:100580000906090F515CC840074908600020FFF7C1
:10059000EDFE0020F8BD00000020024000100240E7
:1005A00088130000A45E00082804002010B514A3DE
:1005B0000FCB88B06C460FC415A30FCB0FC4184ADD
:1005C00051680C200B4603401648042B16D0082B0C
:1005D00014D18B021B0F6C46E45CD26A04AB120789
:1005E000120F9A5CC90305D500231946FFF7A2FD37
:1005F000214601E020460C4900F031FC08B010BD56
:1006000002030405060708090A0B0C0D0E0F101053
:100610000102030405060708090A0B0C0D0E0F1052
:100620000010024000127A0000093D00FEB50400EF
:1006300070D02078DC4DC0074AD068680007800F72
:10064000012807D068680007800F022809D1686870
:10065000C00306D5286880033AD560680028E7D033
:1006600036E06168012914D001208004002901D0FE
:10067000052914D02A68012109048A432A602968BF
:10068000814329606068002816D0FFF751FE0646B6
:100690000EE028680121090408432860F2E7296870
:1006A00001432960F5E7FFF743FE801B64286ED8FD
:1006B00028688003F7D50BE0FFF73AFE064604E012
:1006C000FFF736FE801B6428F1D828688003F7D432
:1006D00020780126800700283CDA68680007800F30
:1006E00007D068680007800F022809D16868C00336
:1006F00006D42868800716D5E06801280AD112E0E0
:10070000E0680028286816D030432860FFF710FE04
:10071000074605E043E1FFF70BFEC01B0228C6D8E1
:1007200028688007F7D52868F82188432169C9001F
:10073000084328600EE0400840002860FFF7F8FDFD
:10074000074604E0FFF7F4FDC01B0228AFD8286875
:100750008007F7D42078000722D5E0690028686A6E
:100760000ED030436862FFF7E3FD074604E0FFF771
:10077000DFFDC01B02289AD8686A8007F7D50FE012
:10078000400840006862FFF7D3FD074605E09DE0A2
:10079000FFF7CEFDC01B022889D8686A8007F7D40E
:1007A000207804274007002860DA00200190E869DB
:1007B000C00008D4E969B8060143E961E96901406C
:1007C00001200091019079480168C90511D40168A0
:1007D000821511430160FFF7ABFD009005E0FFF7C4
:1007E000A7FD0099401A642870D870480068C005B9
:1007F000F5D5A06801280AD0002801D0052810D01E
:10080000286A400840002862286AB84301E0286A44
:1008100030432862A068002812D0FFF789FD0090BD
:100820000AE0286A38432862F1E7FFF781FD009962
:10083000411A5F48814249D8286A8007F5D50DE002
:10084000FFF776FD009006E0FFF772FD0099411A70
:10085000574881423AD8286A8007F5D40198002881
:1008600004D0E969012000078143E9612078C006CE
:1008700035D5606901280CD0401D686B23D0384302
:100880006863686B400840006863FFF751FD0646E7
:1008900022E0686B38436863686B30436863FFF736
:1008A00047FD064604E0FFF743FD801B02285BD8A6
:1008B000686B8007F7D5686BF8218843A169C90088
:1008C000084368630BE0B8436863F4E74CE0FFF764
:1008D0002FFD801B022847D8686B8007F7D4206A59
:1008E00000285ED069680907890F022942D00126D5
:1008F00036060228286805D0B0432860FFF718FDA7
:10090000044633E0B0432860FFF712FD074604E0D9
:10091000FFF70EFDC01B022826D828688001F7D4F7
:10092000E86AE16A000900010843E862616AA06AB6
:10093000084369683D2212049143084368602868AF
:1009400030432860FFF7F4FC044604E0FFF7F0FCB6
:10095000001B022808D828688001F7D521E0FFF79E
:10096000E7FC001B022801D90320FEBD2868800196
:10097000F5D416E00128F8D06868E96A012212046B
:10098000636A02409A420AD10907E26A090F91425A
:1009900005D10F2189040840A16A884201D00120B5
:1009A000FEBD0020FEBD00000010024000700040AF
:1009B00088130000094910B5401E884201D9012062
:1009C00010BD074C60610321081F00F061FA002090
:1009D000A06107202061002010BD0000FFFFFF0084
:1009E00000E000E0FEE7F0B500244DE00123A34065
:1009F0001A4048D04B68012B01D0022B10D18E68D1
:100A00008568134653435F00DF19BD4373431D439D
:100A10008560CD680B6846689E436B431E43466005
:100A20000F69C668134653435D005D19AE435F43CB
:100A30003E43C6604E68022E1FD1FF2A0ED81746CD
:100A40004A69066A94461A467A437A431701BF1ADE
:100A5000BE4367467A43164306620EE0160A3246E4
:100A600072434F6972437243BC461601B71A466A15
:100A7000BE4367467A43164346624A680668534354
:100A8000AE431E430660641C0A681346E340ADD1C2
:100A90000020F0BD08B506490A690092421C00D04A
:100AA000401C0A69D20300D5401E0028F9D108BDB8
:100AB00000E000E0FEE7704701070209080D084961
:100AC0001043C8608A681206FCD48A68D20700D036
:100AD000C86802070004010E100E084370470000AA
:100AE00000300140704710B5FFF728FC04F084FF88
:100AF00010BD704710B504480169490849000161FB
:100B000000F0D6FC10BD00000020004010B50A4CDB
:100B1000E069400605D504F0EBFF206A4021084358
:100B20002062E069800606D504F0BAFF0248203052
:100B300080880249087010BD003801400004002080
:100B4000F0B5254887B0016849084900016023498C
:100B50008A6901239B031A438A61816880221143B9
:100B600081600168120291430160016808263143E7
:100B700001600168042421430160D021C160016843
:100B80000125294301600168402211430160016889
:100B900020221143016018216846FFF725FB0094CD
:100BA000032002900024022709200197039469463C
:100BB000C00605950494FFF716FF032002900096E7
:100BC000092003946946019705950494C006FFF730
:100BD0000AFF07B0F0BD00000038014000100240DD
:100BE00070B501250924E406A5620620FFF764FF1D
:100BF000A56170BD70B500030E4C010C2170010A97
:100C00006170A070FFF7ECFF00F08AF8012509265B
:100C1000F606B5622020FFF74FFF2078FFF74CFF64
:100C20006078FFF749FFA078FFF746FFB56100F055
:100C300077F870BD10040020F7B501260927FF06DC
:100C400015460C46BE620320FFF736FF2002000E59
:100C5000FFF732FF2004000EFFF72EFFE0B2FFF790
:100C60002BFF002406E00020FFF726FF009908551F
:100C7000641CA4B2AC42F6D3BE61FEBD10B50446FE
:100C800001200921C90688620320FFF715FF200211
:100C9000000EFFF711FF2004000EFFF70DFFE0B27A
:100CA000FFF70AFF10BD000070B5042004F052FEEB
:100CB00001240925ED06AC629020FFF7FDFE00201F
:100CC000FFF7FAFE0020FFF7F7FE0020FFF7F4FE23
:100CD0000020FFF7F1FE044E30600020FFF7ECFE2D
:100CE0007060AC6170BD00002809002070B501245F
:100CF0000925ED06AC620520FFF7DEFE0020FFF7B8
:100D0000DBFE064EF060AC61AC623520FFF7D4FE2E
:100D10000020FFF7D1FE3061AC6170BD28090020D2
:100D200010B5FFF7E3FF044C01E0FFF7DFFF207B86
:100D3000C007FAD110BD000028090020F7B51546FC
:100D40000C46FFF74DFF01260927FF06BE62022071
:100D5000FFF7B2FE2002000EFFF7AEFE2004000EE9
:100D6000FFF7AAFEE0B2FFF7A7FE002405E0009817
:100D7000005DFFF7A1FE641CA4B2AC42F7D3BE61D4
:100D8000FFF7CEFFFEBD10B50446FFF729FF012097
:100D90000921C90688620220FFF78EFE2002000E9C
:100DA000FFF78AFE2004000EFFF786FEE0B2FFF791
:100DB00083FE10BDF0B587B018216846FFF714FA1E
:100DC0000125002409260327F606009503946946A9
:100DD0003046029701950494FFF705FE1020039416
:100DE0006A460494A1C269463046FFF7FCFD022022
:100DF00003946A460494A1C269463046FFF7F3FDA6
:100E0000B5611020B0610220B06107B0F0BD0000F4
:100E10000FB410B503A9044B044A029800F06AF815
:100E200010BC08BC04B018478D1900082C04002021
:100E30002021020C01D010211046020A01D01046D8
:100E40000839020901D01046091F820801D0104656
:100E5000891E420801D0881E7047081A7047F8B5ED
:100E6000040C8BB2264682B25E430D0C1046370C42
:100E70005843360480190021794116466E43370CD9
:100E800036048019794126466E438919F8BD000061
:100E90008307FF22DB0E9A408907090E994000283C
:100EA00008DB830809489B001B1818689043084317
:100EB000186070470007000F0838830804489B003B
:100EC0001B18D86990430843D861704700E400E0DC
:100ED00000ED00E002E008C8121F08C1002AFAD1A4
:100EE00070477047002001E001C1121F002AFBD1AA
:100EF00070470000FFB591B00F460546002606E09A
:100F000025280AD0149A139990476D1C761C2878CE
:100F10000028F5D1304615B0F0BD00240094012121
:100F2000F34A029400E004436D1C2B780846203BF2
:100F300098401042F7D128782A280ED0022128782C
:100F40000246303A092A15D8009A0A235A43303A01
:100F500080180C436D1C0090F1E701CF0090002831
:100F600005DA01204003044300984042009002202B
:100F700004436D1C28782E2815D10420044368787A
:100F80006D1C2A280AD101CF6D1C02900BE002993A
:100F90000A225143303940186D1C029028780146CE
:100FA00030390929F3D928786C2810D006DC4C2870
:100FB0001AD068280ED06A2817D104E0742813D0FC
:100FC0007A2812D110E00120400504430CE00121F1
:100FD000090501E0032109050C436978814203D129
:100FE0000120000524186D1C6D1C287803906E28C4
:100FF0001ED00CDC632831D004DC00288AD05828AD
:1010000011D1B2E064287BD069280CD178E0732834
:101010002DD004DC6F2870D0702804D1A7E075288B
:101020006CD078286BD0149A13999047761C62E0A4
:101030006002400F022807D003280AD0042838682D
:101040000AD006603F1D56E03868F117066041601F
:10105000F8E738680680F5E70670F3E73878694600
:1010600008740020487404A80390012003E0386845
:1010700003900020C0433F1D61070FD5002101E010
:101080000199491C029A0191914213DA8142F7DBDE
:10109000019A0399895C0029F2D10BE0002101E05B
:1010A0000199491C01918142FADB019A0399895CFB
:1010B0000029F5D101990098139A401A0090214611
:1010C000149B00F03BF901998019461807E003983A
:1010D00003990078491C0391149A13999047019839
:1010E000401E0190401CF2D12146149B139A009897
:1010F00000F014F986196D1C09E741E033E034E093
:101100000A200021049005916002410F022905D0B8
:1011100001CFC2179446032905D007E0FF1DFF0841
:10112000FF0003CF06E000B2C2179446042902D1A3
:1011300040B2C1178C4600226146944506DA0A4641
:101140000021404291418C462D2102E0210504D529
:101150002B216A461176012103E0E10701D020210D
:10116000F7E7019154E00A200BE0102009E010207D
:10117000049000210420044308200591029003E01C
:1011800008200021059104906002410F022905D03A
:1011900001CF00229446032906D006E0FF1DFF0878
:1011A000FF0003CF8C4603E080B2042900D1C0B217
:1011B0000021019121072BD50399702906D0049AAB
:1011C0001021059B4A401A4305D00EE040216A4693
:1011D0001176012108E06146014306D030216A46BC
:1011E00011760399517602210191049A0821059BF9
:1011F0004A401A430CD16146014301D1610707D52A
:1012000030216A461176012101910299491E02910D
:101210000399582904D037A103910FA90F910DE02C
:1012200039A1F9E76146059B049AFEF783FF039B0A
:101230008C469B5C0F9A521E0F92137061460143BD
:10124000F0D10F9807A9081A20300390600704D541
:10125000012000048443029801E0012002900399D8
:10126000884201DD401A00E00020411802900198F8
:1012700009180098401A0090E00306D42146149BF8
:10128000139A009800F05AF886190020049008E09C
:1012900006A9085C149A139990470498401C761C80
:1012A000049001998842F3DBE0030CD52146149B9E
:1012B000139A009800F042F8861904E0149A30203E
:1012C00013999047761C0299481E02900029F5DC7C
:1012D00008E00F980F990078491C0F91149A139900
:1012E0009047761C0399481E03900029F1DCFBE629
:1012F00009280100303132333435363738396162EC
:1013000063646566000000003031323334353637AF
:10131000383941424344454600000000F8B50446D0
:1013200000251E461746880404D405E039462020CF
:10133000B0476D1C641EF9D52846F8BDFFB50446BC
:10134000002581B01E46C80301D5302700E02027C4
:10135000880404D505E038460399B0476D1C641E27
:10136000F9D5284605B0F0BD044881684900490810
:10137000816081680029FCDB704700000024014087
:1013800070B518480121826988B049020A43826118
:101390008069084006901448C16842149143C160B6
:1013A00012498A6801239B051A438A6081680124D7
:1013B0002143816018216846FEF716FF00940C4E09
:1013C000032400256946304604950194FFF70BFB82
:1013D000022000906946049501943046FFF703FB14
:1013E00008B070BD001002400024014000270140F9
:1013F0000004004830B595B030216846FEF7F4FE91
:1014000000240F9402200D940E9400901294012554
:10141000139410200C940395049010941194089444
:101420006846FFF703F9002801D0FEF77FFF072089
:101430000C900D940E9400210F940CA8FFF732F835
:10144000002801D0FEF772FF10A810951294FEF745
:10145000B5FF002801D0FEF769FF15B030BD0000D0
:1014600010B5074800210170064A03E09C1861701E
:101470005B1C03700378142BF8D3117010BD0000AF
:101480003C0400204C0B002010B5074800210170DF
:10149000064A03E09C1861705B1C03700378142BF0
:1014A000F8D3117010BD00003C040020610B002037
:1014B000F8B517480078C00628D5164E00273088A2
:1014C0000125C005C00D401C3060C005C00D124C88
:1014D000FA2814D90920C00637608561082004F075
:1014E00039FA7068401C7060FFF7C8FB042004F0F4
:1014F00031FA0220A062A562A561A562A061074839
:10150000C76081680906FCD4A561A562F8BD00002A
:1015100005040020F80300200014004800300140BA
:10152000F0B5194887B04169012292051143416124
:1015300018216846FEF758FE0024022001250326E4
:1015400003946A46049461C2104F69463846FFF717
:101550004AFA009503946946384602960195049428
:10156000FFF741FA0394049440206A4661C2084C94
:1015700069462046FFF737FA0220B861BD61402076
:10158000A06107B0F0BD0000001002400014004848
:101590000004004810B50949002008604860FFF7C2
:1015A0006DFB042004F0D6F9054802228262012175
:1015B000816281618162826110BD0000F8030020B8
:1015C00000140048F8B5A84900250879A74CC207BF
:1015D000002A7DD0400840000871661E307800283F
:1015E0001CD03570FFF750FFFF230433A0A2A2499F
:1015F000A24802F065FAA049A04802F0D5FE7D237A
:10160000DB009F4A9C499D4802F02AFF9A499B486B
:1016100002F068F9994803F01FFFDEE02078012707
:10162000000700280BDA0B2196A004F099FA207825
:10163000F721084020700920C0068761CDE094A002
:1016400004F072FA002805D02078384320700B216E
:1016500091A0C0E093A004F067FA002840D0FFF703
:1016600013FFFF23043382A28349844802F028FA3F
:101670007D23DB008E4A8049804802F095FD7E493B
:101680007E4802F02FF97D4803F0E6FE89A0FFF7BF
:10169000BFFB94A0FFF7BCFB92A0FFF7B9FB91A0A2
:1016A000FFF7B6FB8FA0FFF7B3FB8EA0FFF7B0FBF1
:1016B0007F492A2008708CA0FFF7AAFB89A0FFF7BA
:1016C000A7FB88A0FFF7A4FB86A0FFF7A1FB00E023
:1016D00088E084A0FFF79CFB82A0FFF799FB7CE0E9
:1016E00082A004F021FA00282FD0FFF7CDFE7DA0C4
:1016F000FFF78EFB7BA0FFF78BFB7AA0FFF788FB41
:1017000078A0FFF785FB77A0FFF782FB7BA0FFF7B0
:101710007FFB74A0FFF77CFB72A0FFF779FB71A041
:10172000FFF776FB6FA0FFF773FB6EA0FFF770FB70
:101730007F4837700570524A02E05554491C0170C9
:101740000178C829F9D3756047E07AA004F0ECF974
:1017500000280FD0FFF71EFF2078EF220146C906B0
:10176000C90F791A1040090108432070C006C10F43
:1017700072A030E073A004F0D7F9002811D009203E
:10178000C00687612078FB2201464907C90F791AF4
:10179000104089000843207040071ED50B216BA024
:1017A00019E06CA004F0C0F9002820D000263046D3
:1017B000FFF720FA761C0A2EF9DB694928460D60EE
:1017C0004D60FFF7E0FA207808210843FB2108402C
:1017D00020700B215FA004F0C3F92448401C057061
:1017E000FFF73EFE21785F48CA0707D102E00B21D0
:1017F0005DA0F0E78A0701D44A070BD55E4B42682B
:101800001A4005231B03D2184260027902231A43AF
:10181000027106E00279FD231A400271134A521C3C
:1018200015700279D30712D05208520002710F4886
:10183000401C0278521C0270C80709D003F020FF38
:101840002178C007C00F4908490001432170F8BD45
:101850004807FCD503F08AFFC007410F2078FB2220
:10186000104008432070F8BDE80300200504002064
:101870006D795F66696C6500EC04002074040020DB
:10188000000000202D2D2A454E442A2D2D3B00001E
:1018900068656C703B0000005055545F48454C50E3
:1018A0003B0000006D7966696C652E7265616400AD
:1018B000400500202A2A2A2A2A2A2A2A2A2A2A2ACB
:1018C0002A2A2A2A796F757220444154412F2F2FDA
:1018D0002F2F2F2F2F2F2F2F2F2F2F2F2F2F2F2F18
:1018E0002D0A00002A0A0000257300006D79666940
:1018F0006C652E7772697465000000002D2D2D2D0A
:101900002D2D2D2D2D2D6C6974746C65465320532F
:10191000544152542041667465722073656E642090
:10192000646174612D2D2D2D2D2D2D2D2D2D0A0051
:101930003C0400206461633B000000004441435FBD
:10194000454E3B00773235713B0000005732355130
:101950003B00000070726F6772616D5F6F6E3B00DD
:10196000F8030020300400202D2D4572726F723470
:1019700030342D2D00000000FF0FC0FF02484169E8
:10198000012211434161704700100240044A10B522
:10199000914202D103F0FCFF10BD0020C04310BDF6
:1019A0002C040020F0B52A4D87B068690121490454
:1019B00008436861686949000843686118216846FE
:1019C000FEF712FC0120C00300240090012703262B
:1019D000092003946946019702960494C006FFF714
:1019E00002F8A81500900920039469460197029611
:1019F0000494C006FEF7F7FFA969A8140143A96182
:101A0000A9690225014006912020039404940594BD
:101A10006A4661C209206946C006FEF7E4FF40201D
:101A2000039404946A46059461C209206946C0067D
:101A3000FEF7D9FF8020039404946A46059461C29E
:101A400009206946C006FEF7CEFF07B0F0BD0000D2
:101A50000010024010B5FFF7CDFCFFF78FFF03F039
:101A6000C1FDFEF773FCFFF79DFFFFF769F8FFF775
:101A70007BFCFFF785FC03F097FF042003F06AFF6F
:101A8000FFF798F9FFF74CFD10BD0000F0B50022FC
:101A90002248FD25027010E02149A300CE58214FB5
:101AA0003E40CE50CE5CBF122E4076087600CE541B
:101AB000CE583E40CE50641C04700478032CEBD307
:101AC00002700CE018499C000E5D184F2E407608FD
:101AD00076000E550E593E400E515B1C0370037884
:101AE000022BEFD3027014E011499A008C5CFB26A4
:101AF00034408C548C580F4E34408C508C5CB61251
:101B0000640864002C408C548C5834408C505B1C0E
:101B100003700378022BE7D3F0BD00003C040020E3
:101B200030040020FF0FC0FFE803002003F0FFFF98
:101B3000F0030020FF1F80FF10B50446FEF7D0FA27
:101B4000601A10BD10B54418601EFEF7C9FA601A7D
:101B5000401E10BDF3B581B004460125A26D18E00A
:101B6000411CE165216E4309491E2166616E9B009F
:101B7000C958C306DB0E2E469E40314209D1A16EE4
:101B8000626D096A1018FEF7ABFA02980160A16D48
:101B90002BE0E06D9042E3D1266E002E34D0606DD4
:101BA000A76E8018396AFEF79BFA6165F86A3146BC
:101BB000C00003F085F9A0650020E065A06EC16A51
:101BC000606EFEF711FB224601231649104602F013
:101BD0001FFF0600C2D0204600F04AF83046FEBD86
:101BE000401CE065206E401E2066E06D884209D0F2
:101BF00043099B00626EC606D258F60E2B46B340D0
:101C00001A42EDD10020FEBD07A00090616DE06D8D
:101C100023224318120105A10BA0FFF7F9F81B209E
:101C2000C043FEBD7F1C0008000000002E2E5C4358
:101C30006F72655C4C49425C6C6974746C65667368
:101C40005C6C66732E63000025733A25643A6572F6
:101C5000726F723A204E6F206D6F726520667265EA
:101C60006520737061636520257525730A00000087
:101C700000218165C165816E096A0166704710B5F2
:101C80000446406D081AA16E096A4018FEF728FA4A
:101C9000A06D884209D94A09606E9200CC0683582B
:101CA000E40E0121A1400B438350002010BDFFB57D
:101CB00087B00024139F129E20E03D1B082D00D307
:101CC00008251198109A04A9001901AB009223C3AA
:101CD0000A98031B07A807C800F09CF8002808D141
:101CE00031192A4604A8FEF79BFA002805D002DA2B
:101CF00001200BB0F0BD0220FBE76419BC42DCD32D
:101D00000020F6E7806EC2681047FFB506460868F7
:101D10000C4685B0411C2FD0801C2DD0B06E81693F
:101D2000A068FFF70FFF00900546E368B06E06CC91
:101D30008768083CB847002818D10898002817D0B1
:101D400000210798C9430160E06806CC0290019227
:101D500000912B46039500213046083C079AFFF777
:101D6000A6FF002802DB03D05320C04309B0F0BD1A
:101D70002146304600F0F1F80020F7E7FFB585B0C6
:101D80000F9D10980C460E9F119E00903EE020681B
:101D9000B84231D16068A8422ED80599896E896A07
:101DA0004218AA4228D92A1A881AB04200D93046C5
:101DB0000190E06800998018019AFEF7FCF90099FB
:101DC0000198081800900198A1682D18361A6068CB
:101DD000281A814200D90846A0600599896E896A4F
:101DE000884213D12146089B079A0598FFF78DFF7B
:101DF00000280BD009B0F0BD27600598806E81697E
:101E00002846FFF799FE60600020A060002EBED13A
:101E10000020EFE7FFB589B0064614980290B06E37
:101E20001546026A1299159C8A4204D91399C06911
:101E3000091981423FD95320C0430DB0F0BD0A9823
:101E40002746002819D001681298814215D10A98B6
:101E50000A9940688968139A431893420DD99042B1
:101E600007D8101A091AB94200D80F460A99C9684A
:101E700015E0801AB84200D80746296812988142B6
:101E80001ED1A9686868139A4318934218D99042E2
:101E900012D8101A091AB94200D80F46E9683A4612
:101EA00009180298FEF787F90298C0190290139852
:101EB000C019E41B13904BE0801AB84200D80746C3
:101EC0000C98844221D3B06E416900911398FEF7BB
:101ED00007F9002919D10098A04216D801463846C2
:101EE000FFF72AFE01900090B06E029B4768139A9C
:101EF0001299B8470028A0D1019902984018029081
:101F000013984018641A139022E012982860B06E5B
:101F100041691398FFF710FE6860B06E0C9A416932
:101F200013988018FFF70EFEB16EC96902F0C8FF62
:101F30006968401AB16E896A02F0C2FFA860009019
:101F4000EB68B06E06CD4768083DB8470028D2D18F
:101F5000002C00D073E700206FE710B5806E0C46B0
:101F6000816AFF22E068FEF738F90020C043206054
:101F700010BD000070B50023094D0EE0CE5C0409D1
:101F800070400007800E28583609444020096640FA
:101F90003407A40E2C5960405B1C9342EED370BDF5
:101FA000645E000810B541420840FEF741FF1F2162
:101FB000081A10BDFFB58BB0169E06A90B98FFF747
:101FC000C9FD002839D106990B98FFF79BFE002820
:101FD00030D1149800280FD0401E059005A90B9809
:101FE00000F0FEF805990B9A491C0591926ED26992
:101FF0008A422DD0002423E015990698086000201D
:1020000067E00E9A031B09AF684694C0012503954B
:1020100000210D9A0B98FFF7FDFE00280DD10699BF
:102020006846039592C00BA807C80123FFF7A6FED8
:10203000002804D0014654314ED00FB0F0BD641CCE
:1020400005988442DDD3159806990160059840E013
:10205000401CFFF7A7FF441C0E980025079032E0B4
:1020600003F0F6F90790A9000698042307AA09913E
:102070006F460FC70BAF07CF0123FFF77FFE074661
:10208000079802F0B8FA0790002F03D03846543072
:1020900022D015E0611E8D4214D0042207AB0999AD
:1020A0006F4603920BC7134600210D9A0B98FFF75A
:1020B000B1FE0746079802F09EFA0790002F01D064
:1020C0003846BAE76D1CA542CAD315980699016037
:1020D000A00030600020B0E706A00090064A07A1EB
:1020E0000DA0069BFEF794FE00210C98C9430160E9
:1020F00063E7000000000000660900002E2E5C432C
:102100006F72655C4C49425C6C6974746C65667393
:102110005C6C66732E63000025733A25643A64652F
:102120006275673A2042616420626C6F636B206164
:1021300074203078257825730A000000FFB585B03B
:102140000E9800280CD0401E049004A9059800F0B9
:1021500047F804460FA9059800F042F805462AE022
:1021600000211098C943016000212AE02046FFF7B2
:1021700019FF0646601BFEF75BFE2021081A314658
:10218000401E02F09DFE064681000898042308AA1E
:102190006F460FC705AF07CFFFF73CFE074608980D
:1021A00002F029FA0890002F02D0384609B0F0BD9D
:1021B0000120B040241AAC42D8D810980899016088
:1021C0000F99119801600020F0E710B504460068EF
:1021D00002F011FA2060606802F00DFA606010BD34
:1021E000F8B5806E0D68C4690E46083C2146284645
:1021F000FDF776FF002811D0401E02F0FFFE8000A0
:10220000281A21460838FDF76BFF074602F0F6FE54
:102210007C438000291B081A30603846F8BDFFB5A2
:102220008BB01498159E1D4600282AD0401E0A9097
:102230000AA90B98FFF7D4FF044629461698B04721
:1022400000281ED1002C1ED0E007C00F0221081A62
:1022500083000590069308A800210BAF0095039317
:102260000191029007CFFFF7D5FD0546089802F0CF
:10227000C2F90890099802F0BEF90990002D04D027
:1022800028460FB0F0BD0020FBE7059F00257F1E0C
:1022900007E0A90008A841581698B0470028F0D1D7
:1022A0006D1CBD42F5DB069808A940188038C56F43
:1022B0000598241AC1E700207047F3B585B00C4695
:1022C0000025681CC10F091849084900401A800000
:1022D00001190598FFF73EFC00281DD16D1C022D49
:1022E000EFDB0025A5602168204600910426083018
:1022F000059A029033460396019529461046FFF74A
:1023000089FD0746A06802F076F9A060002F05D08D
:102310003946543102D0384607B0F0BD0599896E70
:10232000496A002905DD0122491C1143FFF70AFC17
:10233000A0600020C043E6602061A582A061E0614A
:10234000A575E5750020E7E7FFB59FB01F460C4671
:102350000646856A20E02846083084421BD0214684
:1023600002F01CFE002816D1A879012813D1286B91
:10237000C00210D5B16EE86A896A88420BD9294635
:10238000304601F001FC00287ED12946304601F09C
:10239000FFFA002878D12D68002DDCD120222146BB
:1023A00017A8FDF708FF00200546029020461830C8
:1023B0000C9029E02199E8000A58AB4B110D490512
:1023C000994203D1A08A401CA0821CE0A74B9942ED
:1023D00005D1A08A401EA0820120029013E0510086
:1023E000490F06290FD1219941184A681268A26144
:1023F00049684968E16121990858C002C00FE07539
:102400000C9802F0DBFD6D1CBD42D3DB0298002866
:1024100017D0A08A002814D16A462146304602F01F
:1024200093FA050002D0A81C7ED10AE06846C07D60
:10243000002806D022466946304600F0A9FC050077
:1024400072D1A07D002802D1A08AFF286DD3182266
:1024500087490DA8FDF7AFFE20680D90E0680E904B
:1024600020690F90E0681190B16E886C002800D14F
:10247000C869083812900C9802F0B5FD0DA813A990
:102480007C4A1396149000E079E0002003900690B7
:10249000029008910590049021980090019707926E
:1024A000214630462369E26801F018F905460C9888
:1024B00002F084FD002D33D1002009900A903146AE
:1024C0000B90303109A802F097FC31463C3109A845
:1024D00002F092FC3146483109A802F08DFC0998BF
:1024E000800A8002099009A802F06BFC002811D133
:1024F00009AA2146304600F08BFF050039D109A812
:1025000002F06BFC09AB5C4A0DA9304600F0CAF83A
:10251000050005D10DA9304600F018F9050009D0D5
:1025200028461C3015D001E023E012E02846543044
:102530000FD01EE00E98E0600F98206130463030DA
:1025400007C833463C3307C349480C3807C807C39C
:1025500017E00020C0433061A18A00200291019061
:102560003B46009421463046219A00F0E7F90500E9
:1025700007D0202217A92046FDF71DFE284623B0CC
:10258000F0BDB56A4BE0284608300190A04245D026
:1025900017A902F003FD002840D12022214601980E
:1025A000FDF709FE002137E02198CA008058334A20
:1025B00084464000400D90420AD162461203AB8827
:1025C000920D9A4204D10020C043A860E86022E046
:1025D0002A4A90420DD162461203930DAA88934273
:1025E00007D2521EAA80A879022814D1A86A401ED8
:1025F00010E0224AFE3A90420DD160460003AA88BC
:10260000800D904207D8521CAA80A879022802D1D6
:10261000A86A401CA862491CB942C5DB2D68002D80
:10262000B1D1B46A1CE02046083017A9074602F071
:10263000B5FC00280AD012E0081AA0802A463946C4
:10264000304600F0C9FB002802D098E72546203527
:10265000A188A08B814202D3E27F002AECD12468BA
:10266000002CE0D100208AE7000020800000E09FDD
:102670002C5D0008812600080CFCFF7FFF04000091
:1026800010B511C813460A46214600F00BF810BDDC
:1026900010B50446084602F0C5FE216840182060C7
:1026A000002010BDFFB589B01E4615460F461046E6
:1026B00002F0B8FE7968044608197969884203D99E
:1026C0001B20C0430DB0F0BD680040080790B968FA
:1026D000484001F087FF0490042304AA3946099872
:1026E00000F00EF90028EDD1002D08DB231F324643
:1026F0003946099800F004F90028E3D121E00025CB
:10270000201F06901BE070683168012205AB039220
:1027100040190293099A00910190631B0021104611
:102720001B1FFFF777FB0028CCD1012305AA3946F0
:10273000099800F0E5F80028C4D106986D1C854280
:10274000E1D30798B8600020BCE70000F3B58FB074
:102750000F980D46806E816968680830FFF7F2F9BE
:10276000044600260F98089610300C9066E0001D75
:10277000211A06906048814200D2084606994718FF
:10278000A74205D220460838874200D2384607467D
:102790000020C0430990286809AA042102920090F1
:1027A0000F9A0B460391019700211046FFF732FB69
:1027B000002802D0014654317ED1099801F012FF61
:1027C000C043C00F0D900521000509074018069968
:1027D000791A0843494908430990A968484001F01B
:1027E00001FF0A9004220AA9E868FFF7C3FBE8602A
:1027F00002F02EFE0B9003CD0AAB6F460BC70822EA
:1028000003920F9A00231046083D0C99FFF7B6FA81
:10281000002859D1002E03D16E68E868361D089053
:1028200009986A688105890D091D891869600D99E3
:10283000C90741400020C043A960E8606868A04221
:1028400095D30F9A0023581E0C99174610603846EE
:10285000FFF75BFA002802D1B86E016988470028AB
:1028600032D12869069642E000210746C9430698FE
:102870000991001D0A901EE0B74203D109990898FA
:1028800081421FD12A680BA80197029006980092F6
:102890000121C31B0F9A0391002110461B1DFFF756
:1028A000B9FA002810D101220BA90998FFF762FBA1
:1028B00009907F1C0A9800E006E08742DCD3099863
:1028C000002803D05320C04311B0F0BD0698211A50
:1028D0000948814200D2084606994018A04204D215
:1028E00021460839884200D30846011D0691A042BE
:1028F000BAD30020E8E70000FE03000000FC0F0050
:102900007FB516460C4606CC00911D4603930192F6
:1029100001460296002302461031083CFFF72EFACA
:10292000002809D12A463146E068FFF723FBE06022
:10293000606840196060002004B070BDFFB599B0B8
:10294000054608680990239E48680A900020249F45
:102950000C900B90704200B20C46189050E0189901
:1029600000200DAACA4B0D900691079308921C9A5D
:10297000C8490291039005971B9804960192002381
:102980000090DB4300222846229900F0A7FE002891
:1029900032D10E98FF2812DAA86E816C8269002964
:1029A00000D1C16948081146FFF7CCF80146A86E6E
:1029B000C069243802F084FA0D99884224D20E9816
:1029C0000297C10F0818C003000C3018039080B2A2
:1029D000229900910190214628461C9B1B9A00F0E9
:1029E00047FE00280AD001461C3105D1A96E0D9A78
:1029F000C9692439914207D21DB0F0BD039887B24E
:102A0000B81B0E900128AADCA068401CA060A96E2B
:102A1000496A002937DD0122491C1143FDF760FB9B
:102A2000002930D19C498868C9680491039003A9A2
:102A3000204602F0B3FA002802D001200B90C1E03A
:102A4000284601F0D7FF0028D6DBA96E096A49089D
:102A5000814218D991A00090CD22D20090A197A0D8
:102A6000A368FEF7D5F922986946C1C121462846D8
:102A70001C9B1B9A00F0FCFD002803D001461C3172
:102A8000BAD100E037468449182244310DA8FDF739
:102A900092FB60680D90A96E886C002800D1C8690F
:102AA0000838129028466168FFF72CF900287DD17C
:102AB000A06802F0CDFC2246A060042308320DA9D4
:102AC0002846FFF71DFF0090A06801F094FDA0606C
:102AD0000098002803D0543074D000988CE70DA8DB
:102AE000179016A9814A1695189808910792069092
:102AF0001C9A684900200291039005971B98049640
:102B0000019200230090DB4300222846229900F026
:102B1000E5FD002853D120461830019002F059FA03
:102B2000002812D1019802F05EFAE07D704900059C
:102B300042180DA92846019BFFF7B4FD00900198AB
:102B400002F03CFA00980028C5D1002013901490A0
:102B500015900C98002809D129463C3113A802F0A1
:102B60004BF92946303113A802F046F9294648317D
:102B700013A802F041F9139813AA800A8002139057
:102B80002146284600F044FC0028A7D113A802F0F3
:102B900018F900280DD113A802F01FF913AB554AFC
:102BA0000DA92846FFF77EFD002801E007E009E0B7
:102BB00005D10DA92846FFF7C9FD00280AD0014616
:102BC00054318BD101200C90801E28610B98002875
:102BD0002FD037E003CC083C21606060B81BA08296
:102BE0000E98E0602C4A0F983832206107CA2B46B5
:102BF000483307C30C98002815D005CC0A990091DA
:102C000026A301AE0DC63C4A25A13CA0083C099B69
:102C1000FEF7FEF8224609A9284601F0A3FF002886
:102C2000B3D10020E8E62846303007C83C3507C558
:102C3000F7E71AA00090304A19A1163A3DA0636840
:102C4000FEF7E6F81449086949690291019001A963
:102C5000204602F0A3F900280ED0211D2846FEF7D9
:102C600079FF002805D001461C31DBD10B990029E2
:102C7000D8D000200B9006E708A000901E4A08A1BB
:102C8000113A35A06368FEF7C3F81B20C043B3E6D2
:102C90009126000800FC0F40C45C00080000000002
:102CA0002E2E5C436F72655C4C49425C6C69747497
:102CB0006C6566735C6C66732E63000025733A2541
:102CC000643A64656275673A20457870616E64693C
:102CD0006E67207375706572626C6F636B206174D0
:102CE0002072657620257525730A0000812600086C
:102CF00008FC0F600CFCFF7F1407000025733A25C9
:102D0000643A64656275673A2052656C6F636174FA
:102D1000696E67207B307825782C20307825787D87
:102D2000202D3E207B307825782C20307825787D2A
:102D300025730A0025733A25643A64656275673A1B
:102D40002042616420626C6F636B20617420307874
:102D5000257825730A00000025733A25643A7761C7
:102D6000726E3A205375706572626C6F636B2030BF
:102D700078257820686173206265636F6D652075C2
:102D80006E7772697461626C6525730A00000000D9
:102D9000FEB514460F46024605464832214600F06D
:102DA00037FB002815D120461830064602F01BF9E3
:102DB000E07D084900054018009001236A46394625
:102DC00001962846FFF7C0FA0446304602F0F6F8AE
:102DD0002046FEBD08FC0F601FB50024631E019451
:102DE00002940394009300F003F804B010BD0000B7
:102DF000FFB597B0064619980C460168B06E0025DD
:102E0000006AED43814203D219994968814203D394
:102E10005320C0431BB0F0BD0020099008900590DE
:102E20000490049808A980004318199F0690385808
:102E3000042200216F4603920BC713463246104608
:102E4000FEF7E8FF0746069808A9085801F0D3FBEB
:102E50000146069808AA1150002F04D03846543075
:102E600011D03846D6E70498401CC20F12185208F9
:102E70005200801A820008A810180068081A00285A
:102E800001DD049805900498401C04900228C8DBDA
:102E90000598C10F091849084900401A810019987E
:102EA0000818006820600598401CC20F12185208CC
:102EB0005200801A8000199A129080180068606091
:102EC00008A808180068A0600020E0600F90204665
:102ED000083011900027781E0690C4480E9703C84A
:102EE00010970D9505910490A06802F0B1FAA060CA
:102EF0000422501F1199FFF73DF80C90A06801F0D3
:102F00007AFBA060069802F08DFA2168C7190420A8
:102F100007AA0197029200910390B06E3246C369EE
:102F200000211046FEF776FF002803D001465431F9
:102F30007AD06FE7042207A90C98FFF71BF80C90D2
:102F4000079801F04FFB06994840C1170790491CAC
:102F50000FD002F067FAC119B06EC06984466145AE
:102F600062D8079806904000400F052826D004201C
:102F70007AE0069802F067FA05210902884253D1E7
:102F8000B06E8169E068FDF7ABF80029F7D1012048
:102F9000A075E068002879D0304621463C3001F029
:102FA000FEFE002809D0F06B0003810D2803800D80
:102FB00081426CD10120C0070543E4E0042320686E
:102FC000039313AA391D6B4607C33246634600219B
:102FD0001046FEF71FFF0028A8D1139801F00BFB45
:102FE0000C99139081421FD107980699000DC007D4
:102FF0004840069004220CA9F06AFEF7BBFFF0627D
:103000000D9D079802F00EFAC019E0600698206145
:103010000E98A0820498A0610598E0611098E07570
:103020000020C0430C906DE791E03918012320681F
:10303000039315AA6B4607C3B06E3246C3690021DD
:103040001046FEF7E7FE002806D00146543100D0B6
:10305000E0E60020A0750FE0012215A90C98FEF70C
:1030600089FF0C901398401C1390079802F0DAF92E
:10307000014613988142D8D8079841004A0F07D0DB
:10308000490F04290CD006292AD041E094E073E0CE
:1030900000030E99800D88423AD3401C0E9037E011
:1030A00001154AB20E99524B511889B20E910D99E1
:1030B0001940504BC918814203D10D98D9020843D9
:1030C0000CE00D99491C23D00003810D0D980003DD
:1030D000800D81421CD80D98910208180D9017E0C0
:1030E000C002C00F109008232068039304AA391D62
:1030F0006B4607C3B06E3246C36900211046FEF727
:1031000089FE002801D0543021D004A801F056FFD8
:103110001A9A0799209B1A980A401840824282D135
:1031200020680090381D0190229B6A46239898479A
:10313000002800DAFAE60CD007992F4B0D9A8C463E
:1031400019401A40914206D10020C04312E00020ED
:103150001EE707980EE00228E1D160460003810DCA
:103160000D980003800D814200D9CBE60121604615
:10317000C90708430D90C5E66A1C04D0814202D2FB
:10318000012080022D1A2198002806D02803800DE6
:10319000A18A01F095FE21990880E817401C01D012
:1031A000284637E62803A18A800D884202D20120F2
:1031B000C0432FE600202DE603CC083C2160606070
:1031C000129808A940180068A0600F98401C0F9042
:1031D000022800DA7EE6606808A101910090084AA2
:1031E00008A10FA02368FDF713FE11E6C45C0008D8
:1031F00000FC0F000000F04F00FCFF7F000000000B
:103200002E0400002E2E5C436F72655C4C49425CBC
:103210006C6974746C6566735C6C66732E63000015
:1032200025733A25643A6572726F723A20436F7261
:1032300072757074656420646972207061697220AF
:103240006174207B307825782C20307825787D2596
:10325000730A0000FFB58BB00D9805680E98002822
:1032600001D04B4901800B984A4C016A0C9881614E
:103270000B98416A0C98C1610C981830069046A1D1
:103280002846FCF7E3FF461943A13046FCF7EEFF62
:103290000546012802D0022D03D009E001223FA1FA
:1032A00001E002223EA13046FCF7BAFF002864D0BC
:1032B00077190120039038A13846FCF7C7FFC019E1
:1032C00035A10090FCF7D2FF070015D0022F06D1E0
:1032D000022233A10098FCF7A3FF002805D0039831
:1032E000401C03900098C719E5E70398401E03901F
:1032F000F8D1009DAD1CC2E73078002809D00D98A8
:1033000006606000400D022805D01320C0430FB0B6
:10331000F0BD2046FBE7A00A012180058905C842CF
:1033200010D02003800D1F4980024318069800909A
:103330001D4A0C990B9800F060F80028E7DB06980E
:1033400001F03CFE07AF2F213046FCF758FF002864
:1033500015D000200B99079108960995134901AAE9
:10336000009583C20F23DB06069A0C990B98FFF792
:103370003FFD0400CBD4002C03D075197FE70E98D5
:10338000E8E70C98C07D0028DDD1801EBFE7000073
:10339000FF03000000FC2F002F0000002E000000A3
:1033A0002E2E00000800002000FC0F70B133000832
:1033B000F0B589050446890D076885B016460D46A7
:1033C000806801F07DFD034606CE606801920091A1
:1033D00002903A46039300211046FEF768FC00284D
:1033E00005D1A068A84206D0A84202D2012005B0AB
:1033F000F0BD0220FBE70020F9E7FEB59E05B60D03
:1034000000246F46089D70C700F09AF8FEBD0000CA
:103410001FB5144601AA00920F4A0F4B0C3AFFF752
:10342000ECFF002802DA811C13D111E0801C0FD0C0
:10343000019801F0E0F80190029801F0DCF80290A8
:10344000039801F0D8F8039001A9204601F0D4FCBC
:10345000002004B010BD00000C00F07FFFB585B067
:10346000074612980390B86E119D139CC0692919E4
:103470001E4681425FD95320C04309B0F0BD079971
:103480002046002918D00968891C15D10799079A88
:10349000496892688B18AB420ED9A94208D8691ABC
:1034A000521A824200D8104600900798C06814E073
:1034B000491B814200D808463168891C1AD1B2687C
:1034C00071688B18AB4215D9A94213D8691A521AE0
:1034D000824200D810460090F068009A4118039884
:1034E000FCF769FE039900980818039000982D18BE
:1034F000241A20E00120C0433060B86E416928469C
:10350000FEF71AFB7060B86E41690E982818FEF736
:1035100019FBB96E896A01F0D3FCB060F26871687A
:103520000192009102903846109B0F9A069900F084
:1035300007F80028A1DB002CA1D100209DE70000A6
:10354000FFB587B0CD680869049000200590079802
:103550000F463C3001F023FC099909038E0D002829
:1035600076D0002E74D00798C06B0003810D0A98A6
:103570000003800D81426BD83A48059068E00498BA
:1035800001F050FF2D1A386804AA04210292079A0C
:103590000B4603910090049C019500211046FEF714
:1035A00039FC002852D1049801F01CF8604040001A
:1035B00040080490002E1CD0204601F044FF014634
:1035C00001208002814214D12003810D059A0A98BE
:1035D000801A0203920D91420BD8234908402349D7
:1035E0004018A0423AD0201540B281020598081830
:1035F00005900A9A05990998511A099A2040114094
:10360000884225D1204601F016FF002826D1A005CA
:10361000800D129901F054FC3A68064610991198F1
:10362000691800920290091D079A0191334603968A
:1036300000211046FEF7EEFB002807D11298811BEF
:1036400011988019FCF7D0FD059820180BB0F0BD3B
:10365000049801F0E7FE001DA84290D90120C04364
:10366000F4E7000000FCFFFF00FC0F00000010402A
:10367000FFB58BB00546806E169F159E006A0C46FE
:10368000286603A92846FEF718FE002824D1E07D0D
:1036900008A9C870A0690990E0690A901498694661
:1036A000C1C128460E9B0D9AFFF748F9002813D197
:1036B0000398A0610498E0610120E075294620315B
:1036C000204601F06BFC002805D1002E03D10398A1
:1036D00028620498686200200FB0F0BDFFB58DB07D
:1036E00016460F46109801F09DFEF9688019884231
:1036F00022D2109801F096FE3968042286191346EA
:10370000039209A80D9A009102900196002110469B
:10371000FEF780FB002878D1099800F063FF10992C
:103720000AAD48400121C9070843099039680A9148
:10373000311D0B9110900CE01798002864DD16984D
:103740000068099016984568083016901798401E32
:10375000179043481899199A084009990140104058
:103760008142BFD118980003800D1FD0002009A905
:10377000089117993B4A0690079205900290039092
:10378000049001911698009032463946109B0D988E
:10379000FFF7A4FF002838DBA4D109981A99000389
:1037A000800D88429ED31B9988429BD20998410084
:1037B0004A0D97D0490DCA1FFA3A07D0010D812250
:1037C00049059205914241D1002438E0810500036A
:1037D000890D800D441A1CA80DC820184C1C059496
:1037E00000B206AC0DC40020012252071E4B02930A
:1037F0000392019004910090431E024629460D98C1
:10380000FFF76CFF29E000E0002011B0F0BD0003DD
:103810001C99800D4018810220460C2250432A5CDE
:10382000032312051B07D2181143401982681D9B00
:10383000114342681E9898470028E6D1641C0998F5
:103840008105890DA14200D84CE7E0E71C991D9B3A
:10385000890209182A461E9898470028F4D0D4E710
:103860000000F07F6D38000800FC0F6070B5054661
:10387000184E0C46C80001D5304600E016482968AD
:1038800002462240084082420DD0084601F0D3FD96
:10389000002808D1114A296820461140104A3040BA
:1038A0008918884201D1012070BD204601F0CBFD6E
:1038B0000121890288420BD12003810D286802036F
:1038C000920D914204D8211549B289020818286046
:1038D000002070BD00FCFF7F00FC0F7000FC0F009B
:1038E0000000F04F7CB505460CA00C4600910190FD
:1038F0002B460B4A0BA112A0FDF78AFA2146284657
:1039000000F055F9044605A0054A00902346521DD3
:1039100004A115A0FDF77CFA20467CBD0000000044
:10392000061400002E2E5C436F72655C4C49425CAD
:103930006C6974746C6566735C6C66732E630000EE
:1039400025733A25643A74726163653A206C667334
:103950005F66696C655F636C6F73652825702C20EA
:1039600025702925730A000025733A25643A74727C
:103970006163653A206C66735F66696C655F636C52
:103980006F7365202D3E20256425730A000000001A
:10399000F0B50746086B0C46354E97B0410306D587
:1039A000C10200D426640121890488432063216B6D
:1039B00088035BD5606BC902054646D454222D4965
:1039C00001A8FCF7F8FBA06A0B90E06A0C90606B12
:1039D0000E900FCF119012A80EC0103F13E00123DC
:1039E0006A4601A9384600F003FA00282BDB0123C0
:1039F0006A462146384600F0FFFA002823DB386883
:103A0000401C01D011963E60E16A606B8842E6D3AB
:103A1000264640363A46012331461046FEF775F9F0
:103A2000002817D0014654310DD113A00090134A3D
:103A300013A11AA0A36BFDF7EBF92146384600F05D
:103A400013FC0028E6D017B0F0BDE16A884200D828
:103A500008466063A06BA062606BE0620121206B8E
:103A60004904884349100843656320630020EAE75E
:103A7000FFFFFFFF505D000800000000E60A0000A5
:103A80002E2E5C436F72655C4C49425C6C697474A9
:103A90006C6566735C6C66732E63000025733A2553
:103AA000643A64656275673A2042616420626C6FB3
:103AB000636B206174203078257825730A0000003C
:103AC000F0B585B0074611A01C4615460E46029378
:103AD0000192009103903B460D4A0EA114A0FDF700
:103AE00097F923461E4C384631462A46009400F08A
:103AF0006BF8044605A0064A00902346921D05A1D6
:103B000018A0FDF785F9204605B0F0BD00000000C3
:103B1000E21300002E2E5C436F72655C4C49425CE0
:103B20006C6974746C6566735C6C66732E630000FC
:103B300025733A25643A74726163653A206C667342
:103B40005F66696C655F6F70656E2825702C202537
:103B5000702C20222573222C2025782925730A0019
:103B6000445D000825733A25643A74726163653ACE
:103B7000206C66735F66696C655F6F70656E202D83
:103B80003E20256425730A0010B50C46496BE1639D
:103B9000816E096A0166214600F066FB002805D1A6
:103BA0000121206B090588432063002010BD70B5FA
:103BB0000D46064600F0C8F904462946304601F095
:103BC00083F9204670BD0000FFB589B00646129FFC
:103BD0001D460C46980704D5304600F04DFE0028DF
:103BE00075D100206063E06327652563231DE064D1
:103BF000191D0BAA30460191FFF72CFB002805DAAE
:103C0000811C7DD1A188724A914279D00121A17194
:103C1000B16A2160B462811C04D0A90531D5102598
:103C2000ED43C5E0E80502D40125ED43C0E00B9863
:103C3000FCF7EFFA05462327F06EFF43A8421ED398
:103C4000182102A8FCF7D0FAA08862498002084334
:103C50000290A088012180022843090508430490AE
:103C60000B980590A0885C4D8002284306900323A2
:103C700002AA30460199FEF767FB002825D03D4691
:103C800096E04000400D012802D01425ED438FE05E
:103C9000680509D5A088012185024F48090405431C
:103CA000206B0843206310E0274628370097A08840
:103CB0004A49800243184A4A30460199FFF79DFB62
:103CC000050075D43846FEF780FA002736E079E023
:103CD000218EC9071DD0416838460C225043021D71
:103CE0008A58009202460832085C8B58032100056E
:103CF00009074018A1883B4A89020843034300E0B2
:103D000055E030460199FFF778FB002801DA811C65
:103D10004DD1216B880710D5206D0C2342683846A1
:103D2000584308301058726F904202D91B25ED435A
:103D30003EE001200004014321637F1C206D816867
:103D4000B942C5D8006800283ED02146E064403121
:103D50003046FEF702F9280D23494005884235D147
:103D6000A9050120890DC043E162A0620123226BF5
:103D70001B051A432263206400206064B06E002992
:103D8000806AA06422D01249491E01F099F8A188E6
:103D900001228902520789180843E16C0346009109
:103DA0000F4A30460199FFF728FB00280EDA054636
:103DB0000121206BC9040843206321463046FFF7E8
:103DC000F6FE28460DB0F0BD0848BEE70020F9E732
:103DD000FF03000000001040000010200800002039
:103DE00000FC0F7000FCFF7F00002040780B0020DB
:103DF000FFB5086B87B01D460C461746800304D5F7
:103E00000798FFF7C5FD002804D1616BE06A814285
:103E100002D300200BB0F0BD401AA84200D80546DE
:103E2000204640300A95069056E0206B410305D5A8
:103E30000799E26B896EC9698A421BD1C0020FD40F
:103E400023463C33E06A1A1F6E46616B0FC6A36AB5
:103E50000021069A0798FEF771F90028DAD104E0EC
:103E60000120C043A063606BE0630121206B8904E3
:103E7000084320630798806EC369E06B1E1AAE4248
:103E800000D92E46216BC90212D5A188144A890295
:103E90001143039002911348059601900093214627
:103EA000049700220831069B0798FFF7D7FA09E02C
:103EB000A16B01900297009103960021069A079842
:103EC000FDF7A8FF0028A5D1606BBF1980196063BA
:103ED000E06B8019AD1BE063002DA6D10A9899E72D
:103EE0000000102000FCF7FFF8B54C6B15460E469D
:103EF0000746002B04D0012B04D0022B04D006E08F
:103F0000144604E0A41802E000F014F84419386FD5
:103F1000A04202D21520C043F8BD706BA04201D16F
:103F20002046F8BD31463846FFF732FD0028F8D16B
:103F30007463F5E7086B8203C86A03D5496B814255
:103F400000D9084670470000F0B50746086B87B0F7
:103F50000C4600034BD43846FFF71AFD0126F60441
:103F600000283AD1206BC00341D52046083000908C
:103F700001F02FF800283AD1206BC00203D51D4D67
:103F8000E16CE06A0EE01B4DE16AA06A6D1C0291D3
:103F9000019001F05DFA0190029801F059FA029047
:103FA00001A90820A3882A059B021A430243039211
:103FB0000491A188206D81228902520580681143F5
:103FC00008430590206D02234068069003AA3846F6
:103FD0000099FEF7B9F9002804D0216B3143216321
:103FE00007B0F0BD0121206B090488432063002045
:103FF000F6E7000001020000FFB589B00546069211
:10400000086B0C9F0C46400304D52846FFF7C0FC04
:1040100000280FD1216B080504D5626BE06A82424B
:1040200000D26063666B0C982A6F3018904203D9F7
:104030001A20C0430DB0F0BD880312D4E06A864256
:104040000FD960630BE000206946087001236A46BF
:1040500021462846FFF7D0FF0028EBDB606BB0421B
:10406000F1D3206BC10220463C300590001F049024
:104070000830079000297FDA606BE66AC019B04209
:1040800000D90646A86E816C002900D1C169806AFA
:10409000C90800F015FF0146424800F011FF8642B2
:1040A0006AD921462846FFF76FFD002873D163E0E7
:1040B000206B810304D5AA6EE16BD269914234D1A1
:1040C000C10228D4800315D4606B002812D0059A51
:1040D000E36A049901AE401E009307C6A36A00215B
:1040E0002846079AFEF72AF8002854D1284607994F
:1040F000FDF733FFA86E6B46006A2866606B059A71
:10410000049907C32A46A36B10460799FDF752FF8F
:10411000002840D104E00120C043A063606BE0634D
:104120000121206B490408432063A86EE16BC0693C
:10413000461ABE4200D93E46E26BA16B0698019238
:10414000029000912A460123039610460799FDF735
:1041500015FE002803D00146543116D01BE0606BD9
:1041600080196063E06B8019E063069880190690FF
:10417000A86EBF1B006A2866002F99D10120216B11
:10418000C004814321630C9854E72146284600F07F
:104190006BF80028D0D00122216BD2041143216397
:1041A00048E70000FE030000F0B585B0074610A008
:1041B0001C4615460E4602930192009103903B4621
:1041C0000C4A0DA113A0FCF723FE23462A463146D4
:1041D0003846FFF70DFE044605A0064A0090234628
:1041E000921D05A117A0FCF713FE204605B0F0BDF7
:1041F00000000000271400002E2E5C436F72655CE7
:104200004C49425C6C6974746C6566735C6C667373
:104210002E63000025733A25643A74726163653A2F
:10422000206C66735F66696C655F726561642825E2
:10423000702C2025702C2025702C202575292573A5
:104240000A00000025733A25643A74726163653A86
:10425000206C66735F66696C655F72656164202DB2
:104260003E20256425730A00F0B505468BB008464C
:1042700040300890284610300C4609AF079006A938
:104280002846FDF767FC002863D128460699FDF70C
:1042900039FD002832D1002640E0216BC90213D538
:1042A000A1882D4B012289021943059202ABC2C39A
:1042B0002A49801B0191009021460022083128469E
:1042C000089BFFF7CBF80AE0A26B831B6846C4C0CB
:1042D000012103912A4610460899FDF79BFD00280D
:1042E00037D101200699034603906846C2C02A468A
:1042F00010460799FDF742FD00280ED001465431C3
:1043000027D117A00090174A17A11EA0069BFCF703
:104310007FFD0020C0432861B1E7761CE06BB0420E
:10432000BBD8A86EE969826AE06CFBF744FF286994
:10433000206468696064A869A06428460799FDF74D
:104340000CFE0698A0630121206B490408432063FA
:1043500000200BB0F0BD00000000102000FCF7FFB3
:1043600000000000970A00002E2E5C436F72655C0F
:104370004C49425C6C6974746C6566735C6C667302
:104380002E63000025733A25643A64656275673AC6
:104390002042616420626C6F636B2061742030780E
:1043A000257825730A0000007CB505460FA00C4651
:1043B000009101902B460E4A0EA115A0FCF728FD96
:1043C0000023284621461A46FFF78EFD002800DB11
:1043D0000020044605A0292200902346D20105A111
:1043E00015A0FCF715FD20467CBD00000000000074
:1043F0007C1400002E2E5C436F72655C4C49425C5D
:104400006C6974746C6566735C6C66732E63000013
:1044100025733A25643A74726163653A206C667359
:104420005F66696C655F726577696E642825702CBC
:104430002025702925730A0025733A25643A747281
:104440006163653A206C66735F66696C655F72656F
:1044500077696E64202D3E20256425730A000000D4
:10446000F0B585B0074610A01C4615460E460293CF
:104470000192009103903B460C4A0DA113A0FCF75A
:10448000C7FC23462A4631463846FFF7B5FD0446A9
:1044900005A0064A00902346921D05A117A0FCF72F
:1044A000B7FC204605B0F0BD000000003914000044
:1044B0002E2E5C436F72655C4C49425C6C6974746F
:1044C0006C6566735C6C66732E63000025733A2519
:1044D000643A74726163653A206C66735F66696CF6
:1044E000655F77726974652825702C2025702C20F3
:1044F00025702C2025752925730A000025733A257F
:10450000643A74726163653A206C66735F66696CC5
:10451000655F7772697465202D3E20256425730AD6
:104520000000000030B5054608460C463C3007C880
:1045300095B0109018A311A80EC020462C300FC8BB
:104540000C900DA80EC020461C300FC8089009A87A
:104550000EC020460C300FC8049005A80EC007CC32
:104560000C3C0392029101902B4600940B4A0CA143
:104570001248FCF74DFC2146284600F05BFD04463E
:1045800005A0064A00902346133205A10CA0FCF7B3
:104590003FFC204615B030BD00000000391300007C
:1045A0002E2E5C436F72655C4C49425C6C6974747E
:1045B0006C6566735C6C66732E630000B45E000805
:1045C00025733A25643A74726163653A206C6673A8
:1045D0005F666F726D6174202D3E20256425730A1D
:1045E0000000000001B50098694600BA000AC978C9
:1045F0000002084308BD01B5009869460002C97869
:10460000000A0906084308BD30B504468DB03C30A9
:1046100000F0BFFB002829D0E06B616C0003800D27
:1046200013A2029200910190124A13A119A0236CC7
:10463000FCF7EEFB2246403203A92046FEF7CCFBF6
:10464000002813D1E06B00220003850D1D49204690
:1046500000F0A4F900200C901B49A80208430B901D
:1046600001230BAA03A92046FDF76EFE0DB030BD55
:1046700000000000191000002E2E5C436F72655C74
:104680004C49425C6C6974746C6566735C6C6673EF
:104690002E63000025733A25643A64656275673AB3
:1046A00020466978696E67206D6F7665207B30786B
:1046B00025782C20307825787D2030782578257352
:1046C0000A000000FF0300000000F04FF0B50546AF
:1046D000008EA1B080055AD02022404904A8FBF7E3
:1046E0006AFD0EAE0AAC6CE0224610A92846FEF721
:1046F00073FB00284BD108A8C07900285CD118AA08
:104700002146284600F0C2F8002802DA811C3ED17A
:104710003FE0811C3DD00346314A18A92846009647
:10472000FEF76BFE002832DB0EA800F047FC0A996A
:104730000E98884203D10B990F9888423CD00B9970
:104740000E98884203D10A990F98884234D00B986A
:1047500024A36F460F9A0E990FC7234A23A12AA0BC
:104760000A9BFCF755FB0EA800F03DFC36480CAA4E
:10477000006B012341C204A92846083AFDF7E4FD75
:1047800007460EA800F01AFC002F1AD0384621B0B8
:10479000F0BD0B9813A10090134A0191163A13A192
:1047A0002AA00A9BFCF734FB10AA04A92846FEF7AE
:1047B000EFFA002805D0EAE7202210A904A8FBF7A9
:1047C000FAFC204600F005FC00288DD0288E4042DF
:1047D00041B2284600F000F9D9E70000445E000825
:1047E00000FCFF7F00000000641000002E2E5C43E0
:1047F0006F72655C4C49425C6C6974746C6566737D
:104800005C6C66732E63000025733A25643A646518
:104810006275673A20466978696E672068616C66E0
:104820002D6F727068616E207B307825782C203077
:104830007825787D202D3E207B307825782C2030FF
:104840007825787D25730A00C45C000825733A2515
:10485000643A64656275673A20466978696E6720D4
:104860006F727068616E207B307825782C203078EC
:1048700025787D25730A000010B50446FFF7C4FEB5
:10488000002802D12046FFF721FF10BDF7B5002711
:1048900088B0064601209761D06110461830144652
:1048A0003D46049021E0B06E006A4008A84203D85B
:1048B0005320C0430BB0F0BD0998059600680690E0
:1048C00009980E494068079005A80D4A0092029188
:1048D00003900C4B0197214630466D1C049AFEF75D
:1048E00087FA002801D0811CE4D1049800F071FB04
:1048F0000028D8D00120C043DCE7000009490008A7
:1049000008000020FF03F07F30B587B0044606CAD8
:104910000068082304AD0295039301920091816E13
:104920000246CB6901461031FDF774FA002809D11F
:1049300004A800F043FB211D04A800F02FFB002871
:1049400000D0012007B030BDF7B5074600209061C8
:1049500001200026154614461835D06115E0B86EC2
:10496000006A4008B04202D85320C043FEBD28462A
:10497000761C019900F012FB0028F7D02A46214648
:104980003846FEF729FA0028F0D1284600F021FB2E
:104990000028E4D00120C043FEBD000070B50B4CE0
:1049A000036B0B4D2340A94203D00A4E8C023443C3
:1049B00000E0002423430363A94203D0116841634C
:1049C000516801E000214163816370BDFF030080F5
:1049D000FF0300000000F04F026B511801638A05CD
:1049E00000D00122D207490049080A43026300208F
:1049F0007047000008B500210B4600916A46034944
:104A000000F006F8002800D1009808BD894D000884
:104A1000FFB58FB00E4620224E4903A8FBF7CBFB13
:104A200000200D9009A80BAF0E905DE0806E006A2B
:104A300041080D98814203D85320C04313B0F0BD04
:104A4000401C002403AD0D90A0004019816911980D
:104A5000B0470028F2D1641C022CF5DB03A90E9AA2
:104A60000F98FEF7B9F90028E8D1002537E03A4859
:104A7000A9020B180097394A03A90F98FEF7BDFC4D
:104A8000040003D5A01C28D02046D7E70BA8FDF7CB
:104A90009CFB200D3249400588420DD10C990091B4
:104AA00011980F9A01960290002110460B9BFDF77A
:104AB000B6FB0028C2D110E0129900290DD00121C7
:104AC0008907884209D10024A00039581198B047BD
:104AD0000028B3D1641C022CF6DB6D1CADB2684615
:104AE000008CA842C3D80E9800F073FA00280F98E3
:104AF0009CD0846A29E0A079012825D1206BC103CC
:104B00000FD5C0020DD4E16A0091119802900F9A5E
:104B100001962146A36A40311046FDF780FB00282C
:104B20008CD1206B81030FD5C0020DD4616B009135
:104B3000119802900F9A01962146A36B40311046BE
:104B4000FDF76DFB0028A0D12468002CD3D10020F4
:104B500074E70000245E00080800002000FC0F70CD
:104B600000004040F7B5014690B00546164620319A
:104B7000119800F013FA002803D130682862706899
:104B80006862AC6A19E021460831119800F006FA13
:104B9000002803D13068A0607068E060A079022826
:104BA0000AD121462C31119800F0F8F9002803D1E0
:104BB0003068E062706820632468002CE3D103AAA7
:104BC00028461199FFF762FE0446284630300B90C4
:104BD000002C02DAA01C7DD14EE0A01C4CD001219B
:104BE0002846FFF7F9FE002875D14B4F03A90B9813
:104BF00000F0D5F800281AD0286B48A10003870DD3
:104C00000498029100903F220197920144A14BA089
:104C1000039BFCF7FDF800223F492846FFF7BEFE44
:104C20002003800DB84202D901208002241A3046A8
:104C300000F0D9F900200C900D900E900F9036489E
:104C4000874203D04D49B802084300E000200C9091
:104C500002230CAA03A90F960E942846FDF774FBB5
:104C60000446304600F0AAF9002C50D1611E2846B7
:104C7000FFF7B2FE00284BD103AA28461199FFF78F
:104C800063FE002802D0811C42D143E0224F03A9D9
:104C90003C460B9800F083F8002812D0286B1FA127
:104CA0000003840D0498029100900194344A1CA1E1
:104CB00022A0039BFCF7ACF8002239462846FFF7F8
:104CC0006DFE304600F08FF900200C900D900E9094
:104CD0000F9001E01BE01BE0BC4203D02749A0027B
:104CE000084300E000200C9008A8C0782549000582
:104CF00040180E9002230CAA03A90F962846FDF730
:104D000023FB0446304600F059F9002C02D020461F
:104D100013B0F0BD0020FBE7FF030000000000001F
:104D20002E2E5C436F72655C4C49425C6C697474F6
:104D30006C6566735C6C66732E63000025733A25A0
:104D4000643A64656275673A20466978696E6720DF
:104D50006D6F7665207768696C652072656C6F632E
:104D60006174696E67207B307825782C2030782537
:104D7000787D20307825780A25730A000000F04FEE
:104D8000E70F000008FC0F600168491C016000206B
:104D9000704700684000400F00D00120704770B598
:104DA00004460D46006800F04EFB002805D0294659
:104DB000201D00F0F3F8002801D0002070BD012074
:104DC00070BD00218A008258002A01D0002070475F
:104DD000491C0329F6DB0120704710B50446006822
:104DE00000F036FB2060606800F032FB6060A06875
:104DF00000F02EFBA06010BD30B500229300C45817
:104E0000CD58521C6C40C450032AF7DB30BD000063
:104E100070B504468166086B254D002801D0E0601E
:104E200000E0E560486B002801D0E06100E0E5614A
:104E300021460846FDF791F8214610312046FDF73E
:104E40008CF8A06E816B002901D0616600E0656678
:104E5000C16BE166002901D1FF21E166016C216788
:104E6000002901D113492167406C6067002801D1F6
:104E7000114860670020C043206260620020A06289
:104E80000E49E062084660300DC825463C350DC528
:104E90006C310DC9214630310DC1084801467831C9
:104EA000826FC06F8968A2642165E064002070BDD4
:104EB000780B0020FFFFFF7FFE030000445D000829
:104EC000884200D308467047283005E08A4202D164
:104ED00011680160704710460268002AF6D17047D9
:104EE00030B5054608460C463C3007C895B01090D2
:104EF00018A311A80EC020462C300FC80C900DA886
:104F00000EC020461C300FC8089009A80EC02046CD
:104F10000C300FC8049005A80EC007CC0C3C0392BF
:104F2000029101902B4600940B4A0CA11248FBF70A
:104F30006FFF2146284600F0F5F8044605A0064A12
:104F400000902346133205A10CA0FBF761FF204619
:104F500015B030BD00000000571300002E2E5C433A
:104F60006F72655C4C49425C6C6974746C65667305
:104F70005C6C66732E630000E85F000825733A25B9
:104F8000643A74726163653A206C66735F6D6F7525
:104F90006E74202D3E20256425730A0003680A687C
:104FA000934209D040684968884205D08B4203D0BB
:104FB000904201D0012070470020704710B5044690
:104FC0000068FFF718FB20606068FFF714FB606063
:104FD00010BD0168491C04D04068401C01D000206D
:104FE00070470120704710B50446006800F030FAA1
:104FF0002060606800F02CFA606010BD0B4B420826
:105000001A40801A0849024680080A4008401018D1
:105010000109081806490840010A0818010C081877
:105020008006800E70470000333333335555555595
:105030000F0F0F0F70B596B00446FFF7E9FE00287A
:1050400069D1A06EC16A606EFBF7CEF80026666576
:10505000A06E016AC06AC000FFF732FFE665A06576
:10506000A06E6946006A20662046FDF726F9050015
:105070004DD11822294908A8FBF79DF8A06EC069F8
:105080000990A06E006A0A90E06E0B90206F0C9061
:10509000606F0D90089800F0DBF90890099800F017
:1050A000D7F909900A9800F0D3F90A900B9800F00C
:1050B000CFF90B900C9800F0CBF90C900D9800F004
:1050C000C7F916490D90182218310EA8FBF773F88E
:1050D00008A8139003230EAA69462046FDF734F969
:1050E000050014D16846867500231A466946204695
:1050F000FDF72AF905000AD1094914AA886AC96A84
:1051000003C269462046083AFDF766FE054620467A
:10511000FDF7D1F8284616B070BD0000C85D000844
:10512000C45C0008F0B597B00446FFF771FE002894
:105130007BD12022704904A8FBF73DF815260027F3
:10514000F6432046303010900AA80F9099E0A06EE8
:10515000006A4008B84202D85325ED439DE06649F5
:10516000674B3439886DC96D0E910D900C940CA865
:1051700062490022634D00930192029103902B46F5
:1051800004A920467F1C0F9AFDF732FE002812DB8F
:105190006FD000F050F900286BD104982062059878
:1051A000606211A80090584B2A4604A92046FEF7D9
:1051B00024F9002801DA05466FE01198FFF71BFA81
:1051C00011901298FFF717FA12901398FFF713FA3D
:1051D00013901498FFF70FFA14901598FFF70BFA35
:1051E00015901698FFF707FA16901198030C80B2E5
:1051F000022B01D1002806D044A101910090444A1D
:1052000044A14BA00EE01498002810D0E16E884213
:105210000CD9E06E3DA100903D4A019109323DA1BB
:105220004DA0149BFBF7F4FD36E03AE0E0661598DC
:1052300000280DD0216F884209D9206F33A1019138
:10524000334A0090143233A14FA0159BEAE7206740
:10525000169800280DD0616F884209D9606F2BA184
:105260002B4A019100901F322AA153A0169BD9E727
:10527000606704A92046109AFEF7CAF805000CD111
:105280000F98FFF7A6FE002800D160E720462030E7
:10529000FFF79FFE002806D035462046FDF70BF8A5
:1052A000284617B0F0BD1098FFF78BFD00280BD1F2
:1052B000606B16A26B46A16B07C3154A15A1383265
:1052C00049A0236BFBF7A4FD206B0122C117491CE9
:1052D00051400818206323463C33A26B616B07C31F
:1052E000A06E016AE06AFAF7FBFE20466165FCF7F2
:1052F000BFFC0020D5E70000F85D0008B1330008CE
:105300000800F00F00FCFF7F1800102000000000D4
:105310008D0E00002E2E5C436F72655C4C49425C22
:105320006C6974746C6566735C6C66732E630000E4
:1053300025733A25643A6572726F723A20496E7627
:10534000616C69642076657273696F6E207625647E
:105350002E256425730A000025733A25643A657288
:10536000726F723A20556E737570706F72746564E7
:10537000206E616D655F6D617820282575203E2067
:1053800025752925730A000025733A25643A65724C
:10539000726F723A20556E737570706F72746564B7
:1053A0002066696C655F6D617820282575203E2038
:1053B00025752925730A000025733A25643A65721C
:1053C000726F723A20556E737570706F7274656487
:1053D00020617474725F6D617820282575203E20ED
:1053E00025752925730A000025733A25643A6465FA
:1053F0006275673A20466F756E642070656E6469E9
:105400006E67206773746174652030782530387852
:10541000253038782530387825730A0010B5FCF728
:105420004AFF10BD10B5044600F005F800198005CC
:10543000800D001D10BD80058015401C01D000208E
:10544000704701207047000D07210902084070478E
:1054500010B5FFF7D0F810BD38B504460BA000908A
:1054600023460B4A0BA112A0FBF7D2FC2046FFF704
:10547000D5FF044605A0064A00902346121D05A14B
:1054800013A0FBF7C5FC204638BD0000000000005B
:10549000741300002E2E5C436F72655C4C49425CB5
:1054A0006C6974746C6566735C6C66732E63000063
:1054B00025733A25643A74726163653A206C6673A9
:1054C0005F756E6D6F756E742825702925730A00DF
:1054D00025733A25643A74726163653A206C667389
:1054E0005F756E6D6F756E74202D3E20256425737B
:1054F0000A000000FCF7AEFA00F0D4F9324D0221A8
:10550000287A2C46084328723049A8680C34084091
:10551000192149044018A8600126204666702C49CC
:105520003830FFF7DDFC002809D020462849383004
:10553000FEF7F8FF204626493830FFF7D1FC224914
:10554000FF23BC310846043322A27838FEF7B8FAAC
:10555000224A7D23114654390846DB007838FEF78D
:1055600023FE1E49543908467838FEF7BBF9164821
:105570004430FFF771FF19492A20087018A0FBF783
:1055800047FC114F1C37287AC10716D0400840004D
:10559000287220880004000E802813D0401C607000
:1055A00020880004000E00F0B7F9092000F064F92B
:1055B0007862082000F060F93862FCF703F800F028
:1055C0001FF8E0E76670EBE730040020FF0FC0FF34
:1055D000645C00086D795F66696C650040050020B9
:1055E00025730000044801680902090A01600120CE
:1055F0000249C0060860704718E400E000E100E0DE
:1056000070B51B481B4C027821780026002A09D06F
:10561000490606D02670184B416862785A54491CD6
:10562000416070BD1248401C00780007F9D548065B
:10563000F7D0124D26702888FF21C005C00D401CF0
:105640002860C005C00D013188420CD90921012014
:10565000C9068861FBF764FB2E606868401C6860BF
:105660000002FBF790FB6078FBF726FA70BD0000A4
:10567000040400204C0B002000000020F803002050
:1056800010B517480078012823D002280DD0032830
:105690000ED004280FD0052810D0062811D00728D6
:1056A00012D00A2815D0002010BD00210DA00DE059
:1056B00001210FA00AE0012110A007E0012112A0A2
:1056C00004E0012114A001E0012117A000F048FA34
:1056D00004E0FBF7D9FE18A0FBF79AFB012010BDF0
:1056E0000604002020202A68656C702A0000000053
:1056F00020202A73797374656D2A000020202A7790
:105700003235712A0000000020202A70726F677203
:10571000616D5F6F6E2A000020202A6D7966696CCA
:10572000652E726561642A0020202A6D7966696C95
:10573000652E7772697465002D2D2D2D2D2D2D2D43
:105740002D2D2D2D2D2D2D2D2D2D2D2D2D2D2D2D89
:105750002D2D2D2D2D2D2D2D2D2D2D2D2D2D2D2D79
:105760002D2D2D2D2D2D2D0A0000000070B5314D51
:105770002978012914D0304802291AD003291BD0D6
:1057800004291CD005291DD000262C4C06291CD02C
:10579000072920D0152947D0A81E8660002070BD9B
:1057A000002127A000F0DCF9FBF77EFAFBF79EFA58
:1057B0003EE0016825A039E0416827A036E0C168D5
:1057C00028A033E0016929A030E0266030466660F9
:1057D000FBF754FA2CE0062028702088C005C00D85
:1057E000FF2814D9002116A000F0BAF901200921E0
:1057F000C906886126606068401C60600002FBF793
:105800003DFA6068FA2813D30720287010E0FBF7F0
:105810003BFE0020FBF750F9164908812088C0059F
:10582000C00D401C206003E0002105A000F098F9A5
:10583000012070BD0604002028090020F803002084
:105840002020202D2D2D2D2D2D000000202049441D
:105850005F4D616E75000000202049445F646576ED
:105860006963650020205265673100002020526581
:105870006732000020380140012102E0401EC0B222
:1058800049000028FAD10648816281680422114348
:10589000816001684907FCD50148403000687047C5
:1058A0000024014010B5FCF7F1F800F001F810BD3C
:1058B000F0B587B018216846FAF796FC002401205D
:1058C000C0030125032603946A46049461C209209B
:1058D0006946C006FBF787F8082003946A460494DB
:1058E00061C20C4F69463846FBF77DF810200394DF
:1058F0006A46049461C269463846FBF774F8202072
:1059000003946A46049461C269463846FBF76BF813
:1059100007B0F0BD00040048F0B50D4920228A62AE
:1059200008238B628B618B628A614E01092580227C
:10593000ED0610248C62104201D0AE6100E0AE6230
:105940008C615208012AF5D88B628B618B62F0BDA5
:10595000000400480D490A6840239A430A6008225F
:105960000A60082802D0042802D002E0072200E0E2
:105970000322100248604A68042002434A600A6811
:1059800002430A600868184308607047003001400D
:1059900010B504460349C0B208810120FBF77AF82C
:1059A000204610BD203801400F48C16982151143BF
:1059B000C1610E48016880230902090AC206114329
:1059C000016001210A4AC80410600A4802681A43AB
:1059D000026004228262A522C26202680A43026057
:1059E000C2680A43C26070470010024010E400E041
:1059F00000E100E000200040F0B5254800260670D8
:105A00002449254D1FE0A2008B5C9B078B5816D5BF
:105A10000C27FB410127BF05DB191427FB411F059C
:105A20008B509C469B02BF0D9B0D9F4209D963463C
:105A30002B408B508B5C01273B438B5401E02B4068
:105A40008B50641C04700478032CDCD3067013495B
:105A500017E0A2008B5C9E0717D58E583705BF0D47
:105A600008D00C23DE4101239B05F31A1426F341D1
:105A70008B5004E0FD263340012633438B54641CD5
:105A800004700478022CE4D3F0BD8B582B40EFE770
:105A90003C0400203004002003F0FFFFE803002056
:105AA0000F4802220179114301710E4A41681140E9
:105AB000FF31913141600C4881880C4802785206D0
:105AC000520E1218517001784906490E491C017096
:105AD0004906490E142901D90021017070470000C0
