:020000040800F2
:1000000048090020C5000008E90A0008CD090008D9
:1000100000000000000000000000000000000000E0
:10002000000000000000000000000000190B0008A4
:100030000000000000000000EB0A0008530B00085D
:10004000D700000800000000D7000008D700000813
:10005000D7000008D7000008D7000008D700000824
:1000600000000000D700000851080008D700000871
:10007000D7000008D7000008D700000800000000E3
:10008000D70000080000000000000000610B00081D
:1000900000000000D7000008D7000008D7000008C3
:1000A00000000000D700000800000000790B0008E5
:1000B0000348854600F0BAFA00480047712000085E
:1000C000480900200448804704480047FEE7FEE74F
:1000D000FEE7FEE7FEE7FEE75F0B0008B100000861
:1000E00030B50B46014600202022012409E00D46D0
:1000F000D5409D4205D31D469540491B2546954058
:1001000040191546521E002DF1DC30BD70B500249B
:100110002546002801DA01244042002901DA0125A0
:100120004942FFF7DDFFAC4200D04042002C00D036
:10013000494270BDF0B51FB40646002082B00546A6
:100140004024019100901BE0019922460F46304661
:1001500000F020F8049A059B801A994110D31046AC
:100160001946224600F054F8361A8F41019722466C
:1001700001200021009F00F04BF838184D410090FD
:100180002046641E0028DFDC019B00982946324689
:1001900007B0F0BD10B5202A04DB0846203AD04055
:1001A000002110BD0B46D340D0402024A21A91401C
:1001B0000843194610BDD2B201E00270401C491E2E
:1001C000FBD270470022F6E710B513460A460446F4
:1001D0001946FFF7F0FF204610BD10B5002200E0E1
:1001E000521C835C8C5CA34201D1002BF8D1D8B2A5
:1001F000E1B2401A10BD70B5064600F085FE0468F5
:1002000005460A220021304600F012F82C6070BD2D
:1002100010B5202A04DB0146203A9140002010BD91
:10022000914020239C1A0346E3401943904010BD9F
:10023000F7B5009C0F4600262578641C002D05D0DC
:1002400000F01AFA0068405DC007F5D12B2D02D0EE
:100250002D2D18D0641E39462046029A00F010FA5F
:10026000002F04D03968A14201D10099396071058D
:10027000022400290BDA4042002803DD00F044FE8E
:100280000460A007FEBD012080020643E3E70028CA
:10029000F8DA00F039FE04600048FEBDFFFFFF7F82
:1002A000F0B507460846584087B0C00F0490480094
:1002B0000E46590040084908BC1A884105D2384604
:1002C00031461E4617460B4602465800400810436A
:1002D0004CD0300D039040055900400D490D05905C
:1002E000401A0290402872DA18030121000B090518
:1002F0000843019004980092002805D001995242C9
:100300000020884100920190029840210A1A019928
:100310000098FFF77DFF05460C466B4607CB00F0C3
:1003200097F9C0197141039A0E0D0023D717564053
:100330001A467A40164344D0049A002A2DD0029AD5
:10034000012A039A15DC1205C01A914101263605CF
:10035000001C7141D20F059ED207009301920296B4
:100360002A46234600F0ECF907B0F0BD3846314686
:10037000FAE71605224A0F46B218C01AB741012102
:100380000905001C4F4100187F411146181879419A
:10039000E20F10436D19644113E0E2076D08154345
:1003A0006408C2071443039A01261205C01A91413A
:1003B0003605001C7141CE07400830434908C0187B
:1003C00051412A46234600F0AEF9CDE7FFE70498F5
:1003D00001224000C117121A00238B4104983146B4
:1003E000C417381AA141EEE730B40124E407634092
:1003F00030BC55E730B40124E407614030BC4FE71E
:100400000000E0FFF0B51FB488B00B9909980024F4
:1004100048400999C00F490049080991C0070B9944
:100420000090490049080B9109990898A64608438D
:100430001CD00B990A98084318D009980124400051
:10044000420D4800410D099824050003000B20438C
:1004500009900B980003000B20430B9050181C4987
:100460004018002201901446104605E00020014685
:100470000DB0F0BD032801DA034600E003239C46DB
:10048000C11A0AAE0AE05F0008ADED5B4F00F75BF2
:100490007D430027AA187C41491C5B1E6145F2DDA3
:1004A000410004AB5A522104120C0A43240C401C94
:1004B0000828DFDB019802900099704601910090B6
:1004C000059B049A0799069800F03AF9D0E70000D6
:1004D0000DFCFFFFF0B50C465C4085B0E40FE4076F
:1004E00003944C00002664085900944649080246CB
:1004F0000296224321D062460A431ED06200570D65
:100500004A000E032303550D012402462C492405FD
:10051000781B1B0B360B4018234326436146009083
:100520001C46501AB44103D30098401C009002E0CE
:10053000921800985B41002803DA0020014605B0BC
:10054000F0BD0020012109050746864611E06446FA
:100550001D46141BB54106D36546521BB341744674
:1005600007430C43A646CD07400849082843921884
:100570005B4105460D43EAD11046184313D060464F
:10058000194650407140084306D06046101AB341E6
:1005900006D20122002306E000220123DB0702E04D
:1005A0000122D2435310009874460105381C614162
:1005B000029C039D0019694100F0B5F8BFE70000F7
:1005C000FD0300004A0009030123090B1B05194321
:1005D0000A4B10B5520D9A4202DA0020014610BDB6
:1005E000064B34339A4203DC9A1AFFF7D3FD10BD51
:1005F000034BD218FFF70CFE10BD0000FF030000F4
:10060000CDFBFFFF10B5002904DB0124E4074042C5
:100610008C412146002B04DB1C460123DB075242A0
:10062000A341994200D1904210BD0000064C012523
:10063000064E05E0E36807CC2B430C3C984710348A
:10064000B442F7D3FFF738FD4C3500086C3500088D
:1006500010B5202A06DBCB170846203A1041C117F7
:100660000B4306E00B461341D0402024A21A9140D0
:100670000843194610BD000000487047B834000810
:10068000F7B582B0029C00272078641C15460197BC
:10069000302802D0002D15D015E020780127641CE9
:1006A000782804D0582802D0002D09D00BE0002D66
:1006B00001D0102D07D1002710252078641C02E0FE
:1006C000082500E00A250026009610E00099012781
:1006D00069430818020C294680B2714300908E18B5
:1006E0003804864201D3012001902078641C2946F9
:1006F00000F078F80028E9DA0398002805D0002FE8
:1007000001D0641E00E0029C04600198002806D01D
:1007100000F0FAFB02210160C81E05B0F0BD00998F
:1007200030040843F9E710B5002B08DA0024401C18
:10073000614192185B411A4301D14008400010BD4D
:10074000F0B51FB482B005460C0003D0084600F097
:10075000A1FB02E000F09EFB203002460090214603
:100760002846FFF755FD049B059A04460F4618439B
:100770001143084314D0184610431BD00098402161
:100780000A1A18460599FFF705FD05460E46009A18
:1007900005990498FFF73CFD084305D0012004E0CB
:1007A0002046394607B0F0BD0020C11705430E436F
:1007B0002C43374300990E986305401A7905E40AE3
:1007C00000220C43FD0A0A3002D500200146E9E769
:1007D0000105101969410C9C0D9D00196941FFF735
:1007E000A2FFDFE73A2800D23038202302469A439E
:1007F000412A01D310463738884201D30020C04334
:10080000704700000E480222017B114301730D4A1C
:10081000C1681140192252038918C1600A48012297
:10082000017911430171094A41681140052292037F
:100830008918416001790422114301717047000059
:1008400064000020FF0FC0FFB4000020FF1F80FFE6
:100850007047000010B50B480221027DE1240A43D5
:100860000275094A4369A40313401B194361037EBF
:100870000B43037681691140192252038918816163
:1008800010BD000064000020FF0FC0FF10B5084934
:10089000487902070AD5F72210404871054C01201B
:1008A000207005A000F0E6FA0020207010BD0000C6
:1008B0000C000020000000200A736574696E675FF9
:1008C000656E640A0000000070B50B4C207DC10706
:1008D0000AD0400840002075084D0120287008A06B
:1008E00000F0C8FA00202870207EC10702D040081E
:1008F0004000207670BD0000640000200000002051
:10090000746573745F7072696E74665F6F6E5F5347
:100910004F46545F55415254200A000002488168F6
:1009200002788918816070473400002010B50648AD
:100930000168102211430160002000F007F800F068
:1009400027F8002010BD00000020024070B50446CA
:100950000D4D7D202978C000FFF7C2FB01460B48F2
:100960000068FFF7BDFB00F019F8002809D1042C3E
:1009700007D200222146401E00F00BF800206C60D8
:1009800070BD012070BD0000340000204000002038
:10099000704710B500F096FA10BD0000094910B577
:1009A000401E884201D9012010BD074C606103211F
:1009B000081F00F087FA0020A061072020610020B6
:1009C00010BD0000FFFFFF0000E000E010B502A036
:1009D00000F050FA10BD0000486172644661756C09
:1009E000745F48616E646C65720A0000F0B50024A3
:1009F0004DE00123A3401A4048D04B68012B01D0A1
:100A0000022B10D18E688568134653435F00DF19AF
:100A1000BD4373431D438560CD680B6846689E43A4
:100A20006B431E4346600F69C668134653435D001F
:100A30005D19AE435F433E43C6604E68022E1FD130
:100A4000FF2A0ED817464A69066A94461A467A4320
:100A50007A431701BF1ABE4367467A4316430662BC
:100A60000EE0160A324672434F6972437243BC4627
:100A70001601B71A466ABE4367467A431643466272
:100A80004A6806685343AE431E430660641C0A6806
:100A90001346E340ADD10020F0BD000010B57D212C
:100AA000C900FFF71DFB0449401E48610020886112
:100AB0000520086110BD000000E000E00149086069
:100AC000704700004000002008B506490A690092FE
:100AD000421C00D0401C0A69D20300D5401E0028E9
:100AE000F9D108BD00E000E0FEE770470107020908
:100AF000080D08491043C8608A681206FCD48A6849
:100B0000D20700D0C86802070004010E100E084387
:100B100070470000003001407047FFB581B01E46AD
:100B2000002511E001980024471909E00A9882B2D3
:100B300002980019C1B2F8B201F04EFB641CE4B295
:100B4000B442F3DB6D1CEDB203988542EADB05B0DD
:100B5000F0BD10B5FFF7E2FE01F07EFF10BD70475B
:100B600010B50448016949084900016101F0C8FF56
:100B700010BD00000020004010B50948C1694906B9
:100B800003D5016A402211430162C069800606D57F
:100B900001F0F2FF0248203080880249087010BD41
:100BA0000038014014000020F0B5234887B00168E8
:100BB00049084900016021498A6901239B031A43BE
:100BC0008A61816880221143816001681202914329
:100BD0000160016808263143016001680424214353
:100BE00001601749C160016801252943016001685E
:100BF00020221143016018216846FFF7E3FA0094B0
:100C000003200290002402270920019703946946DB
:100C1000C00605950494FFF7E9FE032002900096B4
:100C2000092003946946019705950494C006FFF7CF
:100C3000DDFE07B0F0BD00000038014000100240AA
:100C4000E204000070B510250924E406A562062020
:100C5000FFF74CFFA56170BD70B500030E4C010C91
:100C60002170010A6170A070FFF7ECFF00F08AF8B4
:100C700010250926F606B5622020FFF737FF2078F9
:100C8000FFF734FF6078FFF731FFA078FFF72EFF02
:100C9000B56100F077F870BD15000020F7B510269B
:100CA0000927FF0615460C46BE620320FFF71EFF0C
:100CB0002002000EFFF71AFF2004000EFFF716FFB8
:100CC000E0B2FFF713FF002406E00020FFF70EFF5D
:100CD00000990855641CA4B2AC42F6D3BE61FEBDB7
:100CE00010B5044610200921C90688620320FFF7C9
:100CF000FDFE2002000EFFF7F9FE2004000EFFF7B4
:100D0000F5FEE0B2FFF7F2FE10BD000070B5042062
:100D100001F024FE10240925ED06AC629020FFF7B7
:100D2000E5FE0020FFF7E2FE0020FFF7DFFE0020D7
:100D3000FFF7DCFE0020FFF7D9FE044E30600020F4
:100D4000FFF7D4FE7060AC6170BD0000EC000020C5
:100D500070B510240925ED06AC620520FFF7C6FE2C
:100D60000020FFF7C3FE064EF060AC61AC62352098
:100D7000FFF7BCFE0020FFF7B9FE3061AC6170BD2B
:100D8000EC00002010B5FFF7E3FF044C01E0FFF793
:100D9000DFFF207BC007FAD110BD0000EC0000206F
:100DA000F7B515460C46FFF74DFF10260927FF063D
:100DB000BE620220FFF79AFE2002000EFFF796FEA9
:100DC0002004000EFFF792FEE0B2FFF78FFE002432
:100DD00005E00098005DFFF789FE641CA4B2AC42F8
:100DE000F7D3BE61FFF7CEFFFEBD10B50446FFF797
:100DF00029FF10200921C90688620220FFF776FE2C
:100E00002002000EFFF772FE2004000EFFF76EFEB8
:100E1000E0B2FFF76BFE10BDF0B587B01821684651
:100E2000FFF7D0F903200025092610240127F60634
:100E30000290039569460197049500943046FFF7A8
:100E4000D5FD03200290039569460197049500940F
:100E50003046FFF7CBFD03200290039569460197CA
:100E6000049500943046FFF7C1FDB461B461B461EC
:100E700007B0F0BD0FB410B503A9044B044A0298A3
:100E800000F09CF910BC08BC04B01847551B0008C2
:100E9000440000202021020C01D010211046020A3B
:100EA00001D010460839020901D01046091F8208F6
:100EB00001D01046891E420801D0881E7047081ACA
:100EC000704700008307FF22DB0E9A408907090E56
:100ED0009940002808DB830809489B001B18186804
:100EE00090430843186070470007000F08388308D4
:100EF00004489B001B18D86990430843D861704789
:100F000000E400E000ED00E00048704748000020E9
:100F100002E008C8121F08C1002AFAD170477047C2
:100F2000002001E001C1121F002AFBD17047000020
:100F3000F0B51FB486B00998089A030D002102434A
:100F400014D05148514A18185043051411980128DB
:100F500010981AD0281A401C00264D4F4D49009673
:100F600001910490002812DA444211E01198012402
:100F700049A3012801D11098C1430698119A8460B1
:100F80000360C26041600BB0F0BD4042E4E704463C
:100F9000210500203F4A001C51410391029012E0BC
:100FA000E00707D032463B4601990098FFF72AFA3E
:100FB0000191009032463B4610461946FFF722FA4F
:100FC00006460F466410002CEAD10498039B0028C3
:100FD000029A0999089806DAFFF714FA019B009A19
:100FE000FFF710FA05E0FFF775FA019B009AFFF78B
:100FF00071FA04460E460022284BFFF703FB03D884
:101000000020C043014607E00022254B2046314620
:10101000FFF746F9FFF7D6FA102409E0002C0ADBA7
:101020000A220023FFF786F8079B30321A55641E08
:1010300002460A43F2D11122641C079B121B1C19A1
:10104000119B012B03D0012308430ED10AE0084372
:1010500004D0112010900020119077E71098151AF5
:101060006D1E0BE01098824202DD00236D1C03E030
:10107000824201DA00236D1E002BEED006981199F2
:101080008260C16030C07EE701FCFFFF104D0000B0
:10109000000014400000F03F300000000000F0436A
:1010A0000000E03F30B514460D4600F015F8280A60
:1010B000FF30013000F010F8E8B2FF30013000F0EE
:1010C0000BF8200AFF30013000F006F8E0B2FF30E4
:1010D000013000F001F830BD70B50125AD020922E4
:1010E000D2069562264C274B2188014201D093619C
:1010F00000E09362FF2101319161916266880642AE
:1011000001D0936100E0936291619162A6880642EA
:1011100001D0936100E0936291619162E68806429A
:1011200001D0936100E09362916191622689064249
:1011300001D0936100E093629161916266890642F9
:1011400001D0936100E0936291619162A6890642A9
:1011500001D0936100E0936291619162E689064259
:1011600001D0936100E0936291619162248A04420C
:1011700001D0936100E0936291619162956170BDCD
:101180001E0000200002000000B5FFF7A5FF00BD13
:1011900030B50C468118491E8AB201461D462A20E8
:1011A000FFF780FF6019401E82B221462B20FFF717
:1011B00079FF2C20FFF790FF30BD0000FFB597B0FE
:1011C0000646002518E2252877D100242746FD4948
:1011D000049400E00443761C32780120203A9040C9
:1011E0000842F7D130782A280ED002223078014602
:1011F0003039092916D804990A235943303940183F
:101200001443761C0490F1E7189802C804911890D2
:10121000002904DA012040030443484204900220DC
:101220000443761C30782E2814D1042004437078AF
:10123000761C2A2809D11898761C80C8189009E0D5
:101240000A214F43303FC719761C307801463039A8
:101250000929F5D930786C2810D006DC4C281AD032
:1012600068280ED06A2817D104E0742813D07A2891
:1012700012D110E00120400504430CE001210905D2
:1012800001E0032109050C437178814203D101205B
:1012900000052418761C761C3078119066280BD037
:1012A00013DC58287DD009DC00287BD04528F6D0F7
:1012B0004628F4D047281AD1A5E118E0632835D094
:1012C000642870D0652812D19DE170286CD008DCAC
:1012D0006728F1D069287BD06E280DD06F2806D101
:1012E000BAE073282ED0752871D0782859D01A9A70
:1012F000199990476D1C7EE16002400F022809D0C9
:1013000003280DD00428189801680DD00D60001D29
:10131000189070E11898EA1701680D604A60F6E7C6
:10132000189801680D80F2E70D70F0E718986A468A
:1013300001781172001D18900020507202A80090D0
:10134000012005E0189802C8189000200091C043C1
:1013500061070DD5002101E00199491C0191B942B5
:1013600012DA8142F8DB009A515C0029F4D10BE0DB
:10137000002101E00199491C01918142FADB019AA7
:101380000099895C0029F5D1019904981A9B471AA4
:1013900021463846199A00F097FA019940194518E4
:1013A0000BE04FE02CE113E04EE00098009900784C
:1013B000491C00911A9A199990470198401E019072
:1013C000401CF2D1214638461A9B199A10E137E0A9
:1013D0000A200021009001916002410F022907D0EC
:1013E000189A01CA1892C2179446032908D00AE035
:1013F0001898C01DC108C90005C91891944607E096
:1014000000B2C2179446042902D140B2C1178C46DB
:1014100000226146944506DA0A4600214042914185
:101420008C462D2102E0210504D52B216A4611733B
:10143000012103E0E10701D02021F7E7029155E007
:101440000A200AE0102008E010200090002104206B
:1014500004430191082703E0082000210191009036
:101460006002410F022907D0189A01CA189200227F
:101470009446032908D008E01898C01DC108C90087
:1014800005C91891944603E080B2042900D1C0B286
:1014900000210291210729D51199702906D0009ABF
:1014A0001021019B4A401A4305D00EE040216A46B4
:1014B0001173012108E06146014306D030216A46DC
:1014C00011731199517302210291009A0821019B15
:1014D0004A401A430AD16146014301D1610705D54B
:1014E00030216A46117301217F1E029111995829FA
:1014F00004D035A10E910DA90D910DE037A1F9E7AA
:101500006146019B009AFEF715FE0E9B8C469B5C84
:101510000D9A521E0D92137061460143F0D10D9841
:1015200005A9081A20300190600703D501200004A6
:10153000844300E001270198874201DD381A00E06A
:101540000020019900904118029809180498401A47
:101550000490E00306D421461A9B199A049800F0DF
:10156000B3F94519002706E003A81A9AC05D199936
:1015700090476D1C7F1C02988742F5DBE0030CD579
:1015800021461A9B199A049800F09EF9451904E027
:101590001A9A3020199990476D1C0099481E0090A6
:1015A0000029F5DC08E00D980D990078491C0D9193
:1015B0001A9A199990476D1C0199481E01900029AB
:1015C000F1DC63E10928010030313233343536373C
:1015D000383961626364656600000000303132337F
:1015E000343536373839414243444546000000001F
:1015F00000F05AF94519761C3078002800D0E2E551
:1016000028461BB0F0BD600700D406271898C01DFF
:10161000C108C90048680A680831C30FDB07189180
:10162000190001D09CA108E0210501D59BA104E08F
:10163000E10701D09AA100E09AA1430011985B084C
:10164000109165280CD006DC452809D046281DD00D
:10165000472841D141E0662818D067283CD13CE0BA
:101660000021112F01DB112000E0781C0191009076
:1016700008A911A8FFF75CFC139905910021119AA4
:1016800015927F1C12980197009150E00120C0072D
:1016900003900120019008A9009711A8FFF748FCCA
:1016A000139A149905920022119B00921298159397
:1016B000059A0192002901D0104602E0791C4018D9
:1016C0000190381A01D5019804E04042401E009074
:1016D000781C0190C01B029043E0012F00DA012723
:1016E0000021112F01DD112000E03846019100900A
:1016F00008A911A8FFF71CFC13990591119A002164
:10170000129815920091019721070CD40599B942BE
:1017100001DB019900E00191012904DD159A491EC0
:10172000515C302906D0B84201DA011D05DA0121E9
:10173000029115E00199491EEDE7002805DC0099AA
:10174000411800910199091A03E0019A411C914244
:1017500000DD01910099401A401C02900120C00751
:101760000390200706D402990198814202DB0020F1
:10177000C043029000206946C87707AF0121039853
:101780000337C907884224D0022011902B201290E1
:10179000039800280CDA404203902D20129007E0B5
:1017A0000A210398FEF79CFC30317F1E03903970AC
:1017B0001199481E11900029F2DC03980028EFD1FE
:1017C000791E129808703078202108404530BF1EDD
:1017D000387006A8C01BC01D039010980078002820
:1017E00000D00120019941180298C01709180398E8
:1017F00009180498401A401E0490E00306D42146BC
:101800001A9B199A049800F05FF84519109800780F
:10181000002803D01A9A199990476D1CE00324D52B
:1018200021461A9B199A049800F04EF845191CE0BD
:101830000098002807DB00990598884203DD159879
:10184000405C199901E0199930201A9A9047009844
:101850006D1C401C00900298401E0290002804D18C
:101860001A9A2E20199990476D1C0199481E0190D3
:101870000029DDDC05E038781A9A7F1C1999904719
:101880006D1C0399481E03900029F4DC21461A9B25
:10189000199A0498ACE600002D0000002B0000000F
:1018A0002000000000000000F8B5044600251E4698
:1018B0001746880404D405E039462020B0476D1C43
:1018C000641EF9D52846F8BDFFB50446002581B051
:1018D0001E46C80301D5302700E02027880404D520
:1018E00005E038460399B0476D1C641EF9D52846BB
:1018F00005B0F0BD044881684900490881608168ED
:101900000029FCDB704700000024014070B5184836
:101910000121826988B049020A43826180690840D6
:1019200006901448C16842149143C16012498A6804
:1019300001239B051A438A60816801242143816049
:1019400018216846FEF73EFC00940C4E0324002547
:101950006946304604950194FFF748F8022000904C
:101960006946049501943046FFF740F808B070BD11
:1019700000100240002401400027014000040048FC
:1019800010B500200549064B064CFF2248601A544A
:101990002254401C4860FF28F9D310BDDC00002011
:1019A000100100201003002010B525480121026815
:1019B0008A430A4302600168C907C90FFBD0214866
:1019C000016801221143016001688907C90FFBD03A
:1019D0000168F82291438022114301600522416889
:1019E000D2043D231B04994311434160C16A090994
:1019F0000901C162016801221206114301600168F8
:101A00008901C90FFBD04168F022914341604168D0
:101A1000072212029143416042680221920892001B
:101A20000A4342600C22416811400829FBD1064C50
:101A30002046FFF733F82046FFF740F810BD0000BE
:101A40000020024000100240006CDC0210B5084883
:101A500000230370074903E054186370521C02709E
:101A60000278142AF8D30878C009C001087010BDA4
:101A7000DC00002024050020F8B5174C174D207914
:101A8000810706D5FD2108402071687904210843AB
:101A90006871687940071DD52079FB273840104EC2
:101AA00020713078002802D1062000F02FFC0120A0
:101AB00030700920C006006900040BD468793840F2
:101AC0006871052000F022FC00203070207904218C
:101AD00008432071F8BD0000B40000200C00002075
:101AE0003100002010B50E490879C20716D0400811
:101AF0004000087100F0A2F800280AD101F06AF84D
:101B0000002806D100F00CFA002802D105A0FFF74A
:101B1000B1F90B4900200870FFF798FF10BD0000D5
:101B20008C0000202D2D2D636F6D6D616E64206E15
:101B30006F7420666F756E642D2D2D0A00000000F5
:101B40003000002002484169012211434161704781
:101B500000100240044A10B5914202D100F036FF55
:101B600010BD0020C04310BD44000020F0B5234D3F
:101B700087B06869012149040843686168694900C0
:101B80000843686118216846FEF71CFBA815009001
:101B90000120002409270326FF06019003946946CB
:101BA000029604943846FEF721FFA969A814014360
:101BB000A961A9690225014006912020039404949B
:101BC00005946A4661C269463846FEF70FFF402019
:101BD000039404946A46059461C269463846FEF748
:101BE00005FF8020039404946A46059461C2694607
:101BF0003846FEF7FBFE07B0F0BD000000100240C3
:101C000010B5FFF7D1FEFFF79DFF00F01BFBFEF7BD
:101C10008DFEFFF7ABFFFEF7C7FFFFF76BFEFFF789
:101C200075FE00F0EDFE042000F098FEFFF7F4F8DA
:101C300000F0C6F800F014FE10BD000010B5194900
:101C400019A0FEF7CAFA002801D0002010BD18A084
:101C5000FFF710F914A0FFF70DF91AA0FFF70AF922
:101C600019A0FFF707F917A0FFF704F91AA0FFF76B
:101C700001F914A0FFF7FEF81AA0FFF7FBF811A076
:101C8000FFF7F8F81BA0FFF7F5F80EA0FFF7F2F842
:101C90001CA0FFF7EFF80BA0FFF7ECF804A0FFF78C
:101CA000E9F810BD2505002068656C700000000093
:101CB0002D2D2D2D2D2D2D2D2D2D2D2D2D2D2D0A77
:101CC000000000000A000000773235715F72656124
:101CD000645F626974000000737761705F726561B0
:101CE00064000000773235715F726561645F70690E
:101CF00063000000773235715F77726974655F70D9
:101D0000696300006C63645F7075745F706963740D
:101D100075726500F0B500222248FD25027010E0C2
:101D20002149A300CE58214F3E40CE50CE5CBF1279
:101D30002E4076087600CE54CE583E40CE50641CDD
:101D4000047004780A2CEBD302700CE018499C0054
:101D50000E5D184F2E40760876000E550E593E4007
:101D60000E515B1C037003780A2BEFD3027014E052
:101D700011499A008C5CFB2634408C548C580F4ED1
:101D800034408C508C5CB612640864002C408C5437
:101D90008C5834408C505B1C037003780A2BE7D3BB
:101DA000F0BD0000DC00002064000020FF0FC0FF39
:101DB0008C00002003F0FFFFB4000020FF1F80FF15
:101DC000F0B52D4887B041690122520411434161A9
:101DD000416952001143416118216846FEF7F2F94A
:101DE000002580200126032703956A460495C1C279
:101DF000224C69462046FEF7F9FD402003956A46CD
:101E00000495C1C269462046FEF7F0FD20200395E7
:101E10006A460495C1C269462046FEF7E7FD21687F
:101E200038028143216021682160E1688143E160DB
:101E3000E06831020843E0602168C02081432160EE
:101E400021682160E1688143E160E0684021084346
:101E5000E0600920C0060168890089080160016806
:101E60000160C16889008908C160C168C20011436E
:101E7000C16007B0F0BD000000100240000400483F
:101E800010B509480178CA070CD04908490001700B
:101E9000064C01212170401CFEF7ECFF0020207051
:101EA00000F02EFD10BD00004C00002000000020BE
:101EB000FFB581B01C4607460A9815460090224699
:101EC0000E200299DB0042430B9E3846C91EDB1CE4
:101ED000FEF723FE092D0EDD0A212846FEF716F92E
:101EE0000A21FEF713F93031CAB2032300963846AF
:101EF000029900F0B5F9002D0FDB0A212846FEF704
:101F000005F93031A000CAB22018C019610040188C
:101F100003230096029900F0A3F905B0F0BD00007C
:101F2000F8B5354C002060602060344934A0FEF7DD
:101F300054F900285ED136A0FEF79CFF00F03EFB6E
:101F4000C5B2294636A0FEF795FF00F0C9F806464F
:101F500000F0D2F80246002133460846FFF718F990
:101F600000F0CAF8064600F0BBF8464300F0B8F8A7
:101F7000074600F0C1F8014633463A462EA0FEF768
:101F800079FF28022146FF3001304860F017400EEB
:101F900000258019354CC71127E01748406800021A
:101FA000FEF79EFE0020FF260136A06010E0002014
:101FB000FEF79CFD3043FFF78FF80020FEF796FDFB
:101FC0003043FFF789F8A068C001C009801CA060F9
:101FD000C001C009FF28EAD310200921C906886181
:101FE00005484168491C6D1C4160AF42D5DC0020AA
:101FF000FFF7CAF80020F8BD0400002025050020E6
:102000006C63645F7075745F70696374757265008A
:102010004E554D5F50494354555245203D200A00CE
:102020000A204E554D5F50494354555245203D209E
:102030002564200A000000000A206E6C6364476576
:102040007457696474683D25642C206E6C63644722
:1020500065744865696768743D25642C20616C6C03
:102060005F706978656C3D2564000000DC0000202D
:10207000FFF7C6FD00F0CEFB00F08EFCFEF7C2FBC2
:10208000154C0221207A2546084320721349A06886
:1020900008407D21C9034018183DA060207AC1077F
:1020A00002D040084000207200F0FAFB2978C007F7
:1020B0004908C00F49000143297000F09DFAFFF75D
:1020C000DBFCFFF70FFDFFF7DBFEFEF7DFFBFEF7A4
:1020D000FBFBFEF7BFFBE1E764000020FF0FC0FF42
:1020E0000448C07C002803D0022801D08220704719
:1020F000A1207047100500200448C07C002803D0B0
:10210000022801D0A12070478220704710050020CE
:1021100070B52F4841690122520411434161C51431
:102120000924E406A5610015A0614010A0612168A2
:102130000320800581432160216852011143216001
:10214000216882109143216021686A021143216055
:1021500021680211914321602168EA011143216045
:10216000226881118A43226022686B011A4322602F
:10217000A2688243A260A2680243A260A26882436E
:10218000A260A2680243A260A2688243A260A26821
:102190000243A260A0688843A060A0680843A060D2
:1021A000A562FF26F5363046FEF78EFCA561304667
:1021B000FEF78AFC074D062403E02888AD1CFEF7D5
:1021C0008BFF2046641EE4B20028F6D170BD0000EB
:1021D000001002400431000830B514460D46421C80
:1021E00001462A20FEF75EFF6A1C29462B20FEF7D7
:1021F00059FF2C20FEF770FF200AFF300130FEF758
:102200006BFFE0B2FF300130FEF766FF30BD00002B
:1022100010B50B490024C874012804D0022804D04A
:10222000032805D103E0602402E0C02400E0A024DC
:102230003620FEF751FFE01DF930FEF74DFF10BDCF
:1022400010050020044801680902090A0160012004
:102250000249C0060860704718E400E000E100E0B1
:10226000FFB5203A90001018C01D89B0C0B20B9085
:1022700000200090980018181C4603903FE021466B
:102280000098FDF72DFF0B99002741181E48405C70
:10229000029001200190E000079029E00199029846
:1022A00008421ED00A980999C01906900098002685
:1022B0000818059013E005980025801904900AE09D
:1022C000129882B206984019C1B20498C0B2FFF7C2
:1022D00083FF6D1CEDB2A542F2D3761CF6B2A64286
:1022E000E9D301984006000E01903819C7B207984B
:1022F000B842D3D800980019C0B200900398009952
:102300008842BCD80DB0F0BD10310008F8B50546C4
:102310000320FFF77DFFFFF7E3FE0446FFF7ECFE27
:102320000246002123460846FEF732FFFFF7E4FE8F
:102330000646FFF7D5FE4643FFF7D2FE0446FFF7F9
:10234000DBFE0146334622461EA0FEF793FD28021F
:102350002949FF3001304860F017400E00258019F0
:10236000264CC71127E0244840680002FEF7B8FC5D
:102370000020FF260136A06010E00020FEF7B6FB2B
:102380003043FEF7A9FE0020FEF7B0FB3043FEF716
:10239000A3FEA068C001C009801CA060C001C009E4
:1023A000FF28EAD310200921C90688611248416834
:1023B000491C6D1C4160AF42D5DC0020FEF7E4FEF5
:1023C000F8BD00000A206E6C636447657457696449
:1023D00074683D25642C206E6C63644765744865A1
:1023E000696768743D25642C20616C6C5F70697846
:1023F000656C3D256400000004000020DC00002026
:1024000010B50EA0FEF736FDFEF780FCFEF7A0FC2F
:102410000F4C10A02168FEF72DFD15A06168FEF796
:1024200029FD18A0E168FEF725FD1BA02169FEF734
:1024300021FD02A0FEF71EFD10BD00002D2D2D2D4B
:102440002D2D2D2D2D2D2D2D2D2D2D0A0000000093
:10245000EC0000204D616E75666163745F446576C3
:102460006963655F4944203D202578200A0000000B
:1024700049445F646576696365203D202578200ABC
:102480000000000053746174757352656731203D1C
:10249000202578200A00000053746174757352651A
:1024A0006732203D202578200A00000000690122C3
:1024B0008A40104000D0012070470000F0B53B4931
:1024C00008698026C7063A483A4A037B3A4D0478A1
:1024D000002F09DA8E61640864000470FD24234033
:1024E00003730023836011E08E6286680127761CE7
:1024F0003C4386600470282E05D9FF249134846003
:1025000002242343037353682B4053600B691C0759
:102510004023002C0BDA8B610378FD2423400370E9
:10252000037B5B085B0003730023436013E08B6253
:10253000436802265B1C4360047834430470282BF4
:1025400006D9FF2391334360037B012423430373A4
:1025500053682B4053600923DB061B6920241B04AE
:10256000002B04DA0278DF231A40027015E00378AA
:102570009E060FD423430526F341012676079B19B7
:102580001B26F341DE06760F0370022E02D9E326E6
:102590003340037053682B4053600078C006400FEF
:1025A00001D08C62F0BD8C61F0BD000000040048D9
:1025B00000010020B400002007E0FFFF70B5FFF726
:1025C00045FAFF25094CF53505E009A0FEF752FC58
:1025D0002846FEF779FA2079C007F6D0207940081E
:1025E000400020710348FDF706FE70BD8C000020FE
:1025F0002E00000025050020FEB5804C60794007C4
:102600007ED47F4F0026387B7E4DC10700293ED007
:10261000400840003873FFF751FF7B480178C90636
:10262000490F15D0397C022211433974017B774858
:10263000CA0701D1890704D53969014019208003EF
:1026400003E0396901407D208003081838611EE0ED
:1026500060686F4982058978920D8A4208D06C497A
:10266000032388702A21462001960095FFF720FC5D
:1026700020688000820D6648C1788A4207D0C27007
:1026800003235C21462001960095FFF711FC387C5E
:10269000C1076ED05A494008400008745C481F27A3
:1026A00001785948FF020078C006400F814235D0BA
:1026B00057490128087013D10097019520880323FA
:1026C0008205920D5C214620FFF7F2FB01960095F2
:1026D000206803230003820D2A214620FFF7E8FB30
:1026E00049480078C006400F022817D1FF2040015A
:1026F00001950090208803238205920D5C2100E063
:1027000037E04620FFF7D4FB0097019520680323AC
:102710000003820D2A214620FFF7CAFB3A48012117
:1027200000788905C3065A0F012A23D0022A41D016
:10273000580F1ED13648FD22067031480323017C14
:10274000114001740196009520685C218000820D83
:102750004620FFF7ADFB01960095A0880323820574
:10276000920D2A214620FFF7A3FB60790821084338
:102770006071FEBDC2070AD0226893059B0D632BD2
:1027800005D20A23DA4152181623DA412260800763
:1027900008D52068820505D00A22D041401A1621AA
:1027A000C841206000970195208803238205920D7F
:1027B0005C211FE0C2070AD0226813039B0D632B24
:1027C00005D21423DA4152180C23DA412260800723
:1027D00009D520680203920D05D01422D041401A79
:1027E0000C21C84120600097019520680323000355
:1027F000820D2A214620FFF75BFBFEBD0C00002066
:1028000064000020FFFF000000010020FF0FC0FF58
:102810003905002010B5FFF77DFAFFF779FC10BDF0
:10282000F8B54B200025000100F0A0F901240B4E63
:1028300019277F0100213046FFF738FE6043284307
:10284000C5B2384600F092F96400FF2CF2DDFF209B
:10285000913000F08BF92846F8BD000000140048C4
:102860000D48416901229205114341610B480268FC
:102870000C218A430260026804231A4302608268C2
:102880008A43826082680A438260016889088900FD
:1028900001600168016070470010024000140048A8
:1028A000F8B5154E00213046FFF700FE002801D094
:1028B0000020F8BD0025114C7D273F010021304646
:1028C0006D1CFFF7F3FD002803D0BD42F6DB0120AD
:1028D000F8BD0025FFF7A4FF6075217849080919A4
:1028E0004870207821784008401C4000C907C90F73
:1028F00001432170E2E70000001400484C00002072
:102900000020064902460B18401C5A701428FADBB6
:102910000878C007C00F0870704700004C00002006
:1029200070B50D4C02230546A36219267601304688
:1029300000F01CF90122154201D0A36100E0A3625E
:10294000304600F013F95200FF2AF4DDA36130464F
:1029500000F00CF970BD0000001400480D490A6831
:1029600040239A430A6008220A60082802D00428FB
:1029700002D002E0072200E00322100248604A6809
:10298000042002434A600A6802430A600868184348
:10299000086070470030014070B50620FFF7B6FCB4
:1029A0000948FEF791F800247D252D012046FFF708
:1029B000ADFC2846FEF788F8641CE4B2042CF5D37D
:1029C0000520FFF7A3FC70BD8813000010B50A496D
:1029D0000978C90703D0C0B2FFF7A2FF10BD074AAC
:1029E000C1B2118105492039CA695206FCD50A6A6B
:1029F00040231A430A6210BD000000202038014025
:102A00001048C16982151143C1610F4801688023D4
:102A10000902090AC2061143016001210B4AC804D8
:102A200010600B4802681A4302607D221202826223
:102A3000084AC26202680A430260C2680A43C2606E
:102A4000704700000010024010E400E000E100E0E8
:102A500000200040DC050000F0B525480026067087
:102A60002449254D1FE0A2008B5C9B078B5816D58F
:102A70000C27FB410127BF05DB191427FB411F056C
:102A80008B509C469B02BF0D9B0D9F4209D963460C
:102A90002B408B508B5C01273B438B5401E02B4038
:102AA0008B50641C047004780A2CDCD30670134924
:102AB00017E0A2008B5C9E0717D58E583705BF0D17
:102AC00008D00C23DE4101239B05F31A1426F341A1
:102AD0008B5004E0FD263340012633438B54641CA5
:102AE000047004780A2CE4D3F0BD8B582B40EFE738
:102AF000DC0000206400002003F0FFFF8C000020B9
:102B000070B5174A002010701648174D24E0990040
:102B1000445C640744581BD50D26F4410126B605D4
:102B2000A4191326F441E60444506402B60DA40D22
:102B3000A6420FD9445CE60702D1FB263440445438
:102B4000445802262C404450445C3443445401E031
:102B50002C4044505B1C137013780A2BD7D370BDE4
:102B6000DC000020B400002007E0FFFF002100E0AF
:102B7000491C8142FCDB7047124802220179114353
:102B80000171114A41681140FF31913141600F4894
:102B900081880F4802785206520E1218517001783F
:102BA0000278491C4906490ED209D2010A43027033
:102BB00001784906490E142903D90178C909C901C8
:102BC000017070478C00002003F0FFFF20380140A7
:102BD00024050020FEB5B14C0027B14D6760691C8B
:102BE000B0A02760FDF7F9FA0F263602002806D0BC
:102BF000691CB0A0FDF7F1FA00280AD015E0FFF734
:102C0000FFFBAFA0FEF736F9FFF7D8FC0146606086
:102C100006E0FFF7F5FBAFA06660FEF72BF96168F1
:102C2000B1A0FEF727F900F027FA691CB3A0FDF761
:102C3000D4FA002810D1FFF7E3FBB4A0FEF71AF98D
:102C4000FFF7BCFCC1B20A02FF320132B3A06260DE
:102C5000FEF710F900F010FA9149BAA0491CFDF7EF
:102C6000BCFA002873D1FFF7CBFB0F210902B9A0F2
:102C70006160FEF7FFF8C6A0FEF7FCF8C84EF02032
:102C8000706077700EE07068FDF7E6FFC5A07168B0
:102C9000FEF7F0F87068401C706030880004000E89
:102CA000401C707030880004000E1928EBD3208877
:102CB0006268C105C90DC148FEF7DCF8FEF7C6FE23
:102CC00060680002FEF791F8BD4D14E07448017889
:102CD000490610D00178C909C901017021884078DE
:102CE000C905C90DBF2933D0FDF700FF2088C005F5
:102CF000C00D401C20602879C007E7D02879400823
:102D000040002871FEF7A2FE644C0F21626809049E
:102D10001002431A2088C105C90DAA48FEF7AAF877
:102D2000A9A0FEF7A7F8FFF749FC02020192FF32C3
:102D300005460132014679A06260FEF79BF8AAA021
:102D4000FEF798F828010F30706077701FE0A3E05D
:102D5000FDF7CCFE09211020C9068861FEF712F8A4
:102D600027606068401C60600002FEF73EF8C2E722
:102D70007068FDF771FF8BA07168FEF77BF87068D3
:102D8000401C706030880004000E401C7070308859
:102D90000004000E1928EBD39AA0FEF76BF80F255C
:102DA0002D02FEF7EDFD0024A24800940290FF26BC
:102DB0002F190136390232469F48FDF76FFF7F1CFD
:102DC000390232460298FDF769FF754800270770FF
:102DD00047701DE0984BD2B25E5CC9184B78897879
:102DE0008E46F1088C469E087146CB086146C902A2
:102DF000760131431943914B0E0A41609E54D3181A
:102E00005970921C027001880904090EC91C417096
:102E100002681104090EC029DCD3077047701CE05A
:102E2000854BD2B2CB18FF33013319785E789B788B
:102E3000C908B608C9027601DB08314319437F4B44
:102E40004160D31880335970090A1970921C0270BE
:102E500001880904090EC91C417002681104090E99
:102E6000C029DDD3019900980C4E0818FF300130BD
:102E70000102FF22706001327048FDF791FF2802C5
:102E800001194A1C6EA07368FDF7F4FF0098A41C9A
:102E9000401C0090FF288ADD0020FEBD04000020B9
:102EA00024050020773235715F726561645F626965
:102EB00074000000737761705F72656164000000E8
:102EC0004E554D5F53544152545F50414745203D4C
:102ED000200A0000535741505F524541445F424928
:102EE00054203D200A0000000A20504147455F530E
:102EF00054415254203D202564200A007732357118
:102F00005F726561645F7069630000004E554D5FDC
:102F100050494354555245203D200A000A204E5541
:102F20004D5F50494354555245203D20256420268D
:102F300020504147455F5354415254203D20256461
:102F40000A000000773235715F77726974655F70CF
:102F5000696300000A20535741505F414444524581
:102F60005328524742313620464F52204C4344208A
:102F700028313932207065722070616765202C53CA
:102F8000415645292029203D202564200A000000C3
:102F90000A2045415253494E475F535741500A005A
:102FA000DC0000204572617365536563746F723491
:102FB0004B42203D2025640A00000000BC3400087C
:102FC0008C000020003500084E554D5F5049435499
:102FD0005552455F544F5F434F4E5645525426530A
:102FE000415645203D200A000A2045524153494E92
:102FF000475F53504153455F4F465F5049435455D7
:1030000052450A000A2A2A2A2A2A2A2A2A2A2A2A47
:103010002A2A2A535441525420434F4E5645525463
:10302000494E472A2A2A2A2A2A2A2A2A2A2A2A2AA0
:103030002A0A0000100200201001002010030020C6
:10304000737761705F706167652025642026202595
:103050006420636F6E766572742673617665207482
:103060006F2025642070616765206F66207069633A
:10307000747572650A000000F8B5FEF7E7FC174C9E
:10308000174D184E20E06868FF22010201321648F1
:10309000FDF704FE15A06968FDF7ECFE0020124F55
:1030A00060602079000702D113A0FDF7E3FE60689D
:1030B000395C12A0FDF7DEFE6068401C6060FF28EE
:1030C000EFD96868401C68603079C007DBD0307980
:1030D000400840003071FEF7B9FCF8BDDC0000206C
:1030E000040000208C000020100100200A20504124
:1030F0004745203D202564200A0000002532782C19
:103100000000000011003A00050129002000130012
:103110000720050801009F000000000000005F007C
:10312000000007000700147F147F14242A7F2A124E
:103130004C2C1068643649552250000503000000ED
:103140001C2241000041221C0014083E08140808FB
:103150003E08080000503000101010101000606091
:10316000000020100804023E5149453E00427F40C5
:103170000042615149462141454B311814127F10DC
:1031800027454545393C4A4949300171090503360F
:1031900049494936064949291E003636000000567D
:1031A00036000008142241001414141414004122A3
:1031B00014080201510906324979413E7E1111116C
:1031C0007E7F494949363E414141227F4141221C8F
:1031D0007F494949417F090909013E4149497A7FAF
:1031E0000808087F00417F41002040413F017F08DF
:1031F0001422417F404040407F020C027F7F040840
:10320000107F3E4141413E7F090909063E4151215F
:103210005E7F09192946464949493101017F01016B
:103220003F4040403F1F2040201F3F4038403F6309
:103230001408146307087008076151494543007F6B
:1032400041410002040810200041417F00040201B6
:103250000204404040404000010204002054545405
:10326000787F484444383844444420384444487FB4
:103270003854545418087E0901020C5252523E7FB1
:103280000804047800447D40002040443D007F1045
:1032900028440000417F40007C041804787C080426
:1032A000047838444444387C14141408081414185E
:1032B0007C7C080404084854545420043F444020B3
:1032C0003C4040207C1C2040201C3C4030403C4482
:1032D000281028440C5050503C4464544C4400087E
:1032E00036410000007F0000004136080008040855
:1032F0001008FFFFFFFFFF7C1211127C7F49494934
:10330000317F494949367F01010101603F213F601A
:103310007F4949494177087F087722414949367FEB
:103320001008047F7E1009047E7F08142241403E6D
:1033300001017F7F020C027F7F0808087F3E414128
:10334000413E7F0101017F7F090909063E4141415C
:103350002201017F0101074848483F0E117F110EED
:1033600063140814633F20203F60070808087F7F2C
:10337000407E407F3F203F207F017F4848307F488C
:1033800030007F007F484830224149493E7F083E57
:10339000413E462919097F20545454783C4A4A4AF0
:1033A000317C545428007C04040C00603C243C60B4
:1033B00038545454186C107C106C00445454287CBD
:1033C0002010087C7C2112097C7C102844004038A5
:1033D00004047C7C0810087C7C1010107C38444469
:1033E00044387C0404047C7C141414083844444499
:1033F0000004047C04040C5050503C08147C140855
:1034000044281028443C20203C600C1010107C7C88
:10341000407C407C3C203C207C047C5050207C50F4
:1034200020007C007C50502028445454387C1038B4
:103430004438485434147C004040404040404040B0
:103440004041414141414040404040404040404077
:103450004040404040404040050202020202020259
:10346000020202020202020220202020202020204C
:10347000202002020202020202909090909090108E
:10348000101010101010101010101010101010103C
:1034900010101002020202020288888888888808B8
:1034A000080808080808080808080808080808089C
:1034B0000808080202020240383400080A2D585851
:1034C000582D7375636365737366756C5F45524100
:1034D000535F535741502D5858582D70726F677273
:1034E000616D65722E493D2025642C2070726F67D6
:1034F00072616D65722E50203D202564200A000007
:103500000A217375636365737366756C5F53415607
:10351000455F535741502D2D2D2D70726F6772618D
:103520006D65722E493D2025642C2070726F677284
:10353000616D65722E50203D202564202C2025646D
:10354000204B4220534156450A0000006C350008CC
:10355000000000204C000000100F0008B8350008E3
:103560004C000020FC080000200F000800000000B4
:10357000000000000000000000000000000000004B
:10358000000000000000000000000001800040007A
:1035900020001000080004000200010000000000EC
:1035A00001000000040000000000000000127A008A
:0835B000000000000000000013
:04000005080000B13E
:00000001FF
