:020000040800F2
:10000000D80D0020C5000008BD040008C103000889
:1000100000000000000000000000000000000000E0
:10002000000000000000000000000000ED040008D7
:100030000000000000000000BF040008EF040008FA
:10004000D700000800000000D7000008D700000813
:10005000D7000008D7000008D7000008D700000824
:1000600000000000D70000080F030008D7000008B8
:10007000D7000008D7000008D700000800000000E3
:10008000D70000080000000000000000FD04000888
:1000900000000000D7000008D7000008D7000008C3
:1000A00000000000D700000800000000150500084F
:1000B0000348854600F0FCF800480047C94900089D
:1000C000D80D00200448804704480047FEE7FEE7BB
:1000D000FEE7FEE7FEE7FEE7FB040008B1000008CC
:1000E00030B50B46014600202022012409E00D46D0
:1000F000D5409D4205D31D469540491B2546954058
:1001000040191546521E002DF1DC30BD70B500249B
:100110002546002801DA01244042002901DA0125A0
:100120004942FFF7DDFFAC4200D04042002C00D036
:10013000494270BDF0B51FB40646002082B00546A6
:100140004024019100901BE0019922460F46304661
:1001500000F020F8049A059B801A994110D31046AC
:100160001946224600F093F8361A8F41019722462D
:1001700001200021009F00F08AF838184D410090BE
:100180002046641E0028DFDC019B00982946324689
:1001900007B0F0BD10B5202A04DB0846203AD04055
:1001A000002110BD0B46D340D0402024A21A91401C
:1001B0000843194610BD03460B439B0703D009E0D3
:1001C00008C9121F08C0042AFAD203E00B78037092
:1001D000401C491C521EF9D27047D2B201E0027095
:1001E000401C491EFBD270470022F6E710B51346AB
:1001F0000A4604461946FFF7F0FF204610BDCAB272
:10020000401E4178401C8A4202D00029F9D10020CA
:100210007047421C0178401C0029FBD1801A7047AE
:1002200030B504460020034600E05B1C934203D235
:10023000E05CCD5C401BF8D030BD03460A7802700C
:10024000401C491C002AF9D11846704730B50346B6
:100250001D78002D08D00A461478521C002C03D0BB
:10026000AC42F9D15B1CF3E7181A30BD30B5054636
:10027000002008E00A4602E0A34207D0521C13788F
:10028000002BF9D1401C2C5C002CF3D130BD10B5F3
:10029000202A04DB0146203A9140002010BD914005
:1002A00020239C1A0346E3401943904010BD0000F0
:1002B000064C0125064E05E0E36807CC2B430C3CB9
:1002C00098471034B442F7D3FFF7F6FE1C590008E4
:1002D0003C59000830B58C180278401C13071B0FDE
:1002E00001D10378401C120906D10278401C03E0BA
:1002F00005780D70401C491C5B1EF9D101E00B70A4
:10030000491C521EFBD1A142E6D3002030BD7047EC
:10031000024881680278891881607047340400209F
:1003200010B506480168102211430160002000F05A
:1003300007F800F027F8002010BD00000020024060
:1003400070B504460D4D7D202978C000FFF7C8FE2A
:1003500001460B480068FFF7C3FE00F019F80028BB
:1003600009D1042C07D200222146401E00F00BF8D0
:1003700000206C6070BD012070BD000034040020BE
:1003800040040020704710B500F02AFA10BD0000AC
:10039000094910B5401E884201D9012010BD074C03
:1003A00060610321081F00F01BFA0020A0610720F4
:1003B0002061002010BD0000FFFFFF0000E000E012
:1003C000FEE7F0B500244DE00123A3401A4048D0D9
:1003D0004B68012B01D0022B10D18E688568134623
:1003E00053435F00DF19BD4373431D438560CD68F0
:1003F0000B6846689E436B431E4346600F69C668A0
:10040000134653435D005D19AE435F433E43C660F0
:100410004E68022E1FD1FF2A0ED817464A69066A77
:1004200094461A467A437A431701BF1ABE43674679
:100430007A43164306620EE0160A324672434F694B
:1004400072437243BC461601B71A466ABE436746FA
:100450007A43164346624A6806685343AE431E43D6
:100460000660641C0A681346E340ADD10020F0BD6D
:1004700010B57D21C900FFF733FE0449401E4861D5
:10048000002088610520086110BD000000E000E048
:1004900001490860704700004004002008B5064983
:1004A0000A690092421C00D0401C0A69D20300D5A0
:1004B000401E0028F9D108BD00E000E0FEE77047CB
:1004C00001070209080D08491043C8608A6812062E
:1004D000FCD48A68D20700D0C86802070004010E65
:1004E000100E08437047000000300140704710B5FF
:1004F000FFF70EFF04F064FE10BD704710B504480E
:10050000016949084900016100F03AFD10BD000091
:100510000020004010B50A4CE069400605D504F003
:10052000CBFE206A402108432062E069800606D5A0
:1005300004F09AFE0248203080880249087010BDFD
:100540000038014008040020F0B5254887B0016854
:1005500049084900016023498A6901239B031A4322
:100560008A6181688022114381600168120291438F
:1005700001600168082631430160016804242143B9
:1005800001601949C16001680125294301600168C2
:1005900040221143016001682022114301601821AB
:1005A0006846FFF721FE00940320029000240227F2
:1005B0000920019703946946C00605950494FFF746
:1005C00000FF0320029000960920039469460197DA
:1005D00005950494C006FFF7F4FE07B0F0BD0000D7
:1005E0000038014000100240E204000070B5102500
:1005F0000924E406A5620620FFF762FFA56170BD2D
:1006000070B500030E4C010C2170010A6170A070DE
:10061000FFF7ECFF00F068F810250926F606B56232
:100620002020FFF74DFF2078FFF74AFF6078FFF7A3
:1006300047FFA078FFF744FFB56100F055F870BDA3
:100640001804002010B5044610200921C90688624C
:100650000320FFF735FF2002000EFFF731FF2004D3
:10066000000EFFF72DFFE0B2FFF72AFF10BD0000DC
:1006700070B5042004F052FD10240925ED06AC628B
:100680009020FFF71DFF0020FFF71AFF0020FFF763
:1006900017FF0020FFF714FF0020FFF711FF044EA3
:1006A00030600020FFF70CFF7060AC6170BD00008F
:1006B0008C04002070B510240925ED06AC620520DD
:1006C000FFF7FEFE0020FFF7FBFE064EF060AC6178
:1006D000AC623520FFF7F4FE0020FFF7F1FE306139
:1006E000AC6170BD8C04002010B5FFF7E3FF044C33
:1006F00001E0FFF7DFFF207BC007FAD110BD00004B
:100700008C04002010B50446FFF770FF102009216B
:10071000C90688620220FFF7D3FE2002000EFFF711
:10072000CFFE2004000EFFF7CBFEE0B2FFF7C8FEBD
:1007300010BDF0B587B018216846FFF755FD0320BE
:100740000025092610240127F60602900395694624
:100750000197049500943046FFF733FE0320029082
:10076000039569460197049500943046FFF729FEEA
:100770000320029003956946019704950094304642
:10078000FFF71FFEB461B461B46107B0F0BD0000B3
:100790000FB410B503A9044B044A029800F0F6F810
:1007A00010BC08BC04B018477514000844040020AD
:1007B0002021020C01D010211046020A01D010465F
:1007C0000839020901D01046091F820801D01046DD
:1007D000891E420801D0881E7047081A7047000021
:1007E0008307FF22DB0E9A408907090E99400028F3
:1007F00008DB830809489B001B18186890430843CE
:10080000186070470007000F0838830804489B00F1
:100810001B18D86990430843D861704700E400E092
:1008200000ED00E002E008C8121F08C1002AFAD15A
:1008300070477047002001E001C1121F002AFBD160
:10084000704730B514460D4600F022F8280AFF30F4
:10085000013000F01DF8E8B2FF30013000F018F868
:10086000200AFF30013000F013F8E0B2FF30013011
:1008700000F00EF830BD30B50C46054602E02846C3
:1008800000F062F82146641EA4B20029F7D130BD01
:1008900070B50125AD020922D2069562264C274B80
:1008A0002188014201D0936100E09362FF21013170
:1008B000916191626688064201D0936100E0936283
:1008C00091619162A688064201D0936100E0936233
:1008D00091619162E688064201D0936100E09362E3
:1008E000916191622689064201D0936100E0936292
:1008F000916191626689064201D0936100E0936242
:1009000091619162A689064201D0936100E09362F1
:1009100091619162E689064201D0936100E09362A1
:1009200091619162248A044201D0936100E0936254
:1009300091619162956170BD220400200002000067
:1009400000B5FFF7A5FF00BD10B50446000AFF3053
:100950000130FFF79DFFE0B2FF300130FFF798FF55
:1009600010BD30B50C468118491E8AB201461D469D
:100970002A20FFF766FF6019401E82B221462B2015
:10098000FFF75FFF2C20FFF783FF30BDFFB591B06D
:100990000F460546002606E025280AD0149A13992A
:1009A00090476D1C761C28780028F5D1304615B08C
:1009B000F0BD002400940121F34A029400E00443B6
:1009C0006D1C2B780846203B98401042F7D12878C0
:1009D0002A280ED0022128780246303A092A15D852
:1009E000009A0A235A43303A80180C436D1C009039
:1009F000F1E701CF0090002805DA0120400304430D
:100A0000009840420090022004436D1C28782E2854
:100A100015D10420044368786D1C2A280AD101CF1F
:100A20006D1C02900BE002990A22514330394018A4
:100A30006D1C02902878014630390929F3D92878AD
:100A40006C2810D006DC4C281AD068280ED06A28F2
:100A500017D104E0742813D07A2812D110E00120B5
:100A6000400504430CE00121090501E003210905CB
:100A70000C436978814203D10120000524186D1CC4
:100A80006D1C287803906E281ED00CDC632831D0B2
:100A900004DC00288AD0582811D1B2E064287BD029
:100AA00069280CD178E073282DD004DC6F2870D031
:100AB000702804D1A7E075286CD078286BD0149AE0
:100AC00013999047761C62E06002400F022807D01D
:100AD00003280AD0042838680AD006603F1D56E073
:100AE0003868F11706604160F8E738680680F5E776
:100AF0000670F3E73878694608740020487404A843
:100B00000390012003E0386803900020C0433F1D9C
:100B100061070FD5002101E00199491C029A01915A
:100B2000914213DA8142F7DB019A0399895C00292B
:100B3000F2D10BE0002101E00199491C01918142B1
:100B4000FADB019A0399895C0029F5D10199009893
:100B5000139A401A00902146149B00F03BF901992A
:100B60008019461807E0039803990078491C0391FF
:100B7000149A139990470198401E0190401CF2D19D
:100B80002146149B139A009800F014F986196D1CE5
:100B900009E741E033E034E00A20002104900591A8
:100BA0006002410F022905D001CFC21794460329E4
:100BB00005D007E0FF1DFF08FF0003CF06E000B2ED
:100BC000C2179446042902D140B2C1178C460022B4
:100BD0006146944506DA0A460021404291418C461E
:100BE0002D2102E0210504D52B216A461176012131
:100BF00003E0E10701D02021F7E7019154E00A204A
:100C00000BE0102009E01020049000210420044390
:100C100008200591029003E008200021059104902E
:100C20006002410F022905D001CF0022944603291A
:100C300006D006E0FF1DFF08FF0003CF8C4603E04F
:100C400080B2042900D1C0B20021019121072BD527
:100C50000399702906D0049A1021059B4A401A4333
:100C600005D00EE040216A461176012108E0614678
:100C7000014306D030216A4611760399517602214C
:100C80000191049A0821059B4A401A430CD1614600
:100C9000014301D1610707D530216A461176012150
:100CA00001910299491E02910399582904D037A154
:100CB00003910FA90F910DE039A1F9E76146059B5A
:100CC000049AFFF737FA039B8C469B5C0F9A521EDF
:100CD0000F92137061460143F0D10F9807A9081ACB
:100CE00020300390600704D501200004844302985B
:100CF00001E0012002900399884201DD401A00E0E2
:100D0000002041180290019809180098401A00909C
:100D1000E00306D42146149B139A009800F05AF879
:100D200086190020049008E006A9085C149A13991B
:100D300090470498401C761C049001998842F3DB8C
:100D4000E0030CD52146149B139A009800F042F85A
:100D5000861904E0149A302013999047761C029962
:100D6000481E02900029F5DC08E00F980F990078E2
:100D7000491C0F91149A13999047761C0399481EA9
:100D800003900029F1DCFBE6092801003031323301
:100D900034353637383961626364656600000000B7
:100DA00030313233343536373839414243444546A1
:100DB00000000000F8B5044600251E4617468804CA
:100DC00004D405E039462020B0476D1C641EF9D5D7
:100DD0002846F8BDFFB50446002581B01E46C8036D
:100DE00001D5302700E02027880404D505E03846E7
:100DF0000399B0476D1C641EF9D5284605B0F0BDB7
:100E00000448816849004908816081680029FCDB49
:100E1000704700000024014070B518480121826924
:100E200088B049020A4382618069084006901448EC
:100E3000C16842149143C16012498A6801239B052D
:100E40001A438A6081680124214381601821684621
:100E5000FFF7CAF900940C4E03240025694630467A
:100E600004950194FFF7ADFA0220009069460495BD
:100E700001943046FFF7A5FA08B070BD001002409B
:100E800000240140002701400004004810B5254817
:100E9000012102688A430A4302600168C907C90F39
:100EA000FBD02148016801221143016001688907D4
:100EB000C90FFBD00168F8229143802211430160E1
:100EC00005224168D2043D231B049943114341602C
:100ED000C16A09090901C1620168012212061143B0
:100EE000016001688901C90FFBD04168F02291437C
:100EF0004160416807221202914341604268022129
:100F0000920892000A4342600C224168114008296D
:100F1000FBD1064C2046FFF7ABFA2046FFF7B8FAA4
:100F200010BD00000020024000100240006CDC02F6
:100F300010B5074800210170064A03E09C18617053
:100F40005B1C03700378142BF8D3117010BD0000E4
:100F5000540400205409002010B5074800210170F6
:100F6000064A03E09C1861705B1C03700378142B25
:100F7000F8D3117010BD000054040020690900204E
:100F8000F8B517480078C00629D5164E00273088D6
:100F9000154CC005C00D401C3060C005C00D0125BA
:100FA000FA2815D910200921C90637608861082060
:100FB00004F0B4F87068401C7060FFF743FB042035
:100FC00004F0ACF80220A062A562A561A562A06150
:100FD0000648C76081680906FCD4A561A562F8BD12
:100FE0000D040020000400200014004800300140DF
:100FF000F0B5194887B0416901229205114341615A
:1010000018216846FFF7F0F8002402200125032686
:1010100003946A46049461C2104F69463846FFF74C
:10102000D0F90095039469463846029601950494D8
:10103000FFF7C7F90394049440206A4661C2084C44
:1010400069462046FFF7BDF90220B861BD61402026
:10105000A06107B0F0BD000000100240001400487D
:101060000004004810B50949002008604860FFF7F7
:10107000E9FA042004F052F80548022282620121B4
:10108000816281618162826110BD000000040020E4
:1010900000140048F8B5AC49AC4E08790025C207E9
:1010A000741E002A7ED0400840000871601E00783F
:1010B00000281DD0601E0570FFF74EFFFF2304338C
:1010C000A3A2A549A54802F06FFAA349A34802F0DC
:1010D000DFFE7D23DB00A24A9F49A04802F034FFD7
:1010E0009D499E4802F072F99C4803F01FFCE9E01C
:1010F0002078010714D5F72108402070102009211D
:10110000C90688613570FFF713FFFFF725FF954883
:1011100042680088C105C90D93A0FFF739FBD1E0F3
:1011200096A004F0E5F80127002805D02078384380
:1011300020700B2193A0C3E095A004F0D9F80028FB
:1011400040D0FFF709FFFF23043381A2824983487F
:1011500002F02AFA7D23DB00904A7F497F4802F0A3
:1011600097FD7D497D4802F031F97C4803F0DEFBB4
:101170008BA0FFF70DFB96A0FFF70AFB94A0FFF7EB
:1011800007FB93A0FFF704FB91A0FFF701FB90A0E2
:10119000FFF7FEFA81492A2008708EA0FFF7F8FABF
:1011A0008BA000E091E0FFF7F3FA89A0FFF7F0FAD7
:1011B00087A0FFF7EDFA86A0FFF7EAFA84A0FFF711
:1011C000E7FA7FE084A004F093F8002831D0FFF71D
:1011D000C3FE7FA0FFF7DCFA7DA0FFF7D9FA7CA061
:1011E000FFF7D6FA7AA0FFF7D3FA79A0FFF7D0FA83
:1011F0007DA0FFF7CDFA76A0FFF7CAFA74A0FFF73B
:10120000C7FA73A0FFF7C4FA71A0FFF7C1FA70A084
:10121000FFF7BEFA4D4A8148921E17700570504B79
:1012200002E05D54491C01700178C829F9D355606A
:1012300048E07BA004F05CF800280FD0FFF712FF15
:101240002078EF220146C906C90F791A104009011A
:1012500008432070C006C10F73A031E074A004F0F1
:1012600047F8002812D010200921C906886120788B
:10127000FB2201464907C90F791A1040890008432B
:10128000207040071ED50B216BA019E06CA004F064
:101290002FF800281ED000273846FFF7B1F97F1C31
:1012A000142FF9DB2F4928460D604D60FFF72AFA0D
:1012B000207808210843FB21084020700B2160A002
:1012C00004F032F83570FFF733FE21785F48CA0723
:1012D00007D102E00B215EA0F2E78A0701D44A079A
:1012E0000BD55F4B42681A4005231B03D21842609E
:1012F000027902231A43027104E00279FD231A40A5
:1013000002713570D2B2D30710D052085200027168
:101310003078401C3070C80709D003F091FD217867
:10132000C007C00F4908490001432170F8BD4807B4
:10133000FCD503F0FBFDC007410F2078FB221040D5
:1013400008432070F8BD0000E80300200E040020D0
:101350006D795F66696C650018050020A0040020A7
:1013600000000020000400202D2D2A454E442A2D87
:101370002D493D25642C503D25642C0068656C701A
:101380003B0000005055545F48454C503B00000066
:101390006D7966696C652E72656164006C0500206C
:1013A0002A2A2A2A2A2A2A2A2A2A2A2A2A2A2A2A9D
:1013B000796F757220444154412F2F2F2F2F2F2FDB
:1013C0002F2F2F2F2F2F2F2F2F2F2F2F2D0A0000B2
:1013D0002A0A0000257300006D7966696C652E7716
:1013E00072697465000000002D2D2D2D2D2D2D2DE1
:1013F0002D2D6C6974746C654653205354415254BE
:101400002041667465722073656E64206461746146
:101410002D2D2D2D2D2D2D2D2D2D0A005404002088
:101420006461633B000000004441435F454E3B0064
:10143000773235713B000000573235513B000000D8
:1014400070726F6772616D5F6F6E3B0048040020C1
:101450002D2D4572726F723430342D2D0000000036
:10146000FF0FC0FF024841690122114341617047EB
:1014700000100240044A10B5914202D103F06CFE04
:1014800010BD0020C04310BD44040020F0B52A4D1B
:1014900087B06869012149040843686168694900A7
:1014A0000843686118216846FEF79EFE0120C003CC
:1014B0000024009001270326092003946946019720
:1014C00002960494C006FEF77CFFA8150090092040
:1014D00003946946019702960494C006FEF771FFD3
:1014E000A969A8140143A961A969022501400691CF
:1014F00020200394049405946A4661C20920694639
:10150000C006FEF75EFF4020039404946A460594EB
:1015100061C209206946C006FEF753FF802003948C
:1015200004946A46059461C209206946C006FEF724
:1015300048FF07B0F0BD00000010024010B5FFF7F3
:10154000A5FCFFF78FFF03F02FFCFEF7E9FEFFF786
:101550009DFFFEF7F9FFFFF753FCFFF75DFC03F07B
:1015600007FE042003F0DAFDFFF7E3F8FFF740FD84
:1015700010BD0000F0B500222248FD25027010E0E9
:101580002149A300CE58214F3E40CE50CE5CBF1221
:101590002E4076087600CE54CE583E40CE50641C85
:1015A00004700478032CEBD302700CE018499C0003
:1015B0000E5D184F2E40760876000E550E593E40AF
:1015C0000E515B1C03700378022BEFD3027014E002
:1015D00011499A008C5CFB2634408C548C580F4E79
:1015E00034408C508C5CB612640864002C408C54DF
:1015F0008C5834408C505B1C03700378022BE7D36B
:10160000F0BD00005404002048040020FF0FC0FF7C
:10161000E803002003F0FFFFF0030020FF1F80FF1E
:1016200010B50446FEF75CFD601A10BD10B54418F5
:10163000601EFEF755FD601A401E10BDF3B581B067
:1016400004460125A26D18E0411CE165216E4309A5
:10165000491E2166616E9B00C958C306DB0E2E46EB
:101660009E40314209D1A16E626D096A1018FEF7E1
:1016700037FD02980160A16D2BE0E06D9042E3D14F
:10168000266E002E34D0606DA76E8018396AFEF782
:1016900027FD6165F86A3146C00003F0CCF8A0650B
:1016A0000020E065A06EC16A606EFEF79DFD2246D7
:1016B00001231649104602F0BFFE0600C2D02046A4
:1016C00000F04AF83046FEBD401CE065206E401E2A
:1016D0002066E06D884209D043099B00626EC60611
:1016E000D258F60E2B46B3401A42EDD10020FEBD73
:1016F00007A00090616DE06D23224318120105A13F
:101700000BA0FFF745F81B20C043FEBD671700087C
:10171000000000002E2E5C436F72655C4C49425CF9
:101720006C6974746C6566735C6C66732E63000020
:1017300025733A25643A6572726F723A204E6F20B3
:101740006D6F7265206672656520737061636520D8
:10175000257525730A00000000218165C165816E31
:10176000096A0166704710B50446406D081AA16EFB
:10177000096A4018FEF7B4FCA06D884209D94A09ED
:10178000606E9200CC068358E40E0121A1400B4309
:101790008350002010BDFFB587B00024139F129E18
:1017A00020E03D1B082D00D308251198109A04A9AC
:1017B000001901AB009223C30A98031B07A807C8AE
:1017C00000F09CF8002808D131192A4604A8FEF739
:1017D00027FD002805D002DA01200BB0F0BD022061
:1017E000FBE76419BC42DCD30020F6E7806EC268D8
:1017F0001047FFB5064608680C4685B0411C2FD03F
:10180000801C2DD0B06E8169A068FFF70FFF00909B
:101810000546E368B06E06CC8768083CB8470028E8
:1018200018D10898002817D000210798C9430160F3
:10183000E06806CC0290019200912B4603950021AE
:101840003046083C079AFFF7A6FF002802DB03D0CA
:101850005320C04309B0F0BD2146304600F0F1F8F6
:101860000020F7E7FFB585B00F9D10980C460E9F3E
:10187000119E00903EE02068B84231D16068A842D5
:101880002ED80599896E896A4218AA4228D92A1A3F
:10189000881AB04200D930460190E068009980185B
:1018A000019AFEF788FC00990198081800900198A9
:1018B000A1682D18361A6068281A814200D9084696
:1018C000A0600599896E896A884213D12146089BD8
:1018D000079A0598FFF78DFF00280BD009B0F0BDDF
:1018E00027600598806E81692846FFF799FE606041
:1018F0000020A060002EBED10020EFE7FFB589B028
:10190000064614980290B06E1546026A1299159C0C
:101910008A4204D91399C069091981423FD95320D9
:10192000C0430DB0F0BD0A982746002819D00168C1
:101930001298814215D10A980A9940688968139AC9
:10194000431893420DD9904207D8101A091AB94288
:1019500000D80F460A99C96815E0801AB84200D825
:1019600007462968129881421ED1A9686868139AAF
:101970004318934218D9904212D8101A091AB94242
:1019800000D80F46E9683A4609180298FEF713FC9A
:101990000298C01902901398C019E41B13904BE0F1
:1019A000801AB84200D807460C98844221D3B06E02
:1019B000416900911398FEF793FB002919D1009813
:1019C000A04216D801463846FFF72AFE0190009043
:1019D000B06E029B4768139A1299B8470028A0D1AD
:1019E000019902984018029013984018641A1390B5
:1019F00022E012982860B06E41691398FFF710FE3C
:101A00006860B06E0C9A416913988018FFF70EFE5B
:101A1000B16EC96902F00FFF6968401AB16E896A38
:101A200002F009FFA8600090EB68B06E06CD476831
:101A3000083DB8470028D2D1002C00D073E7002021
:101A40006FE710B5806E0C46816AFF22E068FEF7F2
:101A5000C4FB0020C043206010BD000070B500230F
:101A6000094D0EE0CE5C040970400007800E285836
:101A700036094440200966403407A40E2C596040C2
:101A80005B1C9342EED370BDC458000810B54142B0
:101A90000840FEF78DFE1F21081A10BDFFB58BB060
:101AA000169E06A90B98FFF7C9FD002839D10699A3
:101AB0000B98FFF79BFE002830D1149800280FD018
:101AC000401E059005A90B9800F0FEF805990B9AA9
:101AD000491C0591926ED2698A422DD0002423E0E0
:101AE000159906980860002067E00E9A031B09AF5D
:101AF000684694C00125039500210D9A0B98FFF7C5
:101B0000FDFE00280DD106996846039592C00BA8EA
:101B100007C80123FFF7A6FE002804D00146543170
:101B20004ED00FB0F0BD641C05988442DDD31598EB
:101B300006990160059840E0401CFFF7A7FF441C90
:101B40000E980025079032E002F0ECFE0790A90005
:101B50000698042307AA09916F460FC70BAF07CF5A
:101B60000123FFF77FFE0746079802F058FA079017
:101B7000002F03D03846543022D015E0611E8D422C
:101B800014D0042207AB09996F4603920BC7134682
:101B900000210D9A0B98FFF7B1FE0746079802F057
:101BA0003EFA0790002F01D03846BAE76D1CA542D7
:101BB000CAD3159806990160A00030600020B0E7F4
:101BC00006A00090064A07A10DA0069BFEF7E0FDC7
:101BD00000210C98C943016063E700000000000089
:101BE000660900002E2E5C436F72655C4C49425CB6
:101BF0006C6974746C6566735C6C66732E6300004C
:101C000025733A25643A64656275673A20426164D7
:101C100020626C6F636B20617420307825782573A7
:101C20000A000000FFB585B00E9800280CD0401EB9
:101C3000049004A9059800F047F804460FA90598F8
:101C400000F042F805462AE000211098C9430160DF
:101C500000212AE02046FFF719FF0646601BFEF729
:101C6000A7FD2021081A3146401E02F0E4FD064679
:101C700081000898042308AA6F460FC705AF07CF55
:101C8000FFF73CFE0746089802F0C9F90890002FBC
:101C900002D0384609B0F0BD0120B040241AAC4251
:101CA000D8D81098089901600F9911980160002008
:101CB000F0E710B50446006802F0B1F920606068F2
:101CC00002F0ADF9606010BDF8B5806E0D68C469B2
:101CD0000E46083C21462846FEF702FA002811D09D
:101CE000401E02F0E9FD8000281A21460838FEF760
:101CF000F7F9074602F0E0FD7C438000291B081A33
:101D000030603846F8BDFFB58BB01498159E1D465F
:101D100000282AD0401E0A900AA90B98FFF7D4FF8A
:101D2000044629461698B04700281ED1002C1ED024
:101D3000E007C00F0221081A83000590069308A847
:101D400000210BAF009503930191029007CFFFF79D
:101D5000D5FD0546089802F062F90890099802F04E
:101D60005EF90990002D04D028460FB0F0BD002088
:101D7000FBE7059F00257F1E07E0A90008A8415842
:101D80001698B0470028F0D16D1CBD42F5DB0698CF
:101D900008A940188038C56F0598241AC1E70020AB
:101DA0007047F3B585B00C460025681CC10F0918B3
:101DB00049084900401A800001190598FFF73EFCC8
:101DC00000281DD16D1C022DEFDB0025A5602168C8
:101DD0002046009104260830059A02903346039667
:101DE000019529461046FFF789FD0746A06802F0D5
:101DF00016F9A060002F05D03946543102D038467C
:101E000007B0F0BD0599896E496A002905DD0122F8
:101E1000491C1143FFF70AFCA0600020C043E660A4
:101E20002061A582A061E061A575E5750020E7E766
:101E3000FFB59FB01F460C460646856A20E028463F
:101E4000083084421BD0214602F005FD002816D13F
:101E5000A879012813D1286BC00210D5B16EE86AA9
:101E6000896A88420BD92946304601F001FC0028D6
:101E70007ED12946304601F0FFFA002878D12D683E
:101E8000002DDCD12022214617A8FEF794F900206E
:101E900005460290204618300C9029E02199E80070
:101EA0000A58AB4B110D4905994203D1A08A401C39
:101EB000A0821CE0A74B994205D1A08A401EA082B7
:101EC0000120029013E05100490F06290FD12199FA
:101ED00041184A681268A26149684968E16121991C
:101EE0000858C002C00FE0750C9802F0C4FC6D1CCD
:101EF000BD42D3DB0298002817D0A08A002814D155
:101F00006A462146304602F033FA050002D0A81C8A
:101F10007ED10AE06846C07D002806D02246694688
:101F2000304600F0A9FC050072D1A07D002802D146
:101F3000A08AFF286DD3182287490DA8FEF73BF928
:101F400020680D90E0680E9020690F90E068119075
:101F5000B16E886C002800D1C869083812900C98BE
:101F600002F09EFC0DA813A97C4A1396149000E081
:101F700079E000200390069002900891059004906B
:101F80002198009001970792214630462369E26824
:101F900001F018F905460C9802F06DFC002D33D1C4
:101FA000002009900A9031460B90303109A802F0C8
:101FB00037FC31463C3109A802F032FC3146483149
:101FC00009A802F02DFC0998800A8002099009A84E
:101FD00002F00BFC002811D109AA2146304600F07E
:101FE0008BFF050039D109A802F00BFC09AB5C4A54
:101FF0000DA9304600F0CAF8050005D10DA93046FC
:1020000000F018F9050009D028461C3015D001E071
:1020100023E012E0284654300FD01EE00E98E06016
:102020000F9820613046303007C833463C3307C331
:1020300049480C3807C807C317E00020C043306187
:10204000A18A0020029101903B460094214630462F
:10205000219A00F0E7F9050007D0202217A92046B1
:10206000FEF7A9F8284623B0F0BDB56A4BE0284634
:1020700008300190A04245D017A902F0ECFB0028DF
:1020800040D1202221460198FEF795F8002137E043
:102090002198CA008058334A84464000400D90423F
:1020A0000AD162461203AB88920D9A4204D10020F5
:1020B000C043A860E86022E02A4A90420DD16246FF
:1020C0001203930DAA88934207D2521EAA80A879C0
:1020D000022814D1A86A401E10E0224AFE3A90421B
:1020E0000DD160460003AA88800D904207D8521C8B
:1020F000AA80A879022802D1A86A401CA862491CBB
:10210000B942C5DB2D68002DB1D1B46A1CE0204670
:10211000083017A9074602F09EFB00280AD012E0FB
:10212000081AA0802A463946304600F0C9FB00282C
:1021300002D098E725462035A188A08B814202D3A2
:10214000E27F002AECD12468002CE0D100208AE74D
:10215000000020800000E09F8C57000869210008E3
:102160000CFCFF7FFF04000010B511C813460A469F
:10217000214600F00BF810BD10B50446084602F0E9
:10218000BBFB216840182060002010BDFFB589B05E
:102190001E4615460F46104602F0AEFB796804460F
:1021A00008197969884203D91B20C0430DB0F0BDDE
:1021B000680040080790B968484001F027FF049084
:1021C000042304AA3946099800F00EF90028EDD13D
:1021D000002D08DB231F32463946099800F004F928
:1021E0000028E3D121E00025201F06901BE0706845
:1021F0003168012205AB039240190293099A0091BC
:102200000190631B002110461B1FFFF777FB00287E
:10221000CCD1012305AA3946099800F0E5F8002839
:10222000C4D106986D1C8542E1D30798B8600020A0
:10223000BCE70000F3B58FB00F980D46806E816942
:1022400068680830FFF7F2F9044600260F980896F0
:1022500010300C9066E0001D211A06906048814203
:1022600000D2084606994718A74205D220460838EA
:10227000874200D2384607460020C04309902868AC
:1022800009AA0421029200900F9A0B46039101972C
:1022900000211046FFF732FB002802D001465431DE
:1022A0007ED1099801F0B2FEC043C00F0D90052108
:1022B0000005090740180699791A08434949084357
:1022C0000990A968484001F0A1FE0A9004220AA9D9
:1022D000E868FFF7C3FBE86002F024FB0B9003CD36
:1022E0000AAB6F460BC7082203920F9A00231046D1
:1022F000083D0C99FFF7B6FA002859D1002E03D1FA
:102300006E68E868361D089009986A688105890D2D
:10231000091D891869600D99C90741400020C04313
:10232000A960E8606868A04295D30F9A0023581E00
:102330000C99174610603846FFF75BFA002802D167
:10234000B86E01698847002832D12869069642E0B4
:1023500000210746C94306980991001D0A901EE016
:10236000B74203D10999089881421FD12A680BA866
:1023700001970290069800920121C31B0F9A0391C6
:10238000002110461B1DFFF7B9FA002810D10122C9
:102390000BA90998FFF762FB09907F1C0A9800E0DF
:1023A00006E08742DCD30998002803D05320C043BD
:1023B00011B0F0BD0698211A0948814200D20846A2
:1023C00006994018A04204D221460839884200D319
:1023D0000846011D0691A042BAD30020E8E700009C
:1023E000FE03000000FC0F007FB516460C4606CC2D
:1023F00000911D4603930192014602960023024676
:102400001031083CFFF72EFA002809D12A46314640
:10241000E068FFF723FBE06060684019606000201F
:1024200004B070BDFFB599B0054608680990239EB9
:1024300048680A900020249F0C900B90704200B2D4
:102440000C46189050E0189900200DAACA4B0D9028
:102450000691079308921C9AC84902910390059728
:102460001B980496019200230090DB43002228462B
:10247000229900F0A7FE002832D10E98FF2812DA28
:10248000A86E816C8269002900D1C1694808114693
:10249000FFF7CCF80146A86EC069243802F0CBF9EA
:1024A0000D99884224D20E980297C10F0818C003D4
:1024B000000C3018039080B22299009101902146BF
:1024C00028461C9B1B9A00F047FE00280AD00146B4
:1024D0001C3105D1A96E0D9AC9692439914207D2E0
:1024E0001DB0F0BD039887B2B81B0E900128AADC7E
:1024F000A068401CA060A96E496A002937DD01224E
:10250000491C1143FDF7ECFD002930D19C49886836
:10251000C9680491039003A9204602F09CF90028A1
:1025200002D001200B90C1E0284601F077FF00287F
:10253000D6DBA96E096A4908814218D991A000909A
:10254000CD22D20090A197A0A368FEF721F922988E
:102550006946C1C1214628461C9B1B9A00F0FCFD20
:10256000002803D001461C31BAD100E03746844927
:10257000182244310DA8FDF71EFE60680D90A96E6B
:10258000886C002800D1C869083812902846616814
:10259000FFF72CF900287DD1A06802F0C3F922468C
:1025A000A060042308320DA92846FFF71DFF009004
:1025B000A06801F034FDA0600098002803D05430DA
:1025C00074D000988CE70DA8179016A9814A16952B
:1025D00018980891079206901C9A68490020029169
:1025E000039005971B980496019200230090DB430B
:1025F00000222846229900F0E5FD002853D120460C
:102600001830019002F042F9002812D1019802F02E
:1026100047F9E07D7049000542180DA92846019B45
:10262000FFF7B4FD0090019802F025F9009800280A
:10263000C5D100201390149015900C98002809D152
:1026400029463C3113A802F0EBF82946303113A893
:1026500002F0E6F82946483113A802F0E1F8139891
:1026600013AA800A800213902146284600F044FCF9
:102670000028A7D113A802F0B8F800280DD113A89C
:1026800002F0BFF813AB554A0DA92846FFF77EFDAF
:10269000002801E007E009E005D10DA92846FFF771
:1026A000C9FD00280AD0014654318BD101200C907D
:1026B000801E28610B9800282FD037E003CC083CFF
:1026C00021606060B81BA0820E98E0602C4A0F98D1
:1026D0003832206107CA2B46483307C30C980028BC
:1026E00015D005CC0A99009126A301AE0DC63C4A2F
:1026F00025A13CA0083C099BFEF74AF8224609A9FF
:10270000284601F043FF0028B3D10020E8E6284620
:10271000303007C83C3507C5F7E71AA00090304AAB
:1027200019A1163A3DA06368FEF732F8144908690A
:1027300049690291019001A9204602F08CF8002815
:102740000ED0211D2846FEF779FF002805D001464E
:102750001C31DBD10B990029D8D000200B9006E763
:1027600008A000901E4A08A1113A35A06368FEF740
:102770000FF81B20C043B3E67921000800FC0F408E
:1027800024570008000000002E2E5C436F72655C29
:102790004C49425C6C6974746C6566735C6C6673FE
:1027A0002E63000025733A25643A64656275673AC2
:1027B00020457870616E64696E672073757065720C
:1027C000626C6F636B2061742072657620257525BD
:1027D000730A00006921000808FC0F600CFCFF7FF1
:1027E0001407000025733A25643A64656275673AF8
:1027F0002052656C6F636174696E67207B30782549
:10280000782C20307825787D202D3E207B3078254F
:10281000782C20307825787D25730A0025733A2599
:10282000643A64656275673A2042616420626C6F45
:10283000636B206174203078257825730A000000CE
:1028400025733A25643A7761726E3A205375706544
:1028500072626C6F636B203078257820686173201A
:102860006265636F6D6520756E7772697461626C05
:102870006525730A00000000FEB514460F460246A7
:1028800005464832214600F037FB002815D1204686
:102890001830064602F004F8E07D084900054018AB
:1028A000009001236A46394601962846FFF7C0FA90
:1028B0000446304601F0DFFF2046FEBD08FC0F60F5
:1028C0001FB50024631E019402940394009300F04A
:1028D00003F804B010BD0000FFB597B00646199884
:1028E0000C460168B06E0025006AED43814203D2B8
:1028F00019994968814203D35320C0431BB0F0BDEE
:1029000000200990089005900490049808A9800080
:102910004318199F06903858042200216F460392ED
:102920000BC7134632461046FEF7E8FF07460698E7
:1029300008A9085801F073FB0146069808AA11502F
:10294000002F04D03846543011D03846D6E70498CA
:10295000401CC20F121852085200801A820008A8A8
:1029600010180068081A002801DD049805900498E2
:10297000401C04900228C8DB0598C10F09184908BB
:102980004900401A810019980818006820600598CD
:10299000401CC20F121852085200801A8000199A67
:1029A000129080180068606008A808180068A0608D
:1029B0000020E0600F902046083011900027781E1C
:1029C0000690C4480E9703C810970D950591049082
:1029D000A06801F0A7FFA0600422501F1199FFF723
:1029E0003DF80C90A06801F01AFBA060069801F079
:1029F00083FF2168C719042007AA0197029200915A
:102A00000390B06E3246C36900211046FEF776FF90
:102A1000002803D0014654317AD06FE7042207A979
:102A20000C98FFF71BF80C90079801F0EFFA069945
:102A30004840C1170790491C0FD001F05DFFC11934
:102A4000B06EC0698446614562D807980690400020
:102A5000400F052826D004207AE0069801F05DFF9B
:102A600005210902884253D1B06E8169E068FDF703
:102A700037FB0029F7D10120A075E068002879D044
:102A8000304621463C3001F09EFE002809D0F06B14
:102A90000003810D2803800D81426CD10120C00705
:102AA0000543E4E004232068039313AA391D6B4611
:102AB00007C33246634600211046FEF71FFF002879
:102AC000A8D1139801F0ABFA0C99139081421FD151
:102AD00007980699000DC0074840069004220CA9EB
:102AE000F06AFEF7BBFFF0620D9D079801F004FF4E
:102AF000C019E060069820610E98A0820498A06139
:102B00000598E0611098E0750020C0430C906DE7D7
:102B100091E0391801232068039315AA6B4607C377
:102B2000B06E3246C36900211046FEF7E7FE00286A
:102B300006D00146543100D0E0E60020A0750FE039
:102B4000012215A90C98FEF789FF0C901398401CE0
:102B50001390079801F0D0FE014613988142D8D80F
:102B6000079841004A0F07D0490F04290CD00629C5
:102B70002AD041E094E073E000030E99800D884272
:102B80003AD3401C0E9037E001154AB20E99524BD1
:102B9000511889B20E910D991940504BC9188142B4
:102BA00003D10D98D90208430CE00D99491C23D09C
:102BB0000003810D0D980003800D81421CD80D98F3
:102BC000910208180D9017E0C002C00F1090082362
:102BD0002068039304AA391D6B4607C3B06E3246C2
:102BE000C36900211046FEF789FE002801D0543049
:102BF00021D004A801F03FFE1A9A0799209B1A9849
:102C00000A401840824282D120680090381D01900D
:102C1000229B6A4623989847002800DAFAE60CD0EF
:102C200007992F4B0D9A8C4619401A40914206D1B4
:102C30000020C04312E000201EE707980EE00228A3
:102C4000E1D160460003810D0D980003800D8142A3
:102C500000D9CBE601216046C90708430D90C5E6BF
:102C60006A1C04D0814202D2012080022D1A2198D0
:102C7000002806D02803800DA18A01F0DCFD2199EF
:102C80000880E817401C01D0284637E62803A18AAF
:102C9000800D884202D20120C0432FE600202DE69D
:102CA00003CC083C21606060129808A940180068B5
:102CB000A0600F98401C0F90022800DA7EE6606842
:102CC00008A101910090084A08A10FA02368FDF710
:102CD0005FFD11E62457000800FC0F000000F04FD4
:102CE00000FCFF7F000000002E0400002E2E5C433D
:102CF0006F72655C4C49425C6C6974746C65667398
:102D00005C6C66732E63000025733A25643A657225
:102D1000726F723A20436F727275707465642064CA
:102D200069722070616972206174207B3078257827
:102D30002C20307825787D25730A0000FFB58BB0F4
:102D40000D9805680E98002801D04B4901800B981A
:102D50004A4C016A0C9881610B98416A0C98C161D8
:102D60000C981830069046A12846FDF76FFA4619D0
:102D700043A13046FDF77AFA0546012802D0022D1C
:102D800003D009E001223FA101E002223EA130462A
:102D9000FDF746FA002864D077190120039038A186
:102DA0003846FDF753FAC01935A10090FDF75EFAD9
:102DB000070015D0022F06D1022233A10098FDF79B
:102DC0002FFA002805D00398401C03900098C719DB
:102DD000E5E70398401E0390F8D1009DAD1CC2E7C3
:102DE0003078002809D00D9806606000400D022858
:102DF00005D01320C0430FB0F0BD2046FBE7A00A6A
:102E0000012180058905C84210D02003800D1F498B
:102E100080024318069800901D4A0C990B9800F008
:102E200060F80028E7DB069801F025FD07AF2F21A9
:102E30003046FDF7E4F9002815D000200B990791E2
:102E400008960995134901AA009583C20F23DB0652
:102E5000069A0C990B98FFF73FFD0400CBD4002C89
:102E600003D075197FE70E98E8E70C98C07D00281D
:102E7000DDD1801EBFE70000FF03000000FC2F0033
:102E80002F0000002E0000002E2E00000800002061
:102E900000FC0F70992E0008F0B589050446890DD5
:102EA000076885B016460D46806801F0C4FC0346ED
:102EB00006CE60680192009102903A460393002189
:102EC0001046FEF768FC002805D1A068A84206D08D
:102ED000A84202D2012005B0F0BD0220FBE700208D
:102EE000F9E7FEB59E05B60D00246F46089D70C734
:102EF00000F09AF8FEBD00001FB5144601AA00922A
:102F00000F4A0F4B0C3AFFF7ECFF002802DA811C46
:102F100013D111E0801C0FD0019801F080F80190CE
:102F2000029801F07CF80290039801F078F8039081
:102F300001A9204601F074FC002004B010BD00007F
:102F40000C00F07FFFB585B0074612980390B86E6D
:102F5000119D139CC06929191E4681425FD95320D7
:102F6000C04309B0F0BD07992046002918D0096870
:102F7000891C15D10799079A496892688B18AB424A
:102F80000ED9A94208D8691A521A824200D81046AE
:102F900000900798C06814E0491B814200D8084699
:102FA0003168891C1AD1B26871688B18AB4215D987
:102FB000A94213D8691A521A824200D810460090CA
:102FC000F068009A41180398FDF7F5F80399009806
:102FD0000818039000982D18241A20E00120C043FF
:102FE0003060B86E41692846FEF71AFB7060B86E13
:102FF00041690E982818FEF719FBB96E896A01F02D
:103000001AFCB060F2687168019200910290384633
:10301000109B0F9A069900F007F80028A1DB002CFE
:10302000A1D100209DE70000FFB587B0CD680869F9
:1030300004900020059007980F463C3001F0C3FB38
:10304000099909038E0D002876D0002E74D00798B8
:10305000C06B0003810D0A980003800D81426BD87C
:103060003A48059068E0049801F046FC2D1A38684B
:1030700004AA04210292079A0B4603910090049C33
:10308000019500211046FEF739FC002852D1049822
:1030900000F0BCFF6040400040080490002E1CD0AF
:1030A000204601F03AFC014601208002814214D101
:1030B0002003810D059A0A98801A0203920D91420D
:1030C0000BD82349084023494018A0423AD0201584
:1030D00040B281020598081805900A9A0599099846
:1030E000511A099A20401140884225D1204601F00A
:1030F0000CFC002826D1A005800D129901F09BFB45
:103100003A68064610991198691800920290091DB4
:10311000079A01913346039600211046FEF7EEFB15
:10312000002807D11298811B11988019FDF75CF8CF
:10313000059820180BB0F0BD049801F0DDFB001DD0
:10314000A84290D90120C043F4E7000000FCFFFF33
:1031500000FC0F0000001040FFB58BB00546806EEC
:10316000169F159E006A0C46286603A92846FEF79E
:1031700018FE002824D1E07D08A9C870A069099034
:10318000E0690A9014986946C1C128460E9B0D9AC1
:10319000FFF748F9002813D10398A0610498E06173
:1031A0000120E07529462031204601F054FB00281B
:1031B00005D1002E03D1039828620498686200208C
:1031C0000FB0F0BDFFB58DB016460F46109801F058
:1031D00093FBF9688019884222D2109801F08CFB89
:1031E0003968042286191346039209A80D9A0091A2
:1031F0000290019600211046FEF780FB002878D14E
:10320000099800F003FF10990AAD48400121C90751
:103210000843099039680A91311D0B9110900CE018
:103220001798002864DD169800680990169845687C
:10323000083016901798401E179043481899199A0D
:1032400008400999014010408142BFD118980003FD
:10325000800D1FD0002009A9089117993B4A0690BC
:1032600007920590029003900490019116980090A7
:1032700032463946109B0D98FFF7A4FF002838DB33
:10328000A4D109981A990003800D88429ED31B99F6
:1032900088429BD2099841004A0D97D0490DCA1F18
:1032A000FA3A07D0010D812249059205914241D198
:1032B000002438E081050003890D800D441A1CA804
:1032C0000DC820184C1C059400B206AC0DC400209B
:1032D000012252071E4B0293039201900491009029
:1032E000431E024629460D98FFF76CFF29E000E0D7
:1032F000002011B0F0BD00031C99800D4018810220
:1033000020460C2250432A5C032312051B07D218C7
:103310001143401982681D9B114342681E989847CB
:103320000028E6D1641C09988105890DA14200D8C6
:103330004CE7E0E71C991D9B890209182A461E9854
:1033400098470028F4D0D4E70000F07F55330008F8
:1033500000FC0F6070B50546184E0C46C80001D53C
:10336000304600E016482968024622400840824262
:103370000DD0084601F0C9FA002808D1114A296881
:1033800020461140104A30408918884201D101205E
:1033900070BD204601F0C1FA0121890288420BD19B
:1033A0002003810D28680203920D914204D8211553
:1033B00049B2890208182860002070BD00FCFF7F18
:1033C00000FC0F7000FC0F000000F04F7CB50546BC
:1033D0000CA00C46009101902B460B4A0BA112A0A9
:1033E000FDF7D6F92146284600F055F9044605A018
:1033F000054A00902346521D04A115A0FDF7C8F907
:1034000020467CBD00000000061400002E2E5C4308
:103410006F72655C4C49425C6C6974746C65667370
:103420005C6C66732E63000025733A25643A7472EF
:103430006163653A206C66735F66696C655F636C97
:103440006F73652825702C2025702925730A0000CC
:1034500025733A25643A74726163653A206C667329
:103460005F66696C655F636C6F7365202D3E202518
:103470006425730A00000000F0B50746086B0C468F
:10348000354E97B0410306D5C10200D42664012110
:10349000890488432063216B88035BD5606BC90274
:1034A000054646D454222D4901A8FCF784FEA06AA3
:1034B0000B90E06A0C90606B0E900FCF119012A8E9
:1034C0000EC0103F13E001236A4601A9384600F000
:1034D00003FA00282BDB01236A462146384600F018
:1034E000FFFA002823DB3868401C01D011963E60AB
:1034F000E16A606B8842E6D3264640363A460123AD
:1035000031461046FEF775F9002817D001465431B0
:103510000DD113A00090134A13A11AA0A36BFDF7BD
:1035200037F92146384600F013FC0028E6D017B0E2
:10353000F0BDE16A884200D808466063A06BA062D3
:10354000606BE0620121206B490488434910084305
:10355000656320630020EAE7FFFFFFFFB057000824
:1035600000000000E60A00002E2E5C436F72655CCE
:103570004C49425C6C6974746C6566735C6C667310
:103580002E63000025733A25643A64656275673AD4
:103590002042616420626C6F636B2061742030781C
:1035A000257825730A000000F0B585B0074611A004
:1035B0001C4615460E4602930192009103903B462D
:1035C0000D4A0EA114A0FDF7E3F823461E4C384621
:1035D00031462A46009400F06BF8044605A0064ADE
:1035E00000902346921D05A118A0FDF7D1F82046B2
:1035F00005B0F0BD00000000E21300002E2E5C4379
:103600006F72655C4C49425C6C6974746C6566737E
:103610005C6C66732E63000025733A25643A7472FD
:103620006163653A206C66735F66696C655F6F7095
:10363000656E2825702C2025702C20222573222CC5
:103640002025782925730A00A457000825733A25F8
:10365000643A74726163653A206C66735F66696C84
:10366000655F6F70656E202D3E20256425730A000E
:1036700010B50C46496BE163816E096A016621460B
:1036800000F066FB002805D10121206B0905884365
:103690002063002010BD70B50D46064600F0C8F945
:1036A00004462946304601F0CAF8204670BD0000A5
:1036B000FFB589B00646129F1D460C46980704D5F3
:1036C000304600F0EDFD002875D100206063E06316
:1036D00027652563231DE064191D0BAA304601915F
:1036E000FFF72CFB002805DA811C7DD1A188724AE6
:1036F000914279D00121A171B16A2160B462811C2B
:1037000004D0A90531D51025ED43C5E0E80502D464
:103710000125ED43C0E00B98FCF77BFD0546232710
:10372000F06EFF43A8421ED3182102A8FCF75CFDEF
:10373000A0886249800208430290A088012180028B
:1037400028430905084304900B980590A0885C4D18
:10375000800228430690032302AA30460199FEF70F
:1037600067FB002825D03D4696E04000400D01282B
:1037700002D01425ED438FE0680509D5A08801210A
:1037800085024F4809040543206B0843206310E07D
:10379000274628370097A0884A49800243184A4A9A
:1037A00030460199FFF79DFB050075D43846FEF7BA
:1037B00080FA002736E079E0218EC9071DD04168E4
:1037C00038460C225043021D8A58009202460832A5
:1037D000085C8B580321000509074018A1883B4A63
:1037E00089020843034300E055E030460199FFF7A2
:1037F00078FB002801DA811C4DD1216B880710D598
:10380000206D0C2342683846584308301058726FB8
:10381000904202D91B25ED433EE001200004014304
:1038200021637F1C206D8168B942C5D800680028DB
:103830003ED02146E06440313046FEF702F9280DC3
:1038400023494005884235D1A9050120890DC0438F
:10385000E162A0620123226B1B051A4322632064EC
:1038600000206064B06E0029806AA06422D01249F2
:10387000491E00F0E0FFA188012289025207891841
:103880000843E16C034600910F4A30460199FFF767
:1038900028FB00280EDA05460121206BC9040843E5
:1038A000206321463046FFF7F6FE28460DB0F0BDF6
:1038B0000848BEE70020F9E7FF03000000001040C1
:1038C000000010200800002000FC0F7000FCFF7FAB
:1038D0000000204080090020FFB5086B87B01D461E
:1038E0000C461746800304D50798FFF7C5FD00284E
:1038F00004D1616BE06A814202D300200BB0F0BDBD
:10390000401AA84200D80546204640300A95069045
:1039100056E0206B410305D50799E26B896EC969B2
:103920008A421BD1C0020FD423463C33E06A1A1FDF
:103930006E46616B0FC6A36A0021069A0798FEF7D0
:1039400071F90028DAD104E00120C043A063606B64
:10395000E0630121206B8904084320630798806E8F
:10396000C369E06B1E1AAE4200D92E46216BC90214
:1039700012D5A188144A8902114303900291134879
:103980000596019000932146049700220831069B7A
:103990000798FFF7D7FA09E0A16B01900297009111
:1039A00003960021069A0798FDF7A8FF0028A5D1E5
:1039B000606BBF1980196063E06B8019AD1BE06319
:1039C000002DA6D10A9899E70000102000FCF7FF0F
:1039D000F8B54C6B15460E460746002B04D0012B5C
:1039E00004D0022B04D006E0144604E0A41802E040
:1039F00000F014F84419386FA04202D21520C043D9
:103A0000F8BD706BA04201D12046F8BD3146384662
:103A1000FFF732FD0028F8D17463F5E7086B8203E5
:103A2000C86A03D5496B814200D908467047000037
:103A3000F0B50746086B87B00C4600034BD43846F8
:103A4000FFF71AFD0126F60400283AD1206BC003C7
:103A500041D520460830009000F018FF00283AD1E8
:103A6000206BC00203D51D4DE16CE06A0EE01B4DDA
:103A7000E16AA06A6D1C0291019000F053FF019071
:103A8000029800F04FFF029001A90820A3882A05A0
:103A90009B021A43024303920491A188206D812264
:103AA000890252058068114308430590206D022366
:103AB0004068069003AA38460099FEF7B9F9002835
:103AC00004D0216B3143216307B0F0BD0121206B8D
:103AD0000904884320630020F6E70000010200008B
:103AE000FFB589B005460692086B0C9F0C46400353
:103AF00004D52846FFF7C0FC00280FD1216B08052C
:103B000004D5626BE06A824200D26063666B0C98F7
:103B10002A6F3018904203D91A20C0430DB0F0BD6F
:103B2000880312D4E06A86420FD960630BE000205C
:103B30006946087001236A4621462846FFF7D0FFF0
:103B40000028EBDB606BB042F1D3206BC102204652
:103B50003C300590001F04900830079000297FDA60
:103B6000606BE66AC019B04200D90646A86E816C47
:103B7000002900D1C169806AC90800F05CFE0146D5
:103B8000424800F058FE86426AD921462846FFF78F
:103B90006FFD002873D163E0206B810304D5AA6E0A
:103BA000E16BD269914234D1C10228D4800315D48B
:103BB000606B002812D0059AE36A049901AE401E9A
:103BC000009307C6A36A00212846079AFEF72AF841
:103BD000002854D128460799FDF733FFA86E6B469D
:103BE000006A2866606B059A049907C32A46A36B8E
:103BF00010460799FDF752FF002840D104E001204C
:103C0000C043A063606BE0630121206B490408435B
:103C10002063A86EE16BC069461ABE4200D93E46D9
:103C2000E26BA16B06980192029000912A46012353
:103C3000039610460799FDF715FE002803D00146AC
:103C4000543116D01BE0606B80196063E06B801903
:103C5000E063069880190690A86EBF1B006A28666C
:103C6000002F99D10120216BC004814321630C985E
:103C700054E72146284600F06BF80028D0D00122F6
:103C8000216BD2041143216348E70000FE030000CA
:103C9000F0B585B0074610A01C4615460E460293A7
:103CA0000192009103903B460C4A0DA113A0FCF732
:103CB0006FFD23462A4631463846FFF70DFE04467F
:103CC00005A0064A00902346921D05A117A0FCF707
:103CD0005FFD204605B0F0BD000000002714000085
:103CE0002E2E5C436F72655C4C49425C6C69747447
:103CF0006C6566735C6C66732E63000025733A25F1
:103D0000643A74726163653A206C66735F66696CCD
:103D1000655F726561642825702C2025702C202534
:103D2000702C2025752925730A00000025733A257B
:103D3000643A74726163653A206C66735F66696C9D
:103D4000655F72656164202D3E20256425730A003D
:103D5000F0B505468BB00846403008902846103034
:103D60000C4609AF079006A92846FDF767FC002816
:103D700063D128460699FDF739FD002832D1002687
:103D800040E0216BC90213D5A1882D4B0122890285
:103D90001943059202ABC2C32A49801B01910090CE
:103DA0002146002208312846089BFFF7CBF80AE09D
:103DB000A26B831B6846C4C0012103912A461046AA
:103DC0000899FDF79BFD002837D10120069903468D
:103DD00003906846C2C02A4610460799FDF742FD87
:103DE00000280ED00146543127D117A00090174A61
:103DF00017A11EA0069BFCF7CBFC0020C043286146
:103E0000B1E7761CE06BB042BBD8A86EE969826A64
:103E1000E06CFCF7D0F92869206468696064A869DF
:103E2000A06428460799FDF70CFE0698A0630121BF
:103E3000206B49040843206300200BB0F0BD000054
:103E40000000102000FCF7FF00000000970A0000AF
:103E50002E2E5C436F72655C4C49425C6C697474D5
:103E60006C6566735C6C66732E63000025733A257F
:103E7000643A64656275673A2042616420626C6FDF
:103E8000636B206174203078257825730A00000068
:103E90007CB505460FA00C46009101902B460E4ABA
:103EA0000EA115A0FCF774FC0023284621461A46F3
:103EB000FFF78EFD002800DB0020044605A0292224
:103EC00000902346D20105A115A0FCF761FC204615
:103ED0007CBD0000000000007C1400002E2E5C431E
:103EE0006F72655C4C49425C6C6974746C65667396
:103EF0005C6C66732E63000025733A25643A747215
:103F00006163653A206C66735F66696C655F7265B4
:103F100077696E642825702C2025702925730A0086
:103F200025733A25643A74726163653A206C66734E
:103F30005F66696C655F726577696E64202D3E20EF
:103F4000256425730A000000F0B585B0074610A06F
:103F50001C4615460E4602930192009103903B4683
:103F60000C4A0DA113A0FCF713FC23462A46314648
:103F70003846FFF7B5FD044605A0064A00902346E3
:103F8000921D05A117A0FCF703FC204605B0F0BD6B
:103F900000000000391400002E2E5C436F72655C37
:103FA0004C49425C6C6974746C6566735C6C6673D6
:103FB0002E63000025733A25643A74726163653A92
:103FC000206C66735F66696C655F777269746528DB
:103FD00025702C2025702C2025702C202575292556
:103FE000730A000025733A25643A74726163653A76
:103FF000206C66735F66696C655F777269746520B3
:104000002D3E20256425730A0000000001B50098AC
:10401000694600BA000AC9780002084308BD01B524
:10402000009869460002C978000A0906084308BDDD
:1040300030B504468DB03C3000F0BFFB002829D0DD
:10404000E06B616C0003800D13A20292009101905D
:10405000124A13A119A0236CFCF79AFB22464032A6
:1040600003A92046FEF72CFC002813D1E06B0022A8
:104070000003850D1D49204600F0A4F900200C9096
:104080001B49A80208430B9001230BAA03A9204651
:10409000FDF7CEFE0DB030BD00000000191000008D
:1040A0002E2E5C436F72655C4C49425C6C69747483
:1040B0006C6566735C6C66732E63000025733A252D
:1040C000643A64656275673A20466978696E67206C
:1040D0006D6F7665207B307825782C2030782578B8
:1040E0007D203078257825730A000000FF0300004A
:1040F0000000F04FF0B50546008EA1B080055AD003
:104100002022404904A8FCF756F80EAE0AAC6CE039
:10411000224610A92846FEF7D3FB00284BD108A859
:10412000C07900285CD118AA2146284600F0C2F8C0
:10413000002802DA811C3ED13FE0811C3DD00346BD
:10414000314A18A928460096FEF7CBFE002832DB3C
:104150000EA800F090FB0A990E98884203D10B99A3
:104160000F9888423CD00B990E98884203D10A9947
:104170000F98884234D00B9824A36F460F9A0E995B
:104180000FC7234A23A12AA00A9BFCF701FB0EA814
:1041900000F086FB36480CAA006B012341C204A93B
:1041A0002846083AFDF744FE07460EA800F063FBD8
:1041B000002F1AD0384621B0F0BD0B9813A1009003
:1041C000134A0191163A13A12AA00A9BFCF7E0FAC0
:1041D00010AA04A92846FEF74FFB002805D0EAE7FD
:1041E000202210A904A8FBF7E6FF204600F04EFBB2
:1041F00000288DD0288E404241B2284600F000F9B8
:10420000D9E70000A458000800FCFF7F0000000070
:10421000641000002E2E5C436F72655C4C49425C5A
:104220006C6974746C6566735C6C66732E630000F5
:1042300025733A25643A64656275673A2046697861
:10424000696E672068616C662D6F727068616E20A0
:104250007B307825782C20307825787D202D3E20E5
:104260007B307825782C20307825787D25730A00DE
:104270002457000825733A25643A64656275673AE5
:1042800020466978696E67206F727068616E207B66
:10429000307825782C20307825787D25730A000029
:1042A00010B50446FFF7C4FE002802D12046FFF7F0
:1042B00021FF10BDF7B5002788B0064601209761A1
:1042C000D0611046183014463D46049021E0B06E8F
:1042D000006A4008A84203D85320C0430BB0F0BD89
:1042E000099805960068069009980E49406807905D
:1042F00005A80D4A0092029103900C4B01972146AC
:1043000030466D1C049AFEF7E7FA002801D0811CA4
:10431000E4D1049800F0BAFA0028D8D00120C043B4
:10432000DCE700003143000808000020FF03F07FB5
:1043300030B587B0044606CA0068082304AD02956C
:10434000039301920091816E0246CB6901461031C0
:10435000FDF7D4FA002809D104A800F08CFA211D39
:1043600004A800F078FA002800D0012007B030BD82
:10437000F7B5074600209061012000261546144637
:104380001835D06115E0B86E006A4008B04202D816
:104390005320C043FEBD2846761C019900F05BFA0D
:1043A0000028F7D02A4621463846FEF789FA002829
:1043B000F0D1284600F06AFA0028E4D00120C0437A
:1043C000FEBD000070B50B4C036B0B4D2340A942A2
:1043D00003D00A4E8C02344300E0002423430363DD
:1043E000A94203D011684163516801E00021416393
:1043F000816370BDFF030080FF0300000000F04FE9
:10440000026B511801638A0500D00122D2074900CE
:1044100049080A43026300207047000008B50021E4
:104420000B4600916A46034900F006F8002800D1C7
:10443000009808BDB1470008FFB58FB00E46202296
:104440004E4903A8FBF7B7FE00200D9009A80BAF5B
:104450000E905DE0806E006A41080D98814203D89D
:104460005320C04313B0F0BD401C002403AD0D9099
:10447000A000401981691198B0470028F2D1641C4E
:10448000022CF5DB03A90E9A0F98FEF719FA002803
:10449000E8D1002537E03A48A9020B180097394ABD
:1044A00003A90F98FEF71DFD040003D5A01C28D01A
:1044B0002046D7E70BA8FDF7FCFB200D324940054D
:1044C00088420DD10C99009111980F9A0196029093
:1044D000002110460B9BFDF716FC0028C2D110E00E
:1044E000129900290DD001218907884209D10024A1
:1044F000A00039581198B0470028B3D1641C022C91
:10450000F6DB6D1CADB26846008CA842C3D80E988D
:1045100000F0BCF900280F989CD0846A29E0A079AB
:10452000012825D1206BC1030FD5C0020DD4E16A4B
:104530000091119802900F9A01962146A36A40318A
:104540001046FDF7E0FB00288CD1206B81030FD5CE
:10455000C0020DD4616B0091119802900F9A0196E0
:104560002146A36B40311046FDF7CDFB0028A0D1BA
:104570002468002CD3D1002074E700008458000880
:104580000800002000FC0F7000004040F7B5014615
:1045900090B0054616462031119800F05CF90028CD
:1045A00003D13068286270686862AC6A19E02146FD
:1045B0000831119800F04FF9002803D13068A0604D
:1045C0007068E060A07902280AD121462C31119848
:1045D00000F041F9002803D13068E0627068206380
:1045E0002468002CE3D103AA28461199FFF762FE44
:1045F0000446284630300B90002C02DAA01C7DD1F6
:104600004EE0A01C4CD001212846FFF7F9FE0028FF
:1046100075D14B4F03A90B9800F0D5F800281AD09C
:10462000286B48A10003870D0498029100903F2257
:104630000197920144A14BA0039BFCF7A9F800222B
:104640003F492846FFF7BEFE2003800DB84202D93D
:1046500001208002241A304600F022F900200C903C
:104660000D900E900F903648874203D04D49B80206
:10467000084300E000200C9002230CAA03A90F9627
:104680000E942846FDF7D4FB0446304600F0F3F8BC
:10469000002C50D1611E2846FFF7B2FE00284BD1F6
:1046A00003AA28461199FFF763FE002802D0811C57
:1046B00042D143E0224F03A93C460B9800F083F817
:1046C000002812D0286B1FA10003840D04980291CA
:1046D00000900194344A1CA122A0039BFCF758F8D7
:1046E000002239462846FFF76DFE304600F0D8F824
:1046F00000200C900D900E900F9001E01BE01BE04D
:10470000BC4203D02749A002084300E000200C90DF
:1047100008A8C0782549000540180E9002230CAA6D
:1047200003A90F962846FDF783FB0446304600F0A8
:10473000A2F8002C02D0204613B0F0BD0020FBE709
:10474000FF030000000000002E2E5C436F72655CCA
:104750004C49425C6C6974746C6566735C6C66731E
:104760002E63000025733A25643A64656275673AE2
:1047700020466978696E67206D6F76652077686975
:104780006C652072656C6F636174696E67207B3045
:104790007825782C20307825787D20307825780A87
:1047A00025730A000000F04FE70F000008FC0F60BF
:1047B0000168491C01600020704700684000400FFC
:1047C00000D00120704770B504460D46006800F027
:1047D000A4F8002805D02946201D00F03CF8002848
:1047E00001D0002070BD012070BD00218A008258D8
:1047F000002A01D000207047491C0329F6DB012064
:10480000704710B50446006800F08CF820606068BE
:1048100000F088F86060A06800F084F8A06010BD27
:1048200030B500229300C458CD58521C6C40C4507F
:10483000032AF7DB30BD884200D308467047283092
:1048400005E08A4202D11168016070471046026893
:10485000002AF6D1704703680A68934209D040687D
:104860004968884205D08B4203D0904201D0012094
:1048700070470020704710B504460068FFF7CFFB73
:1048800020606068FFF7CBFB606010BD0168491CC9
:1048900004D04068401C01D00020704701207047C0
:1048A00010B50446006800F03DF82060606800F034
:1048B00039F8606010BD00000B4B42081A40801AA6
:1048C0000849024680080A400840101801090818E3
:1048D00006490840010A0818010C08188006800ED5
:1048E0007047000033333333555555550F0F0F0FB5
:1048F00010B5FDF754FA10BD10B5044600F005F8E8
:1049000000198005800D001D10BD80058015401C1C
:1049100001D00020704701207047000D07210902D7
:104920000840704710B5FFF77AFB10BD38B5044654
:104930000BA0009023460B4A0BA112A0FBF728FF07
:104940002046FFF7D5FF044605A0064A00902346FF
:10495000121D05A113A0FBF71BFF204638BD000068
:1049600000000000741300002E2E5C436F72655C23
:104970004C49425C6C6974746C6566735C6C6673FC
:104980002E63000025733A25643A74726163653AB8
:10499000206C66735F756E6D6F756E742825702957
:1049A00025730A0025733A25643A74726163653A87
:1049B000206C66735F756E6D6F756E74202D3E2072
:1049C000256425730A00000008B5FCF7B7FD00F068
:1049D0004DFB824E0221307A09250843307280490E
:1049E000B06808404B2189034018ED06B060296883
:1049F0000320000681432960296801221206114321
:104A00002960A9688143A960A9680143A96030466B
:104A100001210C30417000F02BF91F20C00200F082
:104A20008BF900F0EFF81F2000F086F900F0EAF8AB
:104A30006C4800F081F96C4800F084F900F0E2F86D
:104A4000012000F097F90027684C3846276067601E
:104A5000FBF7F8FD00F0F4F8009000F0FDF80246D6
:104A600000210846009BFBF77CFF00F0E9F800906E
:104A700000F0F2F801465EA0009AFBF789FE61E0C3
:104A80002088C005C00DFF280BD95BA0FBF780FE76
:104A90001020A86127606068401C60600002FBF77E
:104AA000D1FD0020FBF70CFD504908390870208823
:104AB000C005C00D401C2060C005C00DFF280CD9EA
:104AC0004DA06168FBF764FE1020A8612760606854
:104AD000401C60600002FBF7B5FD0020FBF7F0FC16
:104AE0004249083948702088C005C00D401C20602C
:104AF000C005C00DFF280CD93FA06168FBF748FE38
:104B00001020A86127606068401C60600002FBF70D
:104B100099FD0020FBF7D4FC22880106D20533481A
:104B2000D20D521C083822600278C90ED3080370D7
:104B30004278920842708170D802520110430843B3
:104B4000FBF702FF6168F5299AD30020FBF7F8FE16
:104B5000307AC1073DD04008400030721F480C3009
:104B600001880904090E80291FD04900417000887E
:104B70000004000E00F0B4FA092000F061FA174CAE
:104B80001C346062082000F05BFA20621748401F66
:104B90004178142919D203780122D21A1206120E72
:104BA0000270174A03D0AA6102E00121DEE7AA627F
:104BB000491CC9B241700A2904D1296803200006A2
:104BC000814329602868286003E029698770296982
:104BD000C170FCF75FFA00F0F5F8B9E7480400206F
:104BE000FF0FC0FFFFFF0000E85300080004002093
:104BF0002F25642C25642C0025642F6E00000000F6
:104C00000010000010B500F01BF8034600F024F877
:104C1000024600210846FBF7A4FE00F01DF80146FD
:104C200000F00EF8054C41432088FBF724FE0020DD
:104C3000FBF72EFE0020E073207410BDC009002099
:104C40000448C07C002803D0022801D0822070478D
:104C5000A1207047C00900200448C07C002803D070
:104C6000022801D0A120704782207047C00900208F
:104C700070B52F4841690122520411434161C514A6
:104C80000924E406A5610015A0614010A061216817
:104C90000320800581432160216852011143216076
:104CA000216882109143216021686A0211432160CA
:104CB00021680211914321602168EA0111432160BA
:104CC000226881118A43226022686B011A432260A4
:104CD000A2688243A260A2680243A260A2688243E3
:104CE000A260A2680243A260A2688243A260A26896
:104CF0000243A260A0688843A060A0680843A06047
:104D0000A562FF26F5363046FBF7C8FBA5613046A5
:104D1000FBF7C4FB074D062403E02888AD1CFBF716
:104D2000B7FD2046641EE4B20028F6D170BD000035
:104D30000010024004590008014908807047000033
:104D4000C009002010B50446014607220848FBF7B9
:104D500032FA074A083A107A00195060907A117BAB
:104D600040185074D07A517B4018907410BD0000E8
:104D7000C809002010B50B490024C874012804D0CC
:104D8000022804D0032805D103E0602402E0C024F7
:104D900000E0A0243620FBF77BFDE01DF930FBF797
:104DA00077FD10BDC0090020044801680902090A06
:104DB000016001200249C0060860704718E400E065
:104DC00000E100E070B51A481A4C027821780026FC
:104DD000002A09D0490606D02670174B4168627830
:104DE0005A54491C416070BD1148401C00780007AE
:104DF000F9D54806F7D0114D26702888C005C00D9A
:104E0000FF280CD909211020C9068861FBF76CFC2A
:104E10002E606868401C68600002FBF773FC6078D5
:104E2000FBF74EFB2888C005C00D401C286070BDF4
:104E30000C04002054090020000000200004002081
:104E400010B517480078012823D002280DD0032878
:104E50000ED004280FD0052810D0062811D007281E
:104E600012D00A2815D0002010BD00210DA00DE0A1
:104E700001210FA00AE0012110A007E0012112A0EA
:104E800004E0012114A001E0012117A000F04CFA78
:104E900004E0FCF761F818A0FBF77AFC012010BDD4
:104EA0000E04002020202A68656C702A0000000093
:104EB00020202A73797374656D2A000020202A77D8
:104EC0003235712A0000000020202A70726F67724C
:104ED000616D5F6F6E2A000020202A6D7966696C13
:104EE000652E726561642A0020202A6D7966696CDE
:104EF000652E7772697465002D2D2D2D2D2D2D2D8C
:104F00002D2D2D2D2D2D2D2D2D2D2D2D2D2D2D2DD1
:104F10002D2D2D2D2D2D2D2D2D2D2D2D2D2D2D2DC1
:104F20002D2D2D2D2D2D2D0A0000000070B5324D98
:104F30002978012914D0314802291AD003291BD01D
:104F400004291CD005291DD000262D4C06291CD073
:104F5000072920D0152949D0A81E8660002070BDE1
:104F6000002128A000F0E0F9FBF782FBFBF7A2FB91
:104F700040E0016826A03BE0416828A038E0C16815
:104F800029A035E001692AA032E02660304666603B
:104F9000FBF758FB2EE0062028702088C005C00DC6
:104FA000FF2814D9002117A000F0BEF91020092114
:104FB000C906886126606068401C60600002FBF7DB
:104FC00041FB6068FA2815D30720287012E0FBF730
:104FD000C3FF0020FBF774FAC1B217A0FBF7D8FBA0
:104FE0002088C005C00D401C206003E0002105A002
:104FF00000F09AF9012070BD0E0400208C040020FE
:10500000000400202020202D2D2D2D2D2D0000000E
:10501000202049445F4D616E750000002020494406
:105020005F64657669636500202052656731000022
:1050300020205265673200002F25782F00000000E5
:10504000012102E0401EC0B249000028FAD1064802
:105050008162816804221143816001684907FCD59F
:1050600001484030006870470024014010B5FCF74B
:1050700081FA00F001F810BDF0B587B0182168463C
:10508000FBF7B2F800240120C00301250326039496
:105090006A46049461C209206946C006FBF791F98B
:1050A000082003946A46049461C20C4F694638464E
:1050B000FBF787F9102003946A46049461C269469D
:1050C0003846FBF77EF9202003946A46049461C2B7
:1050D00069463846FBF775F907B0F0BD0004004893
:1050E000F0B50D4920228A6208238B628B618B62A6
:1050F0008A614E0109258022ED0610248C6210423F
:1051000001D0AE6100E0AE628C615208012AF5D890
:105110008B628B618B62F0BD000400480D490A6808
:1051200040239A430A6008220A60082802D0042813
:1051300002D002E0072200E00322100248604A6821
:10514000042002434A600A6802430A600868184360
:10515000086070470030014010B504460349C0B2F2
:1051600008810120FBF79AF9204610BD2038014044
:105170000F48C16982151143C1610E48016880233F
:105180000902090AC2061143016001210A4AC80442
:1051900010600A4802681A43026004228262A52253
:1051A000C26202680A430260C2680A43C260704772
:1051B0000010024010E400E000E100E000200040A8
:1051C000F0B52548002606702449254D1FE0A200B1
:1051D0008B5C9B078B5816D50C27FB410127BF051D
:1051E000DB191427FB411F058B509C469B02BF0D0A
:1051F0009B0D9F4209D963462B408B508B5C012746
:105200003B438B5401E02B408B50641C04700478AA
:10521000032CDCD30670134917E0A2008B5C9E07B9
:1052200017D58E583705BF0D08D00C23DE4101235A
:105230009B05F31A1426F3418B5004E0FD263340FE
:10524000012633438B54641C04700478022CE4D38D
:10525000F0BD8B582B40EFE7540400204804002099
:1052600003F0FFFFE80300200F48022201791143F9
:1052700001710E4A41681140FF31913141600C4883
:1052800081880C4802785206520E1218517001782B
:105290004906490E491C01704906490E142901D9D5
:1052A0000021017070470000E803002003F0FFFFB9
:1052B00020380140540900200B4801784906490E66
:1052C000491C4A060170520E0021142A00D90170AF
:1052D00002785206520E12185278002A02D0034861
:1052E0000281704701707047690900202038014031
:1052F00030B50B4A002111700A4B0CE0CC186478D1
:10530000002C04D0455CAC4203D0002030BD01200D
:1053100030BD491C1170C9B21429EFD330BD000053
:10532000540400205409002030B585B00C460546D1
:10533000142229496846FAF73EFF002C05DB0A21B2
:105340002046FAF7E3FE303103910A2C08DB0A21EC
:105350002046FAF7DBFE0A21FAF7D8FE3031029137
:10536000642C08DB64212046FAF7D0FE0A21FAF704
:10537000CDFE303101917D21C9008C4207DB2046F2
:10538000FAF7C4FE0A21FAF7C1FE30310091FBF7AB
:10539000E3FD124C2946601CFAF74FFF104800212C
:1053A000017001E0521C0270027813195B78002B27
:1053B000F8D10078009A00194270019A8270029A1E
:1053C000C270039A02710A224271817105496078A4
:1053D000088105B030BD00001057000869090020A1
:1053E00054040020203801400720050801009F00D8
:1053F0000000000000005F00000007000700147FAD
:10540000147F14242A7F2A124C2C106864364955C4
:1054100022500005030000001C2241000041221C14
:105420000014083E081408083E0808000050300028
:105430001010101010006060000020100804023EE0
:105440005149453E00427F40004261514946214159
:10545000454B311814127F1027454545393C4A49C0
:105460004930017109050336494949360649492938
:105470001E00363600000056360000081422410097
:1054800014141414140041221408020151090632A4
:105490004979413E7E1111117E7F494949363E418D
:1054A0004141227F4141221C7F494949417F0909ED
:1054B00009013E4149497A7F0808087F00417F4140
:1054C000002040413F017F081422417F404040407E
:1054D0007F020C027F7F0408107F3E4141413E7FE6
:1054E000090909063E4151215E7F091929464649AD
:1054F00049493101017F01013F4040403F1F2040A9
:10550000201F3F4038403F631408146307087008A9
:10551000076151494543007F4141000204081020C2
:105520000041417F0004020102044040404040002D
:105530000102040020545454787F484444383844CD
:10554000444420384444487F3854545418087E0951
:1055500001020C5252523E7F0804047800447D4000
:10556000002040443D007F1028440000417F40005F
:105570007C041804787C0804047838444444387C5B
:1055800014141408081414187C7C080404084854E3
:10559000545420043F4440203C4040207C1C204088
:1055A000201C3C4030403C44281028440C505050B3
:1055B0003C4464544C44000836410000007F000025
:1055C00000413608000804081008FFFFFFFFFF7CB9
:1055D0001211127C7F494949317F494949367F017F
:1055E000010101603F213F607F4949494177087FC0
:1055F000087722414949367F1008047F7E1009044C
:105600007E7F08142241403E01017F7F020C027F11
:105610007F0808087F3E4141413E7F0101017F7FB5
:10562000090909063E4141412201017F0101074864
:1056300048483F0E117F110E63140814633F202069
:105640003F60070808087F7F407E407F3F203F2063
:105650007F017F4848307F4830007F007F484830D6
:10566000224149493E7F083E413E462919097F2093
:10567000545454783C4A4A4A317C545428007C049F
:10568000040C00603C243C6038545454186C107C6A
:10569000106C00445454287C2010087C7C21120992
:1056A0007C7C10284400403804047C7C0810087C72
:1056B0007C1010107C38444444387C0404047C7C06
:1056C00014141408384444440004047C04040C50AA
:1056D00050503C08147C140844281028443C2020D6
:1056E0003C600C1010107C7C407C407C3C203C20BA
:1056F0007C047C5050207C5020007C007C5050204A
:1057000028445454387C10384438485434147C00AD
:105710002000000020000000200000002000000009
:1057200000000000FFFFFFFFFFFFFFFF0000000081
:1057300001000000000000000100000008FC0F60F4
:105740000000000008FC0F600000000000000000E6
:105750000100000008FC0F600000000000000000D5
:105760000000000000000000000000000000000039
:10577000FFFFFFFFFFFFFFFF000000000000000031
:105780000000000000000000000000000000000019
:105790000000000000000000FFFFFFFF000000000D
:1057A00000000000000000000000000000000000F9
:1057B00000000000000000000000000000000000E9
:1057C00000000000000000000000000000000000D9
:1057D00000000000000000000000000000000000C9
:1057E00001000000000000000000000000000000B8
:1057F00000000000000000000000000000000000A9
:105800000000000000000000000000000000000098
:105810000000000000000000000000000000000088
:105820000000000000000000000002000000000076
:105830000000000000000000000000000000000068
:1058400000001040000000000800F00F1059000890
:105850001800102000000000000000000000000000
:105860000000000000000000000000000000000038
:1058700000000000010000000000000010590008B6
:105880000800000000000000000000000000000010
:105890000000000000000000000000000000000008
:1058A00001000000000000000000000000000000F7
:1058B00000000000000000000000000100000000E7
:1058C00001000000000000006410B71DC8206E3BFE
:1058D000AC30D9269041DC76F4516B6B5861B24DF7
:1058E0003C7105502083B8ED44930FF0E8A3D6D661
:1058F0008CB361CBB0C2649BD4D2D38678E20AA0C9
:105900001CF2BDBD11003A00050129002000130062
:105910006C6974746C656673000000003C59000883
:105920000000002048040000D4020008A859000824
:10593000480400209009000034080008004BFF488C
:10594000692C427564792120696620796F7520671A
:1059500065742074686973204D6573736167652E83
:105960002E2E2E2E2E436F6E67726174756C6174CD
:10597000696F6E7321596F75206861766520737544
:1059800063636565646564212101FF01FF01E02F08
:1059900001800040002000100008000400024401C3
:0859A0000001920463127A0079
:04000005080000B13E
:00000001FF
