:020000040800F2
:1000000048090020C5000008990600087D05000881
:1000100000000000000000000000000000000000E0
:10002000000000000000000000000000C9060008F9
:1000300000000000000000009B0600080307000805
:10004000D700000800000000D7000008D700000813
:10005000D7000008D7000008D7000008D700000824
:1000600000000000D700000815040008D7000008B1
:10007000D7000008D7000008D700000800000000E3
:10008000D700000800000000000000001107000871
:1000900000000000D7000008D7000008D7000008C3
:1000A00000000000D7000008000000002907000839
:1000B0000348854600F010F900480047191B000866
:1000C000480900200448804704480047FEE7FEE74F
:1000D000FEE7FEE7FEE7FEE70F070008B1000008B5
:1000E00030B50B46014600202022012409E00D46D0
:1000F000D5409D4205D31D469540491B2546954058
:1001000040191546521E002DF1DC30BD70B500249B
:100110002546002801DA01244042002901DA0125A0
:100120004942FFF7DDFFAC4200D04042002C00D036
:10013000494270BDF0B51FB40646002082B00546A6
:100140004024019100901BE0019922460F46304661
:1001500000F020F8049A059B801A994110D31046AC
:100160001946224600F06FF8361A8F410197224651
:1001700001200021009F00F066F838184D410090E2
:100180002046641E0028DFDC019B00982946324689
:1001900007B0F0BD10B5202A04DB0846203AD04055
:1001A000002110BD0B46D340D0402024A21A91401C
:1001B0000843194610BDD2B201E00270401C491E2E
:1001C000FBD270470022F6E710B513460A460446F4
:1001D0001946FFF7F0FF204610BD30B505462A4608
:1001E0000B4610781C78521C5B1C002801D0A042E2
:1001F000F7D0002C03D0002802D06D1CEFE7284672
:1002000030BD421C0178401C0029FBD1801A704788
:1002100010B5002200E0521C835C8C5CA34201D12B
:10022000002BF8D1D8B2E1B2401A10BD70B5064625
:1002300000F02AFC046805460A220021304600F03E
:1002400013F82C6070BD10B5202A04DB0146203A5B
:100250009140002010BD914020239C1A0346E340AA
:100260001943904010BD0000F7B5009C0F460026D2
:100270002578641C002D05D000F040F80068405D32
:10028000C007F5D12B2D02D02D2D18D0641E394674
:100290002046029A00F036F8002F04D03968A142B7
:1002A00001D1009939607105022400290BDA40421E
:1002B000002803DD00F0E8FB0460A007FEBD01207C
:1002C00080020643E3E70028F8DA00F0DDFB046073
:1002D0000048FEBDFFFFFF7F064C0125064E05E0EE
:1002E000E36807CC2B430C3C98471034B442F7D357
:1002F000FFF7E2FEC8320008E83200080048704705
:1003000034320008F7B582B0029C00272078641CC4
:1003100015460197302802D0002D15D015E0207821
:100320000127641C782804D0582802D0002D09D059
:100330000BE0002D01D0102D07D1002710252078CB
:10034000641C02E0082500E00A250026009610E063
:100350000099012769430818020C294680B27143AD
:1003600000908E183804864201D301200190207835
:10037000641C294600F019F80028E9DA03980028DF
:1003800005D0002F01D0641E00E0029C046001989B
:10039000002806D000F078FB02210160C81E05B0DD
:1003A000F0BD009930040843F9E73A2800D230380C
:1003B000202302469A43412A01D310463738884207
:1003C00001D30020C04370470E48017B0222114335
:1003D0000173C1680C4A1140192252038918C16087
:1003E0000A4801790122114301714168084A11400C
:1003F0000F2292038918416001790422114301718F
:100400007047000064000020FF0FC0FFB400002010
:10041000FF1F80FF7047000010B50B48027D0221CE
:100420000A4302754369094A7D241340E4031B19FA
:100430004361037E0B430376816911401922520305
:100440008918816110BD000064000020FF0FC0FF0B
:1004500070B50C4C6079410613D5BF21084060711E
:10046000094D0120287020888105890D07A000F022
:10047000D9FA20680003810D06A000F0D3FA00200D
:10048000287070BD0C00002000000020313A253299
:1004900064230000323A2532642300000948017DBC
:1004A000C90706D0017D49084900017506490022A7
:1004B0000A70017EC90703D0017E49084900017610
:1004C000704700006400002000000020024881689E
:1004D00002788918816070473400002010B5064802
:1004E0000168102211430160002000F007F800F0BD
:1004F00027F8002010BD00000020024070B504461F
:100500000D4D7D202978C000FFF7EAFD01460B481C
:100510000068FFF7E5FD00F019F8002809D1042C68
:1005200007D200222146401E00F00BF800206C602C
:1005300070BD012070BD000034000020400000208C
:10054000704710B500F07EFA10BD0000094910B5E3
:10055000401E884201D9012010BD074C6061032173
:10056000081F00F06FFA0020A06107202061002022
:1005700010BD0000FFFFFF0000E000E010B502A08A
:1005800000F050FA10BD0000486172644661756C5D
:10059000745F48616E646C65720A0000F0B50024F7
:1005A0004DE00123A3401A4048D04B68012B01D0F5
:1005B000022B10D18E688568134653435F00DF1904
:1005C000BD4373431D438560CD680B6846689E43F9
:1005D0006B431E4346600F69C668134653435D0074
:1005E0005D19AE435F433E43C6604E68022E1FD185
:1005F000FF2A0ED817464A69066A94461A467A4375
:100600007A431701BF1ABE4367467A431643066210
:100610000EE0160A324672434F6972437243BC467B
:100620001601B71A466ABE4367467A4316434662C6
:100630004A6806685343AE431E430660641C0A685A
:100640001346E340ADD10020F0BD000010B57D2180
:10065000C900FFF745FD0449401E4861002088613C
:100660000520086110BD000000E000E001490860BD
:10067000704700004000002008B506490A69009252
:10068000421C00D0401C0A69D20300D5401E00283D
:10069000F9D108BD00E000E0FEE77047010702095C
:1006A000080D08491043C8608A681206FCD48A689D
:1006B000D20700D0C86802070004010E100E0843DC
:1006C00070470000003001407047FFB581B01E4602
:1006D000002511E001980024471909E00A9882B228
:1006E00002980019C1B2F8B201F0CEFA641CE4B26B
:1006F000B442F3DB6D1CEDB203988542EADB05B032
:10070000F0BD10B5FFF7E2FE01F0DEFF10BD70474F
:1007100010B50448016949084900016102F032F846
:1007200010BD00000020004010B50948C16949060D
:1007300003D5016A402211430162C069800606D5D3
:1007400002F088F80248203080880249087010BD05
:100750000038014014000020F0B5234887B001683C
:1007600049084900016021498A6901239B031A4312
:100770008A6181688022114381600168120291437D
:1007800001600168082631430160016804242143A7
:1007900001601749C16001680125294301600168B2
:1007A00020221143016018216846FFF70BFD0094D9
:1007B0000320029000240227092001970394694630
:1007C000C00605950494FFF7E9FE03200290009609
:1007D000092003946946019705950494C006FFF724
:1007E000DDFE07B0F0BD00000038014000100240FF
:1007F000E204000070B510250924E406A562062075
:10080000FFF74CFFA56170BD70B500030E4C010CE5
:100810002170010A6170A070FFF7ECFF00F08AF808
:1008200010250926F606B5622020FFF737FF20784D
:10083000FFF734FF6078FFF731FFA078FFF72EFF56
:10084000B56100F077F870BD15000020F7B51026EF
:100850000927FF0615460C46BE620320FFF71EFF60
:100860002002000EFFF71AFF2004000EFFF716FF0C
:10087000E0B2FFF713FF002406E00020FFF70EFFB1
:1008800000990855641CA4B2AC42F6D3BE61FEBD0B
:1008900010B5044610200921C90688620320FFF71D
:1008A000FDFE2002000EFFF7F9FE2004000EFFF708
:1008B000F5FEE0B2FFF7F2FE10BD000070B50420B7
:1008C00001F07EFE10240925ED06AC629020FFF7B2
:1008D000E5FE0020FFF7E2FE0020FFF7DFFE00202C
:1008E000FFF7DCFE0020FFF7D9FE044E3060002049
:1008F000FFF7D4FE7060AC6170BD0000EC0000201A
:1009000070B510240925ED06AC620520FFF7C6FE80
:100910000020FFF7C3FE064EF060AC61AC623520EC
:10092000FFF7BCFE0020FFF7B9FE3061AC6170BD7F
:10093000EC00002010B5FFF7E3FF044C01E0FFF7E7
:10094000DFFF207BC007FAD110BD0000EC000020C3
:10095000F7B515460C46FFF74DFF10260927FF0691
:10096000BE620220FFF79AFE2002000EFFF796FEFD
:100970002004000EFFF792FEE0B2FFF78FFE002486
:1009800005E00098005DFFF789FE641CA4B2AC424C
:10099000F7D3BE61FFF7CEFFFEBD10B50446FFF7EB
:1009A00029FF10200921C90688620220FFF776FE80
:1009B0002002000EFFF772FE2004000EFFF76EFE0D
:1009C000E0B2FFF76BFE10BDF0B587B018216846A6
:1009D000FFF7F8FB03200025092610240127F6065F
:1009E0000290039569460197049500943046FFF7FD
:1009F000D5FD032002900395694601970495009464
:100A00003046FFF7CBFD032002900395694601971E
:100A1000049500943046FFF7C1FDB461B461B46140
:100A200007B0F0BD0FB410B503A9044B044A0298F7
:100A300000F0CAF810BC08BC04B01847F91200084E
:100A4000440000208307FF22DB0E9A408907090E2D
:100A50009940002808DB830809489B001B18186888
:100A600090430843186070470007000F0838830858
:100A700004489B001B18D86990430843D86170470D
:100A800000E400E000ED00E000487047480000206E
:100A900002E008C8121F08C1002AFAD17047704747
:100AA000002001E001C1121F002AFBD1704730B5C0
:100AB00014460D4600F016F8280AFF30013000F009
:100AC00011F8E8B2FF30013000F00CF8200AFF30D6
:100AD000013000F007F8E0B2FF30013000F002F81A
:100AE00030BD000070B50125AD020922D206956225
:100AF000264C274B2188014201D0936100E093628C
:100B0000FF210131916191626688064201D09361B3
:100B100000E0936291619162A688064201D09361E0
:100B200000E0936291619162E688064201D0936190
:100B300000E09362916191622689064201D093613F
:100B400000E09362916191626689064201D09361EF
:100B500000E0936291619162A689064201D093619F
:100B600000E0936291619162E689064201D093614F
:100B700000E0936291619162248A044201D0936102
:100B800000E0936291619162956170BD1E0000204A
:100B90000002000000B5FFF7A5FF00BD30B50C4610
:100BA0008118491E8AB201461D462A20FFF77FFFA1
:100BB0006019401E82B221462B20FFF778FF2C20BF
:100BC000FFF790FF30BD0000FFB591B00F4605461E
:100BD000002606E025280AD0149A139990476D1C28
:100BE000761C28780028F5D1304615B0F0BD0024D9
:100BF00000940121F34A029400E004436D1C2B7819
:100C00000846203B98401042F7D128782A280ED079
:100C1000022128780246303A092A15D8009A0A2378
:100C20005A43303A80180C436D1C0090F1E701CF15
:100C30000090002805DA0120400304430098404258
:100C40000090022004436D1C28782E2815D1042022
:100C5000044368786D1C2A280AD101CF6D1C0290CC
:100C60000BE002990A225143303940186D1C029062
:100C70002878014630390929F3D928786C2810D012
:100C800006DC4C281AD068280ED06A2817D104E058
:100C9000742813D07A2812D110E0012040050443B3
:100CA0000CE00121090501E0032109050C436978E5
:100CB000814203D10120000524186D1C6D1C287889
:100CC00003906E281ED00CDC632831D004DC002891
:100CD0008AD0582811D1B2E064287BD069280CD181
:100CE00078E073282DD004DC6F2870D0702804D1F0
:100CF000A7E075286CD078286BD0149A1399904788
:100D0000761C62E06002400F022807D003280AD058
:100D1000042838680AD006603F1D56E03868F1178D
:100D200006604160F8E738680680F5E70670F3E78B
:100D30003878694608740020487404A8039001209C
:100D400003E0386803900020C0433F1D61070FD5C2
:100D5000002101E00199491C029A0191914213DAA4
:100D60008142F7DB019A0399895C0029F2D10BE0FB
:100D7000002101E00199491C01918142FADB019AAD
:100D80000399895C0029F5D101990098139A401ABA
:100D900000902146149B00F03BF9019980194618F8
:100DA00007E0039803990078491C0391149A13995A
:100DB00090470198401E0190401CF2D12146149B9F
:100DC000139A009800F014F986196D1C09E741E0A8
:100DD00033E034E00A200021049005916002410FC5
:100DE000022905D001CFC2179446032905D007E098
:100DF000FF1DFF08FF0003CF06E000B2C2179446B4
:100E0000042902D140B2C1178C46002261469445A4
:100E100006DA0A460021404291418C462D2102E02B
:100E2000210504D52B216A461176012103E0E10753
:100E300001D02021F7E7019154E00A200BE01020B7
:100E400009E01020049000210420044308200591AB
:100E5000029003E008200021059104906002410FF8
:100E6000022905D001CF00229446032906D006E0CE
:100E7000FF1DFF08FF0003CF8C4603E080B204296A
:100E800000D1C0B20021019121072BD5039970290F
:100E900006D0049A1021059B4A401A4305D00EE063
:100EA00040216A461176012108E06146014306D0DF
:100EB00030216A4611760399517602210191049AF4
:100EC0000821059B4A401A430CD16146014301D1D8
:100ED000610707D530216A461176012101910299F7
:100EE000491E02910399582904D037A103910FA9F3
:100EF0000F910DE039A1F9E76146059B049AFFF7D0
:100F000019F9039B8C469B5C0F9A521E0F9213702B
:100F100061460143F0D10F9807A9081A20300390C9
:100F2000600704D5012000048443029801E00120F9
:100F300002900399884201DD401A00E00020411828
:100F40000290019809180098401A0090E00306D416
:100F50002146149B139A009800F05AF88619002035
:100F6000049008E006A9085C149A13999047049825
:100F7000401C761C049001998842F3DBE0030CD5F9
:100F80002146149B139A009800F042F8861904E059
:100F9000149A302013999047761C0299481E0290AB
:100FA0000029F5DC08E00F980F990078491C0F9193
:100FB000149A13999047761C0399481E03900029B0
:100FC000F1DCFBE6092801003031323334353637A5
:100FD0003839616263646566000000003031323385
:100FE0003435363738394142434445460000000025
:100FF000F8B5044600251E461746880404D405E0CB
:1010000039462020B0476D1C641EF9D52846F8BD2E
:10101000FFB50446002581B01E46C80301D5302720
:1010200000E02027880404D505E038460399B0473E
:101030006D1C641EF9D5284605B0F0BD04488168D2
:1010400049004908816081680029FCDB7047000085
:101050000024014070B518480121826988B0490216
:101060000A4382618069084006901448C1684214AE
:101070009143C16012498A6801239B051A438A6023
:10108000816801242143816018216846FFF79AF89E
:1010900000940C4E032400256946304604950194C3
:1010A000FFF77CFA022000906946049501943046CF
:1010B000FFF774FA08B070BD001002400024014030
:1010C000002701400004004810B500200549064BE8
:1010D000064CFF2248601A542254401C4860FF28E6
:1010E000F9D310BDDC000020100100201003002007
:1010F00010B52548012102688A430A43026001684D
:10110000C907C90FFBD021480168012211430160C2
:1011100001688907C90FFBD00168F822914380223A
:101120001143016005224168D2043D231B04994309
:1011300011434160C16A09090901C16201680122C4
:1011400012061143016001688901C90FFBD0416893
:10115000F0229143416041680722120291434160AD
:1011600042680221920892000A4342600C224168C0
:1011700011400829FBD1064C2046FFF767FA2046AC
:10118000FFF774FA10BD000000200240001002407A
:10119000006CDC0210B50E480168090A0902016002
:1011A0000C4900230BE00268D2B252185370026857
:1011B0000468521CD2B2240A240214430460026858
:1011C000D2B2142AEFD30878C009C001087010BD4C
:1011D000DC0000202405002070B515480179154C6D
:1011E000890707D50179FD22114001716179042237
:1011F000114361716179104D490716D541680F4A55
:10120000114041602878002802D1062000F0D6FD68
:10121000012028700A480069000705D46079FB2185
:101220000840607100F0A2FF70BD0020287070BD02
:10123000B40000200C0000203100002007E0FFFF78
:101240000004004810B50E480179C90717D001798C
:1012500049084900017100F0C3F800280AD101F0E3
:1012600027FB002806D100F0AFFB002802D105A023
:10127000FFF7D8FB0A4900200870FFF78BFF10BD6D
:101280008C0000202D2D2D636F6D6D616E64206EBE
:101290006F7420666F756E642D2D2D0A000000009E
:1012A000300000200248416901221143416170472A
:1012B00000100240F8B50E46044601F0CFF90028B0
:1012C00016DB3146204601F0C9F905463046FEF7E7
:1012D00098FF4019215C684601703046FEF791FF87
:1012E00040190019417868464170FEF79FFFF8BD2C
:1012F0000020C043F8BD0000044A10B5914202D15D
:1013000001F092F910BD0020C04310BD4400002040
:10131000F0B5234D87B0686901214904084368612D
:10132000686949000843686118216846FEF74AFF6A
:10133000A81500900120002409270326FF0601902C
:1013400003946946029604943846FFF727F9A96981
:10135000A8140143A961A969022501400691202032
:101360000394049405946A4661C269463846FFF7BF
:1013700015F94020039404946A46059461C26946B5
:101380003846FFF70BF98020039404946A460594CD
:1013900061C269463846FFF701F907B0F0BD0000A9
:1013A0000010024010B5FFF7A3FEFFF77BFF00F02F
:1013B000A1FCFFF793F8FFF7ABFFFFF7CDF9FFF7BD
:1013C0003DFEFFF747FE01F053F9042001F0F8F865
:1013D000FFF7FAFA00F012F901F06AF810BD000008
:1013E00010B5194919A0FEF713FF002801D00020FD
:1013F00010BD18A0FFF716FB14A0FFF713FB1AA0EF
:10140000FFF710FB19A0FFF70DFB17A0FFF70AFB72
:101410001AA0FFF707FB14A0FFF704FB1AA0FFF7C1
:1014200001FB11A0FFF7FEFA1BA0FFF7FBFA0EA0CD
:10143000FFF7F8FA1CA0FFF7F5FA0BA0FFF7F2FA96
:1014400004A0FFF7EFFA10BD2505002068656C7059
:10145000000000002D2D2D2D2D2D2D2D2D2D2D2D70
:101460002D2D2D0A000000000A0000007732357192
:101470005F726561645F6269740000007377617018
:101480005F72656164000000773235715F7265617B
:10149000645F706963000000773235715F7772694D
:1014A00074655F70696300006C63645F7075745F7E
:1014B000706963747572650070B549480168090AFE
:1014C00009020160474BFD2225E009068C0D4649C3
:1014D00064182568454E3540256004682406A40D2F
:1014E000641825781540257004682406A40D641836
:1014F00025786D086D00257004682406A40D611818
:101500000C681C400C6001680468491CC9B2240ABC
:1015100024020C4304600168C9B20A290168D4D3CB
:10152000090A090201601DE009068C0D30496418A2
:1015300025781540257004682406A40D64182578C4
:101540006D086D00257004682406A40D61180C68F0
:101550001C400C6001680468491CC9B2240A2402BA
:101560000C4304600168C9B20A290168DCD3090A86
:10157000090201602FE0016809068B0D1D495B1807
:101580001C78FB252C401C7003681B069B0D5B1808
:101590001C68194D2C401C6003681B069B0D5B18D2
:1015A0001C78640864001C7003681B069B0D5B18A4
:1015B0001C7814401C7003681B069B0D59180B689F
:1015C000AC1223400B6001680368491CC9B21B0AB6
:1015D0001B020B4303600168C9B20A29CBD370BD5B
:1015E000DC00002003F0FFFF64000020FF0FC0FFBD
:1015F0008C000020B4000020FF1F80FFF0B52D48B4
:1016000087B041690122520411434161416952008E
:101610001143416118216846FEF7D4FD00252020C2
:101620000126032703956A460495C1C2224C6946E8
:101630002046FEF7B3FF802003956A460495C1C299
:1016400069462046FEF7AAFF402003956A460495A6
:10165000C1C269462046FEF7A1FF216838028143D6
:10166000216021682160E1688143E160E068310226
:101670000843E0600920C00601688900890801600C
:1016800001680160C16889008908C160C168C20041
:101690001143C1602168C02081432160216821601D
:1016A000E1688143E160E06840210843E06007B001
:1016B000F0BD00000010024000040048F0B5614C8D
:1016C00087B02078C1077BD04008400020705E487A
:1016D000012101705DA1601CFFF7ECFD07465CA1D4
:1016E000601CFFF7E7FD00905AA1601CFFF7E2FDC8
:1016F000064659A1601CFFF7DDFD054657A1601C99
:1017000000F0ACFF069057A1601C00F0A7FF059009
:1017100056A1601C00F0A2FF049056A1601C00F0CE
:101720009DFF039055A1601C00F098FF029056A108
:10173000601C00F093FF01905648574C0078C0069B
:10174000400F1BD1002F0ADB2068B905800A8002F8
:10175000890D08432060394650A0FFF763F90098CF
:1017600000280BDB51492068084000998905090BC6
:10177000084320604EA00099FFF754F9002E0ADBC1
:10178000504920680840B105890808432060314667
:101790004DA0FFF747F9002D0ADB6068A905800A14
:1017A0008002890D0843606029464DA0FFF73AF991
:1017B0000598002807DB6079F7210840607100E098
:1017C0003DE04CA007E00698002806DB6079082180
:1017D0000843607148A0FFF725F90398002805DB4E
:1017E0006079EF210840607145A007E00498002867
:1017F00006DB607910210843607147A0FFF712F9FA
:101800000198002805DB6079DF210840607147A05E
:1018100007E00298002806DB607920210843607108
:1018200048A0FFF7FFF800F09DFE07480021017077
:1018300018480078C006400F01D100F051FC07B0F5
:10184000F0BD00004C0000200000002074743A003D
:1018500074683A0063743A0063683A00436F6E66D6
:101860006967000021436F6E6669670053656E7398
:101870006F7200002153656E736F7200416374755F
:1018800061746F7200000000214163747561746FB0
:1018900072000000000100200C00002074617267DB
:1018A00065745F74656D703D25640A00FF03F0FF89
:1018B0007461726765745F68756D69646974793D98
:1018C00025640A00FFFF0FC073656E736F725F744B
:1018D000656D707265747572653D25640A0000005F
:1018E00073656E736F725F68756D69646974793D55
:1018F00025640A006E6F745F636F6E6669670A0025
:1019000053656E736F725F6E6F745F636F6E6E653B
:10191000637465640A00000053656E736F725F63E1
:101920006F6E6E65637465640A00000041637475D0
:1019300061746F725F6E6F745F636F6E6E656374F8
:1019400065640A004163747561746F725F636F6EE2
:101950006E65637465640A00FFB581B01C46074676
:101960000A981546009022460E200299DB00424359
:101970000B9E3846C91EDB1CFEF7A7FE092D0EDDA7
:101980000A212846FEF7C2FB0A21FEF7BFFB3031D1
:10199000CAB2234600963846029900F0B9F9002DE4
:1019A0000FDB0A212846FEF7B1FB3031A000CAB296
:1019B0002018C0196100401823460096029900F0D3
:1019C000A7F905B0F0BD0000F8B5354C0020606007
:1019D0002060344934A0FEF71BFC00285ED136A0FD
:1019E000FFF720F800F004FCC5B2294636A0FFF747
:1019F00019F800F0CDF8064600F0D6F802460021AE
:101A000033460846FFF7CAF800F0CEF8064600F065
:101A1000BFF8464300F0BCF8074600F0C5F80146A1
:101A200033463A462EA0FEF7FDFF28022146FF303E
:101A300001304860F017400E00258019354CC71161
:101A400027E0174840680002FEF722FF0020FF262B
:101A50000136A06010E00020FEF720FE3043FFF7C3
:101A600041F80020FEF71AFE3043FFF73BF8A0686C
:101A7000C001C009801CA060C001C009FF28EAD3D2
:101A800010200921C906886105484168491C6D1C60
:101A90004160AF42D5DC0020FFF77CF80020F8BDA4
:101AA00004000020250500206C63645F7075745F7E
:101AB00070696374757265004E554D5F50494354AB
:101AC000555245203D200A000A204E554D5F504991
:101AD0004354555245203D202564200A0000000053
:101AE0000A206E6C636447657457696474683D25A9
:101AF000642C206E6C63644765744865696768741C
:101B00003D25642C20616C6C5F706978656C3D25A7
:101B100064000000DC000020FFF744FC00F0A2FCA1
:101B2000FEF752FCFEF778FC00F068FD00F01EFBAB
:101B3000154C207A022108432072A06813490840FE
:101B40007D21C9034018A0602546183D207AC007B2
:101B500003D0207A40084000207200F0D3FC29789E
:101B6000C0074908C00F49000143297000F05EFB1F
:101B7000FFF732FBFFF7A2FDFEF76AFCFEF78EFCD3
:101B8000FFF760FBE2E7000064000020FF0FC0FFEA
:101B90000448C07C002803D0022801D0822070476E
:101BA000A1207047100500200448C07C002803D005
:101BB000022801D0A1207047822070471005002024
:101BC00070B52F4841690122520411434161C51487
:101BD0000924E406A5610015A0614010A0612168F8
:101BE0000320800581432160216852011143216057
:101BF000216882109143216021686A0211432160AB
:101C000021680211914321602168EA01114321609A
:101C1000226881118A43226022686B011A43226084
:101C2000A2688243A260A2680243A260A2688243C3
:101C3000A260A2680243A260A2688243A260A26876
:101C40000243A260A0688843A060A0680843A06027
:101C5000A562FF26F5363046FEF70EFDA56130463B
:101C6000FEF70AFD074D062403E02888AD1CFEF7A9
:101C700039FF2046641EE4B20028F6D170BD000092
:101C800000100240802E000830B514460D46421C5C
:101C900001462A20FEF70BFF6A1C29462B20FEF77F
:101CA00006FF2C20FEF71EFF200AFF300130FEF752
:101CB00019FFE0B2FF300130FEF714FF30BD000025
:101CC00010B50B490024C874012804D0022804D0A0
:101CD000032805D103E0602402E0C02400E0A02432
:101CE0003620FEF7FFFEE01DF930FEF7FBFE10BDCB
:101CF00010050020044801680902090A016001205A
:101D00000249C0060860704718E400E000E100E006
:101D1000FFB5203A90001018C01D89B0C0B20B90DA
:101D200000200090980018181C4603903FE02146C0
:101D30000098FEF7D5F90B99002741181E48405C22
:101D4000029001200190E000079029E0019902989B
:101D500008421ED00A980999C019069000980026DA
:101D60000818059013E005980025801904900AE0F2
:101D7000129882B206984019C1B20498C0B2FFF717
:101D800083FF6D1CEDB2A542F2D3761CF6B2A642DB
:101D9000E9D301984006000E01903819C7B20798A0
:101DA000B842D3D800980019C0B2009003980099A7
:101DB0008842BCD80DB0F0BD8C2E0008F8B50546A1
:101DC0000320FFF77DFFFFF7E3FE0446FFF7ECFE7D
:101DD0000246002123460846FEF7E0FEFFF7E4FE38
:101DE0000646FFF7D5FE4643FFF7D2FE0446FFF74F
:101DF000DBFE0146334622461EA0FEF713FE2802F4
:101E00002949FF3001304860F017400E0025801945
:101E1000264CC71127E0244840680002FEF738FD31
:101E20000020FF260136A06010E00020FEF736FCFF
:101E30003043FEF757FE0020FEF730FC3043FEF73C
:101E400051FEA068C001C009801CA060C001C0098B
:101E5000FF28EAD910200921C90688611248416883
:101E6000491C6D1C4160AF42D5DA0020FEF792FE9E
:101E7000F8BD00000A206E6C63644765745769649E
:101E800074683D25642C206E6C63644765744865F6
:101E9000696768743D25642C20616C6C5F7069789B
:101EA000656C3D256400000004000020DC0000207B
:101EB00010B50EA0FEF7B6FDFEF700FDFEF720FD03
:101EC0000F4C10A02168FEF7ADFD15A06168FEF76C
:101ED000A9FD18A0E168FEF7A5FD1BA02169FEF78A
:101EE000A1FD02A0FEF79EFD10BD00002D2D2D2DA1
:101EF0002D2D2D2D2D2D2D2D2D2D2D0A00000000E9
:101F0000EC0000204D616E75666163745F44657618
:101F10006963655F4944203D202578200A00000060
:101F200049445F646576696365203D202578200A11
:101F30000000000053746174757352656731203D71
:101F4000202578200A00000053746174757352656F
:101F50006732203D202578200A0000000069012218
:101F60008A40104000D0012070470000F8B5544C62
:101F70005449E068802708402026534DE06025E062
:101F8000AE62AF62E0681021C84189034018102199
:101F9000C84101047D22890CD200E060914212D92F
:101FA00048490840E06049490120087048A0FEF710
:101FB00039FD4649002008704648F7224179114012
:101FC000417100F0D3F80120FEF756FB2869C006E6
:101FD00004D40920C00600690004D1D528693F490E
:101FE000C2063D480BD5AE612278FD23520852004F
:101FF0002270227B1A4022730022A26014E0AE629B
:10200000A2680123521C9446A26022781A432270CF
:102010006246282A05D92822A260227B02231A437D
:10202000227342680A4042600922D20612691204F1
:102030000BD5AF612278FD231A402270227B520813
:10204000520022730022626012E0AF6262680227CF
:10205000521C626023783B432370282A05D928222A
:102060006260227B01231A43227342680A40426065
:102070002A69120704D52078DF210840207015E076
:10208000227893060FD432430523DA4101235B07FC
:10209000D2181B23DA41D3065B0F2270022B02D920
:1020A000E3231A40227042680A4042602078C0064A
:1020B000410F4020002901D0A862F8BDA861F8BDF9
:1020C000000100200300FFFF000400480000002082
:1020D000332300000C000020B400002007E0FFFFC5
:1020E0007CB5204C6079400702D50520FFF766FEDD
:1020F00000251D4E00960195206803238000820D67
:102100002D213C20FFF728FC00960195A088032391
:102110008205920D60213C20FFF71EFC0196009580
:1021200060790A210007C20F01230846FFF714FC5B
:1021300001960095607901238006C20F0A211E20B6
:10214000FFF70AFC0196009560790123C006C20FD3
:102150000A213220FFF700FC6079FB210840607102
:102160007CBD00000C000020FFFF00007CB50720B4
:10217000FFF724FE00251C4E1C4C0096019520689C
:1021800003238000820D2D213C20FFF7E5FB009604
:102190000195A08803238205920D60213C20FFF762
:1021A000DBFB0196009560790A210007C20F01232D
:1021B0000846FFF7D1FB0196009560790123800660
:1021C000C20F0A211E20FFF7C7FB01960095607918
:1021D0000123C006C20F0A213220FFF7BDFB607940
:1021E000FB21084060717CBDFFFF00000C00002057
:1021F00070B5FEF7CFFFFF25094CF53505E009A0C6
:10220000FEF710FC2846FEF737FA2079C007F6D013
:1022100020794008400020710348FEF707F870BDA0
:102220008C0000202E00000025050020FEB5874C04
:10223000607940077ED4864D287B0027C007854EF5
:1022400000285CD0287B400840002873FFF78EFEF2
:1022500081480078C106490F2AD0297C0222114307
:1022600029747D497D4B0A7BD10701D1910704D5A3
:10227000286919211840890307E0C10701D18007A7
:1022800006D528691921184009044018286103E07F
:10229000287CFD21084028746F484168012902D03C
:1022A0008068012823D1287C0121084328741EE07E
:1022B00060686B4982058978920D8A4208D0684926
:1022C0000323887060213C2001970096FFF744FBB0
:1022D00020688000820D6248C1788A4207D0C270AF
:1022E00003232D213C2001970096FFF735FB5A4828
:1022F0000078800603D5287C012108432874287CB7
:10230000C00717D05248017C49084900017452485F
:10231000534900780A78C0061F25400FED0282421B
:1023200045D00870012815D10196009520888205B6
:10233000920D00E068E003232D213C20FFF70CFB09
:1023400001970096206803230003820D60213C2042
:10235000FFF702FB40480078C006410F022902D077
:10236000400F17D023E0FF20400101960090208805
:1023700003238205920D2D213C20FFF7EDFA0196F3
:102380000095206803230003820D60213C20FFF7A5
:10239000E3FA0CE0324807702D48017CFD22114021
:1023A0000174FFF7E3FE60794021084360712A4819
:1023B0000078C1064A0F01218905012A25D0022A89
:1023C00022D1C2070AD0226813039B0D632B05D2CA
:1023D0001423DA4152180C23DA412260800709D510
:1023E00020680203920D05D01422D041401A0C211E
:1023F000C841206001960095206803230003820DE8
:1024000060213C20FFF7A8FAFEBDC2070AD022686F
:1024100093059B0D632B05D20A23DA41521816232C
:10242000DA412260800708D52068820505D00A229B
:10243000D041401A1621C84120600196009520889D
:1024400003238205920D2D21DBE700000C00002004
:1024500064000020FFFF000000010020FF0FC0FF0C
:102460003905002010B5FFF727F8FFF7A9FB10BDCD
:10247000F8B54B200025000100F0E6F901240B4ED1
:1024800019277F0100213046FFF768FD604328438C
:10249000C5B2384600F0D8F96400FF2CF2DDFF2009
:1024A000913000F0D1F92846F8BD00000014004832
:1024B00012484169012292051143416110480268A6
:1024C0000C218A430260026804231A430260826876
:1024D0008A43826082680A438260016889088900B1
:1024E000016001680160C16889088900C160C16834
:1024F00001221143C1600221816170470010024036
:1025000000140048F8B5154E00213046FFF726FDAF
:10251000002801D00020F8BD0025114C7D273F0187
:10252000002130466D1CFFF719FD002803D0BD4285
:10253000F6DB0120F8BD0025FFF79AFF60752178D2
:10254000490809194870207821784008401C40004B
:10255000C907C90F01432170E2E7000000140048D9
:102560004C0000200020064902460B18401C5A70FF
:102570001428FADB0878C007C00F08707047000005
:102580004C00002070B50D4C02230546A3621926AD
:102590007601304600F058F90122154201D0A361BE
:1025A00000E0A362304600F04FF95200FF2AF4DD4C
:1025B000A3611920800100F047F970BD00140048A4
:1025C0000D490A6840239A430A6008220A600828D5
:1025D00002D0042802D002E0072200E00322100209
:1025E00048604A68042002434A600A6802430A605D
:1025F00008681843086070470030014070B5062035
:10260000FFF7DCFB7D252D012846FEF735F8002479
:102610002046FFF7D3FB2846FEF72EF8641CE4B2F1
:10262000042CF5D370BD000010B50A490978C9071C
:1026300003D0C0B2FFF7A6FF10BD074AC1B2118197
:1026400005492039CA695206FCD50A6A40231A4353
:102650000A6210BD000000202038014010B5044679
:10266000FDF7BBFD001B01D50020C04310BD0000DD
:102670001048C16982151143C1610F480168802368
:102680000902090AC2061143016001210B4AC8046C
:1026900010600B4802681A4302607D2212028262B7
:1026A000084AC26202680A430260C2680A43C26002
:1026B000704700000010024010E400E000E100E07C
:1026C00000200040DC050000F8B500262A492B4A0E
:1026D0000127009600988300C85C800719D5581818
:1026E00004682405A40D641CA405250D0468144089
:1026F0002C430460CC58CB582405A40D9B029B0DA1
:102700009C420AD903681340036003783B4303707B
:1027100003E058180368134003600098401C0090C1
:102720000A28D7DB1648009600998900435C9B076E
:1027300018D543581B059B0D0BD009180B680C6866
:102740001B059B0D5B1E9B051B0D14401C430C6061
:102750000CE009180B78FD2423400B700B783B43E9
:102760000B7003E009180B6813400B600099491CBB
:1027700000910A29D8DBF8BD6400002003F0FFFFB8
:102780008C00002030B52D480168090A090201605B
:102790002B492C4A4DE003681B069B0DCB5C5B0765
:1027A000036838D51B069B0D5B181C68E404A40D58
:1027B000641CA405E50C1C6814402C431C600368D1
:1027C0001B069B0DCB580468DB049B0D2406A40D4F
:1027D0000C596402A40DA34223D903681B069B0D68
:1027E000CB5CDB0707D103681B069B0D5B181C78CD
:1027F000FB252C401C7003681B069B0D5B181C6896
:1028000014401C6003681B069B0D5B181C78022596
:102810002C431C7005E01B069B0D5B181C681440C4
:102820001C60036804685B1CDBB2240A24021C439E
:1028300004600368DBB20A2BADD330BDDC0000209E
:10284000B400002007E0FFFF002100E0491C8142A6
:10285000FCDB704712480179022211430171416883
:10286000104A1140FF31913141600F4881880F4873
:1028700002785206520E1218517001780278491CE3
:102880004906490ED209D2010A430270017849066D
:10289000490E142903D90178C909C901017070478B
:1028A0008C00002003F0FFFF2038014024050020A9
:1028B000FEB5D94C00206060D84D2060691CD8A0BE
:1028C000FDF7A6FC0F263602002806D0691CD8A00A
:1028D000FDF79EFC00280AD015E0FFF7E9FAD7A023
:1028E000FEF7A0F8FFF784FC0146606006E0FFF702
:1028F000DFFAD7A06660FEF795F86168D9A0FEF709
:1029000091F800F077FA691CDBA0FDF781FC002844
:1029100010D1FFF7CDFADCA0FEF784F8FFF768FCD2
:10292000C1B20A02FF320132DBA06260FEF77AF820
:1029300000F060FA691CE2A0FDF76AFC00287DD176
:10294000FFF7B6FA0F210902E1A06160FEF76AF80D
:10295000EEA0FEF767F8F14EF02070603168FF20BE
:102960000002814314E07068FDF74EFFECA071682F
:10297000FEF758F87068401C7060306831680004D9
:10298000000E401C0006000CFF221202914301437E
:10299000316030680004000E1928E4D32088626892
:1029A000C105C90DE448FEF73DF8FEF7F3FB60688A
:1029B0000002FDF7F2FFE14F13E02878400610D047
:1029C0002878C009C00128702088C005C00DBF2824
:1029D000687838D0FDF762FE2088C005C00D401C25
:1029E00020603879C007E8D0387940084000387155
:1029F000FEF7D0FB884D0F206A68000411020B1A05
:102A00002888C105C90DCE48FEF70CF8CDA0FEF709
:102A100009F8FFF7EDFB02020192FF320446013292
:102A200001469DA06A60FDF7FDFFCEA0FDF7FAFF0D
:102A300020010F3070603068FF2700E0EAE03F02BD
:102A4000B843306024E0FDF729FE09211020C906B3
:102A50008861FDF76FFF002020606068401C6060A7
:102A60000002FDF79AFFBCE77068FDF7CDFEACA051
:102A70007168FDF7D7FF7068401C7060306831687E
:102A80000004000E401C0006000CB94301433160F5
:102A900030680004000E1928E6D3B9A0FDF7C2FF84
:102AA0000F252D02FEF710FB0024C1480094029070
:102AB000FF272E19013731023A46BE48FDF7C6FE00
:102AC000761C31023A460298FDF7C0FE9348016831
:102AD000090A090201600268FF2109028A430260B3
:102AE00030E01204130EB34A0668D35C3604360E87
:102AF000B61877780668DB083604360EB218927876
:102B0000BE08D708DA0273011A433A4342600368E9
:102B1000160ADFB2A84BDE550668F6B2F3185A70F3
:102B200002680368921CD2B21B0A1B0213430360A3
:102B3000026803681204120ED21C1206120C8B4398
:102B40001343036002681204120EC02A0268C8D33D
:102B5000120A1202026002688A433AE002680668BA
:102B60001204130E934A9B18FF3301331B7836046B
:102B7000360EB618FF36013676780768DB083F0454
:102B80003F0EBA18FF3201329278B608D708DA023F
:102B900073011A433A4342600368DEB2864BF6186B
:102BA000803672700668120AF6B2F31880331A7013
:102BB00002680368921CD2B21B0A1B021343036013
:102BC00002681204120ED21C1206130C02688A4309
:102BD0001A43026002681204120EC02ABED3009982
:102BE00001980D4E4018FF3001300102FF22706045
:102BF00001327148FDF7ACFE280201194A1C6FA092
:102C00007368FDF70FFF0098A41C401C0090FF287C
:102C100000DC4DE70020FEBD04000020240500205C
:102C2000773235715F726561645F626974000000BC
:102C3000737761705F726561640000004E554D5F8F
:102C400053544152545F50414745203D200A0000F3
:102C5000535741505F524541445F424954203D2003
:102C60000A0000000A20504147455F535441525426
:102C7000203D202564200A00773235715F7265613E
:102C8000645F7069630000004E554D5F50494354C6
:102C9000555245203D200A000A204E554D5F5049AF
:102CA0004354555245203D2025642026205041475D
:102CB000455F5354415254203D2025640A000000D2
:102CC000773235715F77726974655F706963000090
:102CD0000A20535741505F414444524553285247BC
:102CE00042313620464F52204C434420283139325D
:102CF000207065722070616765202C53415645290C
:102D00002029203D202564200A0000000A2045419A
:102D10005253494E475F535741500A00DC00002090
:102D20004572617365536563746F72344B42203D25
:102D30002025640A00000000383200088C000020C2
:102D40007C3200084E554D5F504943545552455F03
:102D5000544F5F434F4E56455254265341564520DB
:102D60003D200A000A2045524153494E475F5350C7
:102D70004153455F4F465F504943545552450A0001
:102D80000A2A2A2A2A2A2A2A2A2A2A2A2A2A2A539A
:102D90005441525420434F4E56455254494E472AAF
:102DA0002A2A2A2A2A2A2A2A2A2A2A2A2A0A0000F7
:102DB00010020020100100201003002073776170C2
:102DC0005F70616765202564202620256420636F7D
:102DD0006E76657274267361766520746F20256443
:102DE0002070616765206F66207069637475726515
:102DF0000A000000F8B5FEF7CDF9174C174D184E34
:102E000020E06868FF22010201321648FDF71EFD2E
:102E100015A06968FDF706FE0020124F606020795A
:102E2000000702D113A0FDF7FDFD6068395C12A018
:102E3000FDF7F8FD6068401C6060FF28EFD9686806
:102E4000401C68603079C007DBD030794008400012
:102E50003071FEF79FF9F8BDDC000020040000206F
:102E60008C000020100100200A2050414745203DE1
:102E7000202564200A0000002532782C0000000084
:102E800011003A0005012900200013000720050861
:102E900001009F000000000000005F00000007002C
:102EA0000700147F147F14242A7F2A124C2C1068E8
:102EB0006436495522500005030000001C224100E1
:102EC0000041221C0014083E081408083E080800AF
:102ED0000050300010101010100060600000201032
:102EE0000804023E5149453E00427F400042615184
:102EF00049462141454B311814127F10274545455D
:102F0000393C4A4949300171090503364949493676
:102F1000064949291E0036360000005636000008D2
:102F20001422410014141414140041221408020144
:102F3000510906324979413E7E1111117E7F49497E
:102F400049363E414141227F4141221C7F49494946
:102F5000417F090909013E4149497A7F0808087FF4
:102F600000417F41002040413F017F081422417F02
:102F7000404040407F020C027F7F0408107F3E41AA
:102F800041413E7F090909063E4151215E7F0919F1
:102F90002946464949493101017F01013F404040EE
:102FA0003F1F2040201F3F4038403F6314081463F8
:102FB00007087008076151494543007F41410002FD
:102FC000040810200041417F000402010204404037
:102FD000404040000102040020545454787F48448B
:102FE00044383844444420384444487F3854545486
:102FF00018087E0901020C5252523E7F08040478E0
:1030000000447D40002040443D007F1028440000E3
:10301000417F40007C041804787C0804047838441C
:103020004444387C14141408081414187C7C0804D4
:1030300004084854545420043F4440203C4040205D
:103040007C1C2040201C3C4030403C44281028443C
:103050000C5050503C4464544C440008364100002D
:10306000007F000000413608000804081008FFFF38
:10307000FFFFFF7C1211127C7F494949317F49498A
:1030800049367F01010101603F213F607F49494985
:103090004177087F087722414949367F1008047F2D
:1030A0007E1009047E7F08142241403E01017F7F8B
:1030B000020C027F7F0808087F3E4141413E7F01AC
:1030C00001017F7F090909063E4141412201017F3B
:1030D0000101074848483F0E117F110E6314081480
:1030E000633F20203F60070808087F7F407E407FC5
:1030F0003F203F207F017F4848307F4830007F00DD
:103100007F484830224149493E7F083E413E46299A
:1031100019097F20545454783C4A4A4A317C54540B
:1031200028007C04040C00603C243C603854545457
:10313000186C107C106C00445454287C2010087CBF
:103140007C2112097C7C10284400403804047C7CDB
:103150000810087C7C1010107C38444444387C04EF
:1031600004047C7C14141408384444440004047C93
:1031700004040C5050503C08147C140844281028B7
:10318000443C20203C600C1010107C7C407C407C37
:103190003C203C207C047C5050207C5020007C0053
:1031A0007C50502028445454387C103844384854BB
:1031B00034147C0040404040404040404041414148
:1031C00041414040404040404040404040404040FD
:1031D00040404040050202020202020202020202D4
:1031E0000202020220202020202020202020020293
:1031F0000202020202909090909090101010101015
:1032000010101010101010101010101010101002CC
:10321000020202020288888888888808080808084C
:103220000808080808080808080808080808080224
:1032300002020240B43100080A2D5858582D737507
:10324000636365737366756C5F455241535F535793
:1032500041502D5858582D70726F6772616D6572AC
:103260002E493D2025642C2070726F6772616D6558
:10327000722E50203D202564200A00000A2173751B
:10328000636365737366756C5F534156455F53574F
:1032900041502D2D2D2D70726F6772616D65722EEC
:1032A000493D2025642C2070726F6772616D6572D4
:1032B0002E50203D202564202C202564204B4220C8
:1032C000534156450A000000E83200080000002083
:1032D0004C000000900A0008343300084C00002025
:1032E000FC080000A00A0008000000000000000028
:1032F00000000000000000000000000000000000CE
:1033000000000000000000018000400020001000CC
:10331000080004000200010000000000010000009D
:10332000040000000000000000127A00000000000D
:043330000000000099
:04000005080000B13E
:00000001FF
